{
  "transactions": [
    {
      "hash": "0x946b2606eec0cc897ce1b8434115bd969ba413e62d7ce7cf442f3c7a7b5db4e2",
      "transactionType": "CALL",
      "contractName": null,
      "contractAddress": "0xb527cb6AD6A92041fA7bAFe41798F8c46f070a20",
      "function": "execute(address,uint256,bytes,bytes32,bytes32)",
      "arguments": [
        "0x766ad087ef0379b9a9d1E266CbDe1BCd5Ec2f922",
        "0",
        "0x763380a9000000000000000000000000d82f6ea32bde6dad6bb35b27ce98406709af43f9000000000000000000000000781a349e66cf9e909af1ecdefb75fc3b87e54d3a",
        "0x0000000000000000000000000000000000000000000000000000000000000000",
        "0x0000000000000000000000000000000000000000000000000000000000000000"
      ],
      "transaction": {
        "type": "0x02",
        "from": "0x81a1e7f34b9babf172087cf5df8a4df6500e9d4d",
        "to": "0xb527cb6ad6a92041fa7bafe41798f8c46f070a20",
        "gas": "0x31c79",
        "value": "0x0",
        "data": "0x134008d3000000000000000000000000766ad087ef0379b9a9d1e266cbde1bcd5ec2f922000000000000000000000000000000000000000000000000000000000000000000000000000000000000000000000000000000000000000000000000000000a0000000000000000000000000000000000000000000000000000000000000000000000000000000000000000000000000000000000000000000000000000000000000000000000000000000000000000000000000000000000000000000000044763380a9000000000000000000000000d82f6ea32bde6dad6bb35b27ce98406709af43f9000000000000000000000000781a349e66cf9e909af1ecdefb75fc3b87e54d3a00000000000000000000000000000000000000000000000000000000",
        "nonce": "0x3a",
        "accessList": []
      },
      "additionalContracts": [],
      "isFixedGasLimit": false
    }
  ],
  "receipts": [
    {
      "transactionHash": "0x946b2606eec0cc897ce1b8434115bd969ba413e62d7ce7cf442f3c7a7b5db4e2",
      "transactionIndex": "0x3",
      "blockHash": "0x3c614ef4752cae6d5a2bff7cf884778238acd774324130d509187e4136425246",
      "blockNumber": "0x1fe7a37",
      "from": "0x81a1e7F34b9bABf172087cF5df8A4DF6500e9d4d",
      "to": "0xb527cb6AD6A92041fA7bAFe41798F8c46f070a20",
      "cumulativeGasUsed": "0xdeb5bc",
      "gasUsed": "0x22099",
      "contractAddress": null,
      "logs": [
        {
          "address": "0xc878036B38Eb491D2C058F4030c2E10eA8f6A326",
          "topics": [
            "0x67c138aed690b53f8472c70911848132b03f2e8c321a03e5db379ad5e0850205"
          ],
          "data": "0x0000000000000000000000000000000000000000000000000000000000000064",
          "blockHash": "0x3c614ef4752cae6d5a2bff7cf884778238acd774324130d509187e4136425246",
          "blockNumber": "0x1fe7a37",
          "transactionHash": "0x946b2606eec0cc897ce1b8434115bd969ba413e62d7ce7cf442f3c7a7b5db4e2",
          "transactionIndex": "0x3",
          "logIndex": "0xbbe",
          "removed": false
        },
        {
          "address": "0x766ad087ef0379b9a9d1E266CbDe1BCd5Ec2f922",
          "topics": [
            "0x5b5a6a8527892eb1e879279ea1addd664eef55099889d3fe13e926a5fd7c3605"
          ],
          "data": "0x00000000000000000000000000000000000000000000000000000000000000000000000000000000000000000000000000000000000000000000000000002710",
          "blockHash": "0x3c614ef4752cae6d5a2bff7cf884778238acd774324130d509187e4136425246",
          "blockNumber": "0x1fe7a37",
          "transactionHash": "0x946b2606eec0cc897ce1b8434115bd969ba413e62d7ce7cf442f3c7a7b5db4e2",
          "transactionIndex": "0x3",
          "logIndex": "0xbbf",
          "removed": false
        },
        {
          "address": "0x766ad087ef0379b9a9d1E266CbDe1BCd5Ec2f922",
          "topics": [
            "0x14d094195dac9d4dba988503f61e172a4a148834e6f99d61d19a1014773f2ab3"
          ],
          "data": "0x000000000000000000000000d82f6ea32bde6dad6bb35b27ce98406709af43f9",
          "blockHash": "0x3c614ef4752cae6d5a2bff7cf884778238acd774324130d509187e4136425246",
          "blockNumber": "0x1fe7a37",
          "transactionHash": "0x946b2606eec0cc897ce1b8434115bd969ba413e62d7ce7cf442f3c7a7b5db4e2",
          "transactionIndex": "0x3",
          "logIndex": "0xbc0",
          "removed": false
        },
        {
          "address": "0xb527cb6AD6A92041fA7bAFe41798F8c46f070a20",
          "topics": [
            "0xc2617efa69bab66782fa219543714338489c4e9e178271560a91b82c3f612b58",
            "0x92efaa432f50d843d227875050d94ab1e651332efbd60369ef21bbfabc0252f3",
            "0x0000000000000000000000000000000000000000000000000000000000000000"
          ],
          "data": "0x000000000000000000000000766ad087ef0379b9a9d1e266cbde1bcd5ec2f922000000000000000000000000000000000000000000000000000000000000000000000000000000000000000000000000000000000000000000000000000000600000000000000000000000000000000000000000000000000000000000000044763380a9000000000000000000000000d82f6ea32bde6dad6bb35b27ce98406709af43f9000000000000000000000000781a349e66cf9e909af1ecdefb75fc3b87e54d3a00000000000000000000000000000000000000000000000000000000",
          "blockHash": "0x3c614ef4752cae6d5a2bff7cf884778238acd774324130d509187e4136425246",
          "blockNumber": "0x1fe7a37",
          "transactionHash": "0x946b2606eec0cc897ce1b8434115bd969ba413e62d7ce7cf442f3c7a7b5db4e2",
          "transactionIndex": "0x3",
          "logIndex": "0xbc1",
          "removed": false
        }
      ],
      "status": "0x1",
      "logsBloom": "0x00000100002000000000000000000000000000000000000000000010000000000000000400000000000000000000000000000000000800000004000000000100000000000000000400000000000000800000000000000000000000000000002000000000020000000200000000000800000000000000000000000000004000000000000000000000000008000000000000200000001000000000000000000000000000000000100000100000020000000000000000000000000000000000000000000000000000080000000000000000200000000000000000000000000020000000000000000000000001000000000000200000000010000000000002000000",
      "type": "0x2",
      "effectiveGasPrice": "0xb2d05e09"
    }
  ],
  "libraries": [],
  "pending": [],
  "returns": {},
  "timestamp": 1713177836,
  "chain": 100,
  "commit": "fc570f4"
}