{
  "transactions": [
    {
      "hash": "0x44936baadc08a16d4faf276a56dfa78fe61bb2dfa8c35b6f256c98a4b40a1923",
      "transactionType": "CALL",
      "contractName": "TimeLock",
      "contractAddress": "0x6a135E498eD2171f908aEAc875390E4383B54a68",
      "function": "execute(address,uint256,bytes,bytes32,bytes32)",
      "arguments": [
        "0xC3bcCa24A7448f4CC42a8ECD8bbB69e9Baf1f075",
        "0",
        "0x22a8402a0000000000000000000000008708c44c4144682f467a7285f732432b2e47c085",
        "0x0000000000000000000000000000000000000000000000000000000000000000",
        "0x0000000000000000000000000000000000000000000000000000000000000000"
      ],
      "transaction": {
        "type": "0x02",
        "from": "0x81a1e7f34b9babf172087cf5df8a4df6500e9d4d",
        "to": "0x6a135e498ed2171f908aeac875390e4383b54a68",
        "gas": "0x274a0",
        "value": "0x0",
        "data": "0x134008d3000000000000000000000000c3bcca24a7448f4cc42a8ecd8bbb69e9baf1f075000000000000000000000000000000000000000000000000000000000000000000000000000000000000000000000000000000000000000000000000000000a000000000000000000000000000000000000000000000000000000000000000000000000000000000000000000000000000000000000000000000000000000000000000000000000000000000000000000000000000000000000000000000002422a8402a0000000000000000000000008708c44c4144682f467a7285f732432b2e47c08500000000000000000000000000000000000000000000000000000000",
        "nonce": "0x17",
        "accessList": []
      },
      "additionalContracts": [],
      "isFixedGasLimit": false
    }
  ],
  "receipts": [
    {
      "transactionHash": "0x44936baadc08a16d4faf276a56dfa78fe61bb2dfa8c35b6f256c98a4b40a1923",
      "transactionIndex": "0x7",
      "blockHash": "0xb5ccc6cd2dbb33af02a7c368d683a0f2894af8297660538d9da6632db9ca4a1e",
      "blockNumber": "0x1f7b71f",
      "from": "0x81a1e7F34b9bABf172087cF5df8A4DF6500e9d4d",
      "to": "0x6a135E498eD2171f908aEAc875390E4383B54a68",
      "cumulativeGasUsed": "0x1597d3",
      "gasUsed": "0x1c71e",
      "contractAddress": null,
      "logs": [
        {
          "address": "0xCe626E0177b26066aF77f413Bf343F5BcABd682a",
          "topics": [
            "0x67c138aed690b53f8472c70911848132b03f2e8c321a03e5db379ad5e0850205"
          ],
          "data": "0x0000000000000000000000000000000000000000000000000000000000000064",
          "blockHash": "0xb5ccc6cd2dbb33af02a7c368d683a0f2894af8297660538d9da6632db9ca4a1e",
          "blockNumber": "0x1f7b71f",
          "transactionHash": "0x44936baadc08a16d4faf276a56dfa78fe61bb2dfa8c35b6f256c98a4b40a1923",
          "transactionIndex": "0x7",
          "logIndex": "0x107",
          "removed": false
        },
        {
          "address": "0xC3bcCa24A7448f4CC42a8ECD8bbB69e9Baf1f075",
          "topics": [
            "0x5b5a6a8527892eb1e879279ea1addd664eef55099889d3fe13e926a5fd7c3605"
          ],
          "data": "0x00000000000000000000000000000000000000000000000000000000000000000000000000000000000000000000000000000000000000000000000000002710",
          "blockHash": "0xb5ccc6cd2dbb33af02a7c368d683a0f2894af8297660538d9da6632db9ca4a1e",
          "blockNumber": "0x1f7b71f",
          "transactionHash": "0x44936baadc08a16d4faf276a56dfa78fe61bb2dfa8c35b6f256c98a4b40a1923",
          "transactionIndex": "0x7",
          "logIndex": "0x108",
          "removed": false
        },
        {
          "address": "0xC3bcCa24A7448f4CC42a8ECD8bbB69e9Baf1f075",
          "topics": [
            "0x14d094195dac9d4dba988503f61e172a4a148834e6f99d61d19a1014773f2ab3"
          ],
          "data": "0x0000000000000000000000008708c44c4144682f467a7285f732432b2e47c085",
          "blockHash": "0xb5ccc6cd2dbb33af02a7c368d683a0f2894af8297660538d9da6632db9ca4a1e",
          "blockNumber": "0x1f7b71f",
          "transactionHash": "0x44936baadc08a16d4faf276a56dfa78fe61bb2dfa8c35b6f256c98a4b40a1923",
          "transactionIndex": "0x7",
          "logIndex": "0x109",
          "removed": false
        },
        {
          "address": "0x6a135E498eD2171f908aEAc875390E4383B54a68",
          "topics": [
            "0xc2617efa69bab66782fa219543714338489c4e9e178271560a91b82c3f612b58",
            "0x2c9d5f153ca6499f5d2e9234b209d0ea786c93354521102eccf957d998c1c896",
            "0x0000000000000000000000000000000000000000000000000000000000000000"
          ],
          "data": "0x000000000000000000000000c3bcca24a7448f4cc42a8ecd8bbb69e9baf1f07500000000000000000000000000000000000000000000000000000000000000000000000000000000000000000000000000000000000000000000000000000060000000000000000000000000000000000000000000000000000000000000002422a8402a0000000000000000000000008708c44c4144682f467a7285f732432b2e47c08500000000000000000000000000000000000000000000000000000000",
          "blockHash": "0xb5ccc6cd2dbb33af02a7c368d683a0f2894af8297660538d9da6632db9ca4a1e",
          "blockNumber": "0x1f7b71f",
          "transactionHash": "0x44936baadc08a16d4faf276a56dfa78fe61bb2dfa8c35b6f256c98a4b40a1923",
          "transactionIndex": "0x7",
          "logIndex": "0x10a",
          "removed": false
        }
      ],
      "status": "0x1",
      "logsBloom": "0x0000000000204000000000000000000000000000000000000000000000000000000000a000000000000000000000000000000000000800000000000000000000000000000000000400000000040000000000000000000000000000080000002000000000020000000200000004000800001000000000000000000000004000000000000000000800000008000000000000000000000000000000000000000000000000000000000000100000020000000000000040000000000000000000000000000000000000080000000000000000200000000000400000002000000020000000000000000000000000000000000000000000000010000000000000000000",
      "type": "0x2",
      "effectiveGasPrice": "0xb2d05e13"
    }
  ],
  "libraries": [],
  "pending": [],
  "returns": {},
  "timestamp": 1710865206,
  "chain": 100,
  "multi": false,
  "commit": "b0a703f"
}