{
  "transactions": [
    {
      "hash": "0x6c66d7dc7e9c06d3f28363208889fdcf83a603824a141cfa1591a9f5f97f0f44",
      "transactionType": "CALL",
      "contractName": "TimeLock",
      "contractAddress": "0x119e26B6D72376Ac741d5546eA295d1A0160E26c",
      "function": "execute(address,uint256,bytes,bytes32,bytes32)",
      "arguments": [
        "0xb0A76A387f1Fc9433Ad1E244C530548C872d7932",
        "0",
        "0x763380a9000000000000000000000000614b8b047cafec2fcfc788dd4afe9e32fe924cd0000000000000000000000000cd3b683c6514e94a48d7993544c199341fcdd14e",
        "0x0000000000000000000000000000000000000000000000000000000000000000",
        "0x0000000000000000000000000000000000000000000000000000000000000000"
      ],
      "transaction": {
        "type": "0x02",
        "from": "0x81a1e7f34b9babf172087cf5df8a4df6500e9d4d",
        "to": "0x119e26b6d72376ac741d5546ea295d1a0160e26c",
        "gas": "0x31c79",
        "value": "0x0",
        "data": "0x134008d3000000000000000000000000b0a76a387f1fc9433ad1e244c530548c872d7932000000000000000000000000000000000000000000000000000000000000000000000000000000000000000000000000000000000000000000000000000000a0000000000000000000000000000000000000000000000000000000000000000000000000000000000000000000000000000000000000000000000000000000000000000000000000000000000000000000000000000000000000000000000044763380a9000000000000000000000000614b8b047cafec2fcfc788dd4afe9e32fe924cd0000000000000000000000000cd3b683c6514e94a48d7993544c199341fcdd14e00000000000000000000000000000000000000000000000000000000",
        "nonce": "0x55",
        "accessList": []
      },
      "additionalContracts": [],
      "isFixedGasLimit": false
    }
  ],
  "receipts": [
    {
      "transactionHash": "0x6c66d7dc7e9c06d3f28363208889fdcf83a603824a141cfa1591a9f5f97f0f44",
      "transactionIndex": "0x5",
      "blockHash": "0xbf7008dcd83b59f0f66dfdd758c2b64b9e84dcc2b9201f2220a380614e21e676",
      "blockNumber": "0x1ff0392",
      "from": "0x81a1e7F34b9bABf172087cF5df8A4DF6500e9d4d",
      "to": "0x119e26B6D72376Ac741d5546eA295d1A0160E26c",
      "cumulativeGasUsed": "0x7b5613",
      "gasUsed": "0x22099",
      "contractAddress": null,
      "logs": [
        {
          "address": "0x69aBfAE29aA7a1CAC061D3e05Eee806291A4dB87",
          "topics": [
            "0x67c138aed690b53f8472c70911848132b03f2e8c321a03e5db379ad5e0850205"
          ],
          "data": "0x0000000000000000000000000000000000000000000000000000000000000064",
          "blockHash": "0xbf7008dcd83b59f0f66dfdd758c2b64b9e84dcc2b9201f2220a380614e21e676",
          "blockNumber": "0x1ff0392",
          "transactionHash": "0x6c66d7dc7e9c06d3f28363208889fdcf83a603824a141cfa1591a9f5f97f0f44",
          "transactionIndex": "0x5",
          "logIndex": "0x7d7",
          "removed": false
        },
        {
          "address": "0xb0A76A387f1Fc9433Ad1E244C530548C872d7932",
          "topics": [
            "0x5b5a6a8527892eb1e879279ea1addd664eef55099889d3fe13e926a5fd7c3605"
          ],
          "data": "0x00000000000000000000000000000000000000000000000000000000000000000000000000000000000000000000000000000000000000000000000000002710",
          "blockHash": "0xbf7008dcd83b59f0f66dfdd758c2b64b9e84dcc2b9201f2220a380614e21e676",
          "blockNumber": "0x1ff0392",
          "transactionHash": "0x6c66d7dc7e9c06d3f28363208889fdcf83a603824a141cfa1591a9f5f97f0f44",
          "transactionIndex": "0x5",
          "logIndex": "0x7d8",
          "removed": false
        },
        {
          "address": "0xb0A76A387f1Fc9433Ad1E244C530548C872d7932",
          "topics": [
            "0x14d094195dac9d4dba988503f61e172a4a148834e6f99d61d19a1014773f2ab3"
          ],
          "data": "0x000000000000000000000000614b8b047cafec2fcfc788dd4afe9e32fe924cd0",
          "blockHash": "0xbf7008dcd83b59f0f66dfdd758c2b64b9e84dcc2b9201f2220a380614e21e676",
          "blockNumber": "0x1ff0392",
          "transactionHash": "0x6c66d7dc7e9c06d3f28363208889fdcf83a603824a141cfa1591a9f5f97f0f44",
          "transactionIndex": "0x5",
          "logIndex": "0x7d9",
          "removed": false
        },
        {
          "address": "0x119e26B6D72376Ac741d5546eA295d1A0160E26c",
          "topics": [
            "0xc2617efa69bab66782fa219543714338489c4e9e178271560a91b82c3f612b58",
            "0x09a7ec15e6cf7c35893a9b1699f01920527efb13d100e2c664847e91ba6219d6",
            "0x0000000000000000000000000000000000000000000000000000000000000000"
          ],
          "data": "0x000000000000000000000000b0a76a387f1fc9433ad1e244c530548c872d7932000000000000000000000000000000000000000000000000000000000000000000000000000000000000000000000000000000000000000000000000000000600000000000000000000000000000000000000000000000000000000000000044763380a9000000000000000000000000614b8b047cafec2fcfc788dd4afe9e32fe924cd0000000000000000000000000cd3b683c6514e94a48d7993544c199341fcdd14e00000000000000000000000000000000000000000000000000000000",
          "blockHash": "0xbf7008dcd83b59f0f66dfdd758c2b64b9e84dcc2b9201f2220a380614e21e676",
          "blockNumber": "0x1ff0392",
          "transactionHash": "0x6c66d7dc7e9c06d3f28363208889fdcf83a603824a141cfa1591a9f5f97f0f44",
          "transactionIndex": "0x5",
          "logIndex": "0x7da",
          "removed": false
        }
      ],
      "status": "0x1",
      "logsBloom": "0x00000000002000000000000000800000000001000000000000000000000000000000000000000000000000000000900000000000000800000000000000000000000200000000000440000000000000000000000000000000000000080000002000000000020000000200000000000800000000000000000000004000004000000000000000000000000008000000000000000000000000000000000000000000000000000000000000100000020000000000000000000000000000000000000000000000000000080001200000000000200000000000000000000000000020000080000000400000000000000000000000000000000010000000000000000000",
      "type": "0x2",
      "effectiveGasPrice": "0xb2d05e14"
    }
  ],
  "libraries": [],
  "pending": [],
  "returns": {},
  "timestamp": 1713359457,
  "chain": 100,
  "commit": "82b2400"
}