{
  "transactions": [
    {
      "hash": "0xa6fbfa93dcac64ce11b6d82061f457a80c4b7293f18982bfbe0172a79d61b535",
      "transactionType": "CALL",
      "contractName": "TimeLock",
      "contractAddress": "0x6Db15200e553bc0Ca146ebD7838502e5d33255cf",
      "function": "execute(address,uint256,bytes,bytes32,bytes32)",
      "arguments": [
        "0xC6C9b4C1616Ff870622aEbbdD998cA5973e01336",
        "0",
        "0x763380a90000000000000000000000008d5817dba8dafdc57ef7a2fc22b845f28d496c610000000000000000000000005c84594d6fc8c4a6faee0eedf0b9e49d23243170",
        "0x0000000000000000000000000000000000000000000000000000000000000000",
        "0x0000000000000000000000000000000000000000000000000000000000000000"
      ],
      "transaction": {
        "type": "0x02",
        "from": "0x81a1e7f34b9babf172087cf5df8a4df6500e9d4d",
        "to": "0x6db15200e553bc0ca146ebd7838502e5d33255cf",
        "gas": "0x31c79",
        "value": "0x0",
        "data": "0x134008d3000000000000000000000000c6c9b4c1616ff870622aebbdd998ca5973e01336000000000000000000000000000000000000000000000000000000000000000000000000000000000000000000000000000000000000000000000000000000a0000000000000000000000000000000000000000000000000000000000000000000000000000000000000000000000000000000000000000000000000000000000000000000000000000000000000000000000000000000000000000000000044763380a90000000000000000000000008d5817dba8dafdc57ef7a2fc22b845f28d496c610000000000000000000000005c84594d6fc8c4a6faee0eedf0b9e49d2324317000000000000000000000000000000000000000000000000000000000",
        "nonce": "0x34",
        "accessList": []
      },
      "additionalContracts": [],
      "isFixedGasLimit": false
    }
  ],
  "receipts": [
    {
      "transactionHash": "0xa6fbfa93dcac64ce11b6d82061f457a80c4b7293f18982bfbe0172a79d61b535",
      "transactionIndex": "0x2",
      "blockHash": "0x3c797a5a6e1c36a24610c124ffaa13a5e8d8d10fb0e70c4aaeb62e890db46495",
      "blockNumber": "0x1fb2a3b",
      "from": "0x81a1e7F34b9bABf172087cF5df8A4DF6500e9d4d",
      "to": "0x6Db15200e553bc0Ca146ebD7838502e5d33255cf",
      "cumulativeGasUsed": "0x20ce70",
      "gasUsed": "0x22099",
      "contractAddress": null,
      "logs": [
        {
          "address": "0xF18b966Ad80eC4a866a7E795Cb1a0D5fdF59DC66",
          "topics": [
            "0x67c138aed690b53f8472c70911848132b03f2e8c321a03e5db379ad5e0850205"
          ],
          "data": "0x0000000000000000000000000000000000000000000000000000000000000064",
          "blockHash": "0x3c797a5a6e1c36a24610c124ffaa13a5e8d8d10fb0e70c4aaeb62e890db46495",
          "blockNumber": "0x1fb2a3b",
          "transactionHash": "0xa6fbfa93dcac64ce11b6d82061f457a80c4b7293f18982bfbe0172a79d61b535",
          "transactionIndex": "0x2",
          "logIndex": "0x191",
          "removed": false
        },
        {
          "address": "0xC6C9b4C1616Ff870622aEbbdD998cA5973e01336",
          "topics": [
            "0x5b5a6a8527892eb1e879279ea1addd664eef55099889d3fe13e926a5fd7c3605"
          ],
          "data": "0x00000000000000000000000000000000000000000000000000000000000000000000000000000000000000000000000000000000000000000000000000002710",
          "blockHash": "0x3c797a5a6e1c36a24610c124ffaa13a5e8d8d10fb0e70c4aaeb62e890db46495",
          "blockNumber": "0x1fb2a3b",
          "transactionHash": "0xa6fbfa93dcac64ce11b6d82061f457a80c4b7293f18982bfbe0172a79d61b535",
          "transactionIndex": "0x2",
          "logIndex": "0x192",
          "removed": false
        },
        {
          "address": "0xC6C9b4C1616Ff870622aEbbdD998cA5973e01336",
          "topics": [
            "0x14d094195dac9d4dba988503f61e172a4a148834e6f99d61d19a1014773f2ab3"
          ],
          "data": "0x0000000000000000000000008d5817dba8dafdc57ef7a2fc22b845f28d496c61",
          "blockHash": "0x3c797a5a6e1c36a24610c124ffaa13a5e8d8d10fb0e70c4aaeb62e890db46495",
          "blockNumber": "0x1fb2a3b",
          "transactionHash": "0xa6fbfa93dcac64ce11b6d82061f457a80c4b7293f18982bfbe0172a79d61b535",
          "transactionIndex": "0x2",
          "logIndex": "0x193",
          "removed": false
        },
        {
          "address": "0x6Db15200e553bc0Ca146ebD7838502e5d33255cf",
          "topics": [
            "0xc2617efa69bab66782fa219543714338489c4e9e178271560a91b82c3f612b58",
            "0x1f02052884c9c13cd3e15a9f674aca22e7e2770279febd5394ca0a4982e40c52",
            "0x0000000000000000000000000000000000000000000000000000000000000000"
          ],
          "data": "0x000000000000000000000000c6c9b4c1616ff870622aebbdd998ca5973e01336000000000000000000000000000000000000000000000000000000000000000000000000000000000000000000000000000000000000000000000000000000600000000000000000000000000000000000000000000000000000000000000044763380a90000000000000000000000008d5817dba8dafdc57ef7a2fc22b845f28d496c610000000000000000000000005c84594d6fc8c4a6faee0eedf0b9e49d2324317000000000000000000000000000000000000000000000000000000000",
          "blockHash": "0x3c797a5a6e1c36a24610c124ffaa13a5e8d8d10fb0e70c4aaeb62e890db46495",
          "blockNumber": "0x1fb2a3b",
          "transactionHash": "0xa6fbfa93dcac64ce11b6d82061f457a80c4b7293f18982bfbe0172a79d61b535",
          "transactionIndex": "0x2",
          "logIndex": "0x194",
          "removed": false
        }
      ],
      "status": "0x1",
      "logsBloom": "0x00000000002000000000000080000000000000000000000000000000000000000000000000000000000000000000000000000000000800000000000000000000000000200400000400000000000000000000000000000000000002000000002000000000020020000200000000000800000000000000000000000000404000000000000100000000000008000000000000000000000000000000000000000000000000000000000000100000020000000000000000000000000000000000000000000000000800080000200000000000200000000000000004000080000020000000000000000000000000000040000000000000000010000000000000000000",
      "type": "0x2",
      "effectiveGasPrice": "0xb2d05e3c"
    }
  ],
  "libraries": [],
  "pending": [],
  "returns": {},
  "timestamp": 1712049022,
  "chain": 100,
  "commit": "fd981e7"
}