{
  "transactions": [
    {
      "hash": "0x0bea4ca67b6b53d5b7fc5e9719da0496ff2741dabda99adaa312626c0cde7abc",
      "transactionType": "CALL",
      "contractName": "TimeLock",
      "contractAddress": "0xD41479D3f6c42cF6F532DF0F64Ca132342661f07",
      "function": "execute(address,uint256,bytes,bytes32,bytes32)",
      "arguments": [
        "0xE7Ea7A62Ca83FF745B0129562bfcBB8D15720d52",
        "0",
        "0x22a8402a000000000000000000000000b6cf5502e64d79d96f09138b8f808412502d03cc",
        "0x0000000000000000000000000000000000000000000000000000000000000000",
        "0x0000000000000000000000000000000000000000000000000000000000000000"
      ],
      "transaction": {
        "type": "0x02",
        "from": "0x81a1e7f34b9babf172087cf5df8a4df6500e9d4d",
        "to": "0xd41479d3f6c42cf6f532df0f64ca132342661f07",
        "gas": "0x274a0",
        "value": "0x0",
        "data": "0x134008d3000000000000000000000000e7ea7a62ca83ff745b0129562bfcbb8d15720d52000000000000000000000000000000000000000000000000000000000000000000000000000000000000000000000000000000000000000000000000000000a000000000000000000000000000000000000000000000000000000000000000000000000000000000000000000000000000000000000000000000000000000000000000000000000000000000000000000000000000000000000000000000002422a8402a000000000000000000000000b6cf5502e64d79d96f09138b8f808412502d03cc00000000000000000000000000000000000000000000000000000000",
        "nonce": "0x25",
        "accessList": []
      },
      "additionalContracts": [],
      "isFixedGasLimit": false
    }
  ],
  "receipts": [],
  "libraries": [],
  "pending": [
    "0x0bea4ca67b6b53d5b7fc5e9719da0496ff2741dabda99adaa312626c0cde7abc"
  ],
  "returns": {},
  "timestamp": 1711457680,
  "chain": 100,
  "multi": false,
  "commit": "b0a703f"
}