{
  "transactions": [
    {
      "hash": "0x0bea4ca67b6b53d5b7fc5e9719da0496ff2741dabda99adaa312626c0cde7abc",
      "transactionType": "CALL",
      "contractName": "TimeLock",
      "contractAddress": "0xD41479D3f6c42cF6F532DF0F64Ca132342661f07",
      "function": "execute(address,uint256,bytes,bytes32,bytes32)",
      "arguments": [
        "0xE7Ea7A62Ca83FF745B0129562bfcBB8D15720d52",
        "0",
        "0x22a8402a000000000000000000000000b6cf5502e64d79d96f09138b8f808412502d03cc",
        "0x0000000000000000000000000000000000000000000000000000000000000000",
        "0x0000000000000000000000000000000000000000000000000000000000000000"
      ],
      "transaction": {
        "type": "0x02",
        "from": "0x81a1e7f34b9babf172087cf5df8a4df6500e9d4d",
        "to": "0xd41479d3f6c42cf6f532df0f64ca132342661f07",
        "gas": "0x274a0",
        "value": "0x0",
        "data": "0x134008d3000000000000000000000000e7ea7a62ca83ff745b0129562bfcbb8d15720d52000000000000000000000000000000000000000000000000000000000000000000000000000000000000000000000000000000000000000000000000000000a000000000000000000000000000000000000000000000000000000000000000000000000000000000000000000000000000000000000000000000000000000000000000000000000000000000000000000000000000000000000000000000002422a8402a000000000000000000000000b6cf5502e64d79d96f09138b8f808412502d03cc00000000000000000000000000000000000000000000000000000000",
        "nonce": "0x25",
        "accessList": []
      },
      "additionalContracts": [],
      "isFixedGasLimit": false
    }
  ],
  "receipts": [
    {
      "transactionHash": "0x0bea4ca67b6b53d5b7fc5e9719da0496ff2741dabda99adaa312626c0cde7abc",
      "transactionIndex": "0x5",
      "blockHash": "0x211fe4287e773fd13a5028d4232829ce2fc90683a2e277d243aca5a21e2626f2",
      "blockNumber": "0x1f97113",
      "from": "0x81a1e7F34b9bABf172087cF5df8A4DF6500e9d4d",
      "to": "0xD41479D3f6c42cF6F532DF0F64Ca132342661f07",
      "cumulativeGasUsed": "0x38e57a",
      "gasUsed": "0x1c71e",
      "contractAddress": null,
      "logs": [
        {
          "address": "0x46046EaA48097729604CbA5603E440E4021b61D7",
          "topics": [
            "0x67c138aed690b53f8472c70911848132b03f2e8c321a03e5db379ad5e0850205"
          ],
          "data": "0x0000000000000000000000000000000000000000000000000000000000000064",
          "blockHash": "0x211fe4287e773fd13a5028d4232829ce2fc90683a2e277d243aca5a21e2626f2",
          "blockNumber": "0x1f97113",
          "transactionHash": "0x0bea4ca67b6b53d5b7fc5e9719da0496ff2741dabda99adaa312626c0cde7abc",
          "transactionIndex": "0x5",
          "logIndex": "0x321",
          "removed": false
        },
        {
          "address": "0xE7Ea7A62Ca83FF745B0129562bfcBB8D15720d52",
          "topics": [
            "0x5b5a6a8527892eb1e879279ea1addd664eef55099889d3fe13e926a5fd7c3605"
          ],
          "data": "0x00000000000000000000000000000000000000000000000000000000000000000000000000000000000000000000000000000000000000000000000000002710",
          "blockHash": "0x211fe4287e773fd13a5028d4232829ce2fc90683a2e277d243aca5a21e2626f2",
          "blockNumber": "0x1f97113",
          "transactionHash": "0x0bea4ca67b6b53d5b7fc5e9719da0496ff2741dabda99adaa312626c0cde7abc",
          "transactionIndex": "0x5",
          "logIndex": "0x322",
          "removed": false
        },
        {
          "address": "0xE7Ea7A62Ca83FF745B0129562bfcBB8D15720d52",
          "topics": [
            "0x14d094195dac9d4dba988503f61e172a4a148834e6f99d61d19a1014773f2ab3"
          ],
          "data": "0x000000000000000000000000b6cf5502e64d79d96f09138b8f808412502d03cc",
          "blockHash": "0x211fe4287e773fd13a5028d4232829ce2fc90683a2e277d243aca5a21e2626f2",
          "blockNumber": "0x1f97113",
          "transactionHash": "0x0bea4ca67b6b53d5b7fc5e9719da0496ff2741dabda99adaa312626c0cde7abc",
          "transactionIndex": "0x5",
          "logIndex": "0x323",
          "removed": false
        },
        {
          "address": "0xD41479D3f6c42cF6F532DF0F64Ca132342661f07",
          "topics": [
            "0xc2617efa69bab66782fa219543714338489c4e9e178271560a91b82c3f612b58",
            "0x5c419bebe37fc00519b0ba13dd703e90c875f49dd2023236e1637cf6db8aad55",
            "0x0000000000000000000000000000000000000000000000000000000000000000"
          ],
          "data": "0x000000000000000000000000e7ea7a62ca83ff745b0129562bfcbb8d15720d5200000000000000000000000000000000000000000000000000000000000000000000000000000000000000000000000000000000000000000000000000000060000000000000000000000000000000000000000000000000000000000000002422a8402a000000000000000000000000b6cf5502e64d79d96f09138b8f808412502d03cc00000000000000000000000000000000000000000000000000000000",
          "blockHash": "0x211fe4287e773fd13a5028d4232829ce2fc90683a2e277d243aca5a21e2626f2",
          "blockNumber": "0x1f97113",
          "transactionHash": "0x0bea4ca67b6b53d5b7fc5e9719da0496ff2741dabda99adaa312626c0cde7abc",
          "transactionIndex": "0x5",
          "logIndex": "0x324",
          "removed": false
        }
      ],
      "status": "0x1",
      "logsBloom": "0x00081000002080000000000000000000002000000100010000000000000000000010000000000000000002000000000000000000000800000000000000000000000000000000000400000000000000000000000000000000000000000000002000000000020000000201000000000880000000000000000000000000004000000000000400000000000008000000000000000000000000000000000000000020000000000000000000100000020000000000000000000000000000000000000000000000000000080000000000000000200000000000000000000000000020000000000000000000000000000000000000000000000010000000000000000000",
      "type": "0x2",
      "effectiveGasPrice": "0xb2d06064"
    }
  ],
  "libraries": [],
  "pending": [],
  "returns": {},
  "timestamp": 1711457687,
  "chain": 100,
  "multi": false,
  "commit": "b0a703f"
}