{
  "transactions": [
    {
      "hash": "0x68da9fc5dcbd9308fcc657cefd060066ab470c1b173135eee1d709c827a87cd3",
      "transactionType": "CALL",
      "contractName": "TimeLock",
      "contractAddress": "0x5b3BdFff4B595588B08d6cf99477A5f17b6025FA",
      "function": "execute(address,uint256,bytes,bytes32,bytes32)",
      "arguments": [
        "0x708bF99616A0dBb11165F0c5fc7ad9a92dd1a9DA",
        "0",
        "0x22a8402a000000000000000000000000abcd325ddd390e08f6399c3fa3337a34659c5b66",
        "0x0000000000000000000000000000000000000000000000000000000000000000",
        "0x0000000000000000000000000000000000000000000000000000000000000000"
      ],
      "transaction": {
        "type": "0x02",
        "from": "0x81a1e7f34b9babf172087cf5df8a4df6500e9d4d",
        "to": "0x5b3bdfff4b595588b08d6cf99477a5f17b6025fa",
        "gas": "0x274a0",
        "value": "0x0",
        "data": "0x134008d3000000000000000000000000708bf99616a0dbb11165f0c5fc7ad9a92dd1a9da000000000000000000000000000000000000000000000000000000000000000000000000000000000000000000000000000000000000000000000000000000a000000000000000000000000000000000000000000000000000000000000000000000000000000000000000000000000000000000000000000000000000000000000000000000000000000000000000000000000000000000000000000000002422a8402a000000000000000000000000abcd325ddd390e08f6399c3fa3337a34659c5b6600000000000000000000000000000000000000000000000000000000",
        "nonce": "0x1b",
        "accessList": []
      },
      "additionalContracts": [],
      "isFixedGasLimit": false
    }
  ],
  "receipts": [],
  "libraries": [],
  "pending": [
    "0x68da9fc5dcbd9308fcc657cefd060066ab470c1b173135eee1d709c827a87cd3"
  ],
  "returns": {},
  "timestamp": 1710931832,
  "chain": 100,
  "multi": false,
  "commit": "b0a703f"
}