{
  "transactions": [
    {
      "hash": "0x44936baadc08a16d4faf276a56dfa78fe61bb2dfa8c35b6f256c98a4b40a1923",
      "transactionType": "CALL",
      "contractName": "TimeLock",
      "contractAddress": "0x6a135E498eD2171f908aEAc875390E4383B54a68",
      "function": "execute(address,uint256,bytes,bytes32,bytes32)",
      "arguments": [
        "0xC3bcCa24A7448f4CC42a8ECD8bbB69e9Baf1f075",
        "0",
        "0x22a8402a0000000000000000000000008708c44c4144682f467a7285f732432b2e47c085",
        "0x0000000000000000000000000000000000000000000000000000000000000000",
        "0x0000000000000000000000000000000000000000000000000000000000000000"
      ],
      "transaction": {
        "type": "0x02",
        "from": "0x81a1e7f34b9babf172087cf5df8a4df6500e9d4d",
        "to": "0x6a135e498ed2171f908aeac875390e4383b54a68",
        "gas": "0x274a0",
        "value": "0x0",
        "data": "0x134008d3000000000000000000000000c3bcca24a7448f4cc42a8ecd8bbb69e9baf1f075000000000000000000000000000000000000000000000000000000000000000000000000000000000000000000000000000000000000000000000000000000a000000000000000000000000000000000000000000000000000000000000000000000000000000000000000000000000000000000000000000000000000000000000000000000000000000000000000000000000000000000000000000000002422a8402a0000000000000000000000008708c44c4144682f467a7285f732432b2e47c08500000000000000000000000000000000000000000000000000000000",
        "nonce": "0x17",
        "accessList": []
      },
      "additionalContracts": [],
      "isFixedGasLimit": false
    }
  ],
  "receipts": [],
  "libraries": [],
  "pending": [
    "0x44936baadc08a16d4faf276a56dfa78fe61bb2dfa8c35b6f256c98a4b40a1923"
  ],
  "returns": {},
  "timestamp": 1710865194,
  "chain": 100,
  "multi": false,
  "commit": "b0a703f"
}