{
  "transactions": [
    {
      "hash": "0xc589aad6136d36fcdcffc404d5db25303277cfbd1b0ac8eb126591c7857dd5c2",
      "transactionType": "CALL",
      "contractName": null,
      "contractAddress": "0x57769cbc17fbce61cb7c15319d68f2974fda06e0",
      "function": "execute(address,uint256,bytes,bytes32,bytes32)",
      "arguments": [
        "0x9B4AE758A0e4305c39a02f1AB46e1e7BAc8b2D9E",
        "0",
        "0x763380a9000000000000000000000000d6871ba0887cd7fb463f9059202ad8fb123e0115000000000000000000000000a9a1fc87a36bf5d4bebeba69e9e5caab3ee742fa",
        "0x0000000000000000000000000000000000000000000000000000000000000000",
        "0x0000000000000000000000000000000000000000000000000000000000000000"
      ],
      "transaction": {
        "from": "0x81a1e7f34b9babf172087cf5df8a4df6500e9d4d",
        "to": "0x57769cbc17fbce61cb7c15319d68f2974fda06e0",
        "gas": "0x2f8ac",
        "value": "0x0",
        "input": "0x134008d30000000000000000000000009b4ae758a0e4305c39a02f1ab46e1e7bac8b2d9e000000000000000000000000000000000000000000000000000000000000000000000000000000000000000000000000000000000000000000000000000000a0000000000000000000000000000000000000000000000000000000000000000000000000000000000000000000000000000000000000000000000000000000000000000000000000000000000000000000000000000000000000000000000044763380a9000000000000000000000000d6871ba0887cd7fb463f9059202ad8fb123e0115000000000000000000000000a9a1fc87a36bf5d4bebeba69e9e5caab3ee742fa00000000000000000000000000000000000000000000000000000000",
        "nonce": "0x77",
        "chainId": "0x64"
      },
      "additionalContracts": [],
      "isFixedGasLimit": false
    }
  ],
  "receipts": [
    {
      "status": "0x1",
      "cumulativeGasUsed": "0x9348b9",
      "logs": [
        {
          "address": "0x5e5a67764248045650e96941937ccbca80da92d3",
          "topics": [
            "0x67c138aed690b53f8472c70911848132b03f2e8c321a03e5db379ad5e0850205"
          ],
          "data": "0x0000000000000000000000000000000000000000000000000000000000000064",
          "blockHash": "0xa129a500385020bc4ebf30536319f1e40bde44c2a1e84f7e8c1da5c3f3e40a67",
          "blockNumber": "0x20631ca",
          "transactionHash": "0xc589aad6136d36fcdcffc404d5db25303277cfbd1b0ac8eb126591c7857dd5c2",
          "transactionIndex": "0x7",
          "logIndex": "0x5e6",
          "removed": false
        },
        {
          "address": "0x9b4ae758a0e4305c39a02f1ab46e1e7bac8b2d9e",
          "topics": [
            "0x5b5a6a8527892eb1e879279ea1addd664eef55099889d3fe13e926a5fd7c3605"
          ],
          "data": "0x00000000000000000000000000000000000000000000000000000000000000000000000000000000000000000000000000000000000000000000000000002710",
          "blockHash": "0xa129a500385020bc4ebf30536319f1e40bde44c2a1e84f7e8c1da5c3f3e40a67",
          "blockNumber": "0x20631ca",
          "transactionHash": "0xc589aad6136d36fcdcffc404d5db25303277cfbd1b0ac8eb126591c7857dd5c2",
          "transactionIndex": "0x7",
          "logIndex": "0x5e7",
          "removed": false
        },
        {
          "address": "0x9b4ae758a0e4305c39a02f1ab46e1e7bac8b2d9e",
          "topics": [
            "0x14d094195dac9d4dba988503f61e172a4a148834e6f99d61d19a1014773f2ab3"
          ],
          "data": "0x000000000000000000000000d6871ba0887cd7fb463f9059202ad8fb123e0115",
          "blockHash": "0xa129a500385020bc4ebf30536319f1e40bde44c2a1e84f7e8c1da5c3f3e40a67",
          "blockNumber": "0x20631ca",
          "transactionHash": "0xc589aad6136d36fcdcffc404d5db25303277cfbd1b0ac8eb126591c7857dd5c2",
          "transactionIndex": "0x7",
          "logIndex": "0x5e8",
          "removed": false
        },
        {
          "address": "0x57769cbc17fbce61cb7c15319d68f2974fda06e0",
          "topics": [
            "0xc2617efa69bab66782fa219543714338489c4e9e178271560a91b82c3f612b58",
            "0xffa5023d8074b7f47654ded737350fecf20c1e3b38ca8ad5b25f34d991a80801",
            "0x0000000000000000000000000000000000000000000000000000000000000000"
          ],
          "data": "0x0000000000000000000000009b4ae758a0e4305c39a02f1ab46e1e7bac8b2d9e000000000000000000000000000000000000000000000000000000000000000000000000000000000000000000000000000000000000000000000000000000600000000000000000000000000000000000000000000000000000000000000044763380a9000000000000000000000000d6871ba0887cd7fb463f9059202ad8fb123e0115000000000000000000000000a9a1fc87a36bf5d4bebeba69e9e5caab3ee742fa00000000000000000000000000000000000000000000000000000000",
          "blockHash": "0xa129a500385020bc4ebf30536319f1e40bde44c2a1e84f7e8c1da5c3f3e40a67",
          "blockNumber": "0x20631ca",
          "transactionHash": "0xc589aad6136d36fcdcffc404d5db25303277cfbd1b0ac8eb126591c7857dd5c2",
          "transactionIndex": "0x7",
          "logIndex": "0x5e9",
          "removed": false
        }
      ],
      "logsBloom": "0x00000000002100000000000100000000000000000000004000000000000000000000010000000000000000000000000000000000000800000000000000000000000080000000000400000000000000000000040000001000000000000000002000000000020000000200000000000800000000000000000000000000004000000000000000000000000008000000000000000000000010000000000000000000000020000000000000100000020000000000000000000000000000000000000000000000000000280000000000000000200000000000000010000000000020000000000000000000000000000000000000000000001010000000000000000000",
      "type": "0x0",
      "transactionHash": "0xc589aad6136d36fcdcffc404d5db25303277cfbd1b0ac8eb126591c7857dd5c2",
      "transactionIndex": "0x7",
      "blockHash": "0xa129a500385020bc4ebf30536319f1e40bde44c2a1e84f7e8c1da5c3f3e40a67",
      "blockNumber": "0x20631ca",
      "gasUsed": "0x226b7",
      "effectiveGasPrice": "0x59682f98",
      "from": "0x81a1e7f34b9babf172087cf5df8a4df6500e9d4d",
      "to": "0x57769cbc17fbce61cb7c15319d68f2974fda06e0",
      "contractAddress": null
    }
  ],
  "libraries": [],
  "pending": [],
  "returns": {},
  "timestamp": 1715792069,
  "chain": 100,
  "commit": "395fa72"
}