{
  "transactions": [
    {
      "hash": "0x68da9fc5dcbd9308fcc657cefd060066ab470c1b173135eee1d709c827a87cd3",
      "transactionType": "CALL",
      "contractName": "TimeLock",
      "contractAddress": "0x5b3BdFff4B595588B08d6cf99477A5f17b6025FA",
      "function": "execute(address,uint256,bytes,bytes32,bytes32)",
      "arguments": [
        "0x708bF99616A0dBb11165F0c5fc7ad9a92dd1a9DA",
        "0",
        "0x22a8402a000000000000000000000000abcd325ddd390e08f6399c3fa3337a34659c5b66",
        "0x0000000000000000000000000000000000000000000000000000000000000000",
        "0x0000000000000000000000000000000000000000000000000000000000000000"
      ],
      "transaction": {
        "type": "0x02",
        "from": "0x81a1e7f34b9babf172087cf5df8a4df6500e9d4d",
        "to": "0x5b3bdfff4b595588b08d6cf99477a5f17b6025fa",
        "gas": "0x274a0",
        "value": "0x0",
        "data": "0x134008d3000000000000000000000000708bf99616a0dbb11165f0c5fc7ad9a92dd1a9da000000000000000000000000000000000000000000000000000000000000000000000000000000000000000000000000000000000000000000000000000000a000000000000000000000000000000000000000000000000000000000000000000000000000000000000000000000000000000000000000000000000000000000000000000000000000000000000000000000000000000000000000000000002422a8402a000000000000000000000000abcd325ddd390e08f6399c3fa3337a34659c5b6600000000000000000000000000000000000000000000000000000000",
        "nonce": "0x1b",
        "accessList": []
      },
      "additionalContracts": [],
      "isFixedGasLimit": false
    }
  ],
  "receipts": [
    {
      "transactionHash": "0x68da9fc5dcbd9308fcc657cefd060066ab470c1b173135eee1d709c827a87cd3",
      "transactionIndex": "0x8",
      "blockHash": "0xd2f83045a45e75a71ce68e1ca08ecddafab0d1e85d1dc6b2bb34153670a2752a",
      "blockNumber": "0x1f7e8cb",
      "from": "0x81a1e7F34b9bABf172087cF5df8A4DF6500e9d4d",
      "to": "0x5b3BdFff4B595588B08d6cf99477A5f17b6025FA",
      "cumulativeGasUsed": "0x6297ea",
      "gasUsed": "0x1c71e",
      "contractAddress": null,
      "logs": [
        {
          "address": "0x31a26e225867e3F6622555c4C0b82F2457b37076",
          "topics": [
            "0x67c138aed690b53f8472c70911848132b03f2e8c321a03e5db379ad5e0850205"
          ],
          "data": "0x0000000000000000000000000000000000000000000000000000000000000064",
          "blockHash": "0xd2f83045a45e75a71ce68e1ca08ecddafab0d1e85d1dc6b2bb34153670a2752a",
          "blockNumber": "0x1f7e8cb",
          "transactionHash": "0x68da9fc5dcbd9308fcc657cefd060066ab470c1b173135eee1d709c827a87cd3",
          "transactionIndex": "0x8",
          "logIndex": "0x541",
          "removed": false
        },
        {
          "address": "0x708bF99616A0dBb11165F0c5fc7ad9a92dd1a9DA",
          "topics": [
            "0x5b5a6a8527892eb1e879279ea1addd664eef55099889d3fe13e926a5fd7c3605"
          ],
          "data": "0x00000000000000000000000000000000000000000000000000000000000000000000000000000000000000000000000000000000000000000000000000002710",
          "blockHash": "0xd2f83045a45e75a71ce68e1ca08ecddafab0d1e85d1dc6b2bb34153670a2752a",
          "blockNumber": "0x1f7e8cb",
          "transactionHash": "0x68da9fc5dcbd9308fcc657cefd060066ab470c1b173135eee1d709c827a87cd3",
          "transactionIndex": "0x8",
          "logIndex": "0x542",
          "removed": false
        },
        {
          "address": "0x708bF99616A0dBb11165F0c5fc7ad9a92dd1a9DA",
          "topics": [
            "0x14d094195dac9d4dba988503f61e172a4a148834e6f99d61d19a1014773f2ab3"
          ],
          "data": "0x000000000000000000000000abcd325ddd390e08f6399c3fa3337a34659c5b66",
          "blockHash": "0xd2f83045a45e75a71ce68e1ca08ecddafab0d1e85d1dc6b2bb34153670a2752a",
          "blockNumber": "0x1f7e8cb",
          "transactionHash": "0x68da9fc5dcbd9308fcc657cefd060066ab470c1b173135eee1d709c827a87cd3",
          "transactionIndex": "0x8",
          "logIndex": "0x543",
          "removed": false
        },
        {
          "address": "0x5b3BdFff4B595588B08d6cf99477A5f17b6025FA",
          "topics": [
            "0xc2617efa69bab66782fa219543714338489c4e9e178271560a91b82c3f612b58",
            "0xac58bfca60e1c7d093e1212dc6b07dc67eefac1ce3ff7c78aa889426808ab136",
            "0x0000000000000000000000000000000000000000000000000000000000000000"
          ],
          "data": "0x000000000000000000000000708bf99616a0dbb11165f0c5fc7ad9a92dd1a9da00000000000000000000000000000000000000000000000000000000000000000000000000000000000000000000000000000000000000000000000000000060000000000000000000000000000000000000000000000000000000000000002422a8402a000000000000000000000000abcd325ddd390e08f6399c3fa3337a34659c5b6600000000000000000000000000000000000000000000000000000000",
          "blockHash": "0xd2f83045a45e75a71ce68e1ca08ecddafab0d1e85d1dc6b2bb34153670a2752a",
          "blockNumber": "0x1f7e8cb",
          "transactionHash": "0x68da9fc5dcbd9308fcc657cefd060066ab470c1b173135eee1d709c827a87cd3",
          "transactionIndex": "0x8",
          "logIndex": "0x544",
          "removed": false
        }
      ],
      "status": "0x1",
      "logsBloom": "0x00000000002000000000000000000000000000000000000000200400000000000000002000000000200000800000000000000000000800000000000000000000000000000000000400000000000000000000000000000000000000000000002000001000020000000200000000000800000000000000000000000001004000000000000000000002000008000000040000000000000000000000000000000000000000000000000000100000020000000000000000000000000000000000000000000000000000080040000000000000200000000000000000000000100020000000000000000400000000000000000000000000000010000000000000000000",
      "type": "0x2",
      "effectiveGasPrice": "0xb2d05e08"
    }
  ],
  "libraries": [],
  "pending": [],
  "returns": {},
  "timestamp": 1710931839,
  "chain": 100,
  "multi": false,
  "commit": "b0a703f"
}