{
  "transactions": [
    {
      "hash": "0xb2ca9055ca8308f623946c1bf160ce5d15c10e20563051e52e019ab8442cbc03",
      "transactionType": "CALL",
      "contractName": "TimeLock",
      "contractAddress": "0x5b3BdFff4B595588B08d6cf99477A5f17b6025FA",
      "function": "schedule(address,uint256,bytes,bytes32,bytes32,uint256)",
      "arguments": [
        "0x708bF99616A0dBb11165F0c5fc7ad9a92dd1a9DA",
        "0",
        "0x22a8402a000000000000000000000000abcd325ddd390e08f6399c3fa3337a34659c5b66",
        "0x0000000000000000000000000000000000000000000000000000000000000000",
        "0x0000000000000000000000000000000000000000000000000000000000000000",
        "60"
      ],
      "transaction": {
        "type": "0x02",
        "from": "0x81a1e7f34b9babf172087cf5df8a4df6500e9d4d",
        "to": "0x5b3bdfff4b595588b08d6cf99477a5f17b6025fa",
        "gas": "0x128f4",
        "value": "0x0",
        "data": "0x01d5062a000000000000000000000000708bf99616a0dbb11165f0c5fc7ad9a92dd1a9da000000000000000000000000000000000000000000000000000000000000000000000000000000000000000000000000000000000000000000000000000000c000000000000000000000000000000000000000000000000000000000000000000000000000000000000000000000000000000000000000000000000000000000000000000000000000000000000000000000000000000000000000000000003c000000000000000000000000000000000000000000000000000000000000002422a8402a000000000000000000000000abcd325ddd390e08f6399c3fa3337a34659c5b6600000000000000000000000000000000000000000000000000000000",
        "nonce": "0x1a",
        "accessList": []
      },
      "additionalContracts": [],
      "isFixedGasLimit": false
    }
  ],
  "receipts": [
    {
      "transactionHash": "0xb2ca9055ca8308f623946c1bf160ce5d15c10e20563051e52e019ab8442cbc03",
      "transactionIndex": "0x8",
      "blockHash": "0x78fd2e351e678809cde6f2eaf18be945fb77746189a033909af5e7543c398960",
      "blockNumber": "0x1f7e8b2",
      "from": "0x81a1e7F34b9bABf172087cF5df8A4DF6500e9d4d",
      "to": "0x5b3BdFff4B595588B08d6cf99477A5f17b6025FA",
      "cumulativeGasUsed": "0xd25d8",
      "gasUsed": "0xd6fe",
      "contractAddress": null,
      "logs": [
        {
          "address": "0x5b3BdFff4B595588B08d6cf99477A5f17b6025FA",
          "topics": [
            "0x4cf4410cc57040e44862ef0f45f3dd5a5e02db8eb8add648d4b0e236f1d07dca",
            "0xac58bfca60e1c7d093e1212dc6b07dc67eefac1ce3ff7c78aa889426808ab136",
            "0x0000000000000000000000000000000000000000000000000000000000000000"
          ],
          "data": "0x000000000000000000000000708bf99616a0dbb11165f0c5fc7ad9a92dd1a9da000000000000000000000000000000000000000000000000000000000000000000000000000000000000000000000000000000000000000000000000000000a00000000000000000000000000000000000000000000000000000000000000000000000000000000000000000000000000000000000000000000000000000003c000000000000000000000000000000000000000000000000000000000000002422a8402a000000000000000000000000abcd325ddd390e08f6399c3fa3337a34659c5b6600000000000000000000000000000000000000000000000000000000",
          "blockHash": "0x78fd2e351e678809cde6f2eaf18be945fb77746189a033909af5e7543c398960",
          "blockNumber": "0x1f7e8b2",
          "transactionHash": "0xb2ca9055ca8308f623946c1bf160ce5d15c10e20563051e52e019ab8442cbc03",
          "transactionIndex": "0x8",
          "logIndex": "0x8d",
          "removed": false
        }
      ],
      "status": "0x1",
      "logsBloom": "0x00000000000000000000000040000000000000000000000000000400000000000000002000000000200000000000000100000000000000000000000000000000000000000000000000000000000000000000000000000000000000000000000000000000020000000000000000000800000000000000000000000000000000000000000000000002000000000000000000000000000000000000000000000000000000000000000000000000000000000000000000000000000000000000000000000000000000000000000000000000000000000000400000000000100020000000000000000400000000000000000000000000000000000000000000000000",
      "type": "0x2",
      "effectiveGasPrice": "0xb2d05e08"
    }
  ],
  "libraries": [],
  "pending": [],
  "returns": {},
  "timestamp": 1710931706,
  "chain": 100,
  "multi": false,
  "commit": "b0a703f"
}