{
  "transactions": [
    {
      "hash": "0xb2ca9055ca8308f623946c1bf160ce5d15c10e20563051e52e019ab8442cbc03",
      "transactionType": "CALL",
      "contractName": "TimeLock",
      "contractAddress": "0x5b3BdFff4B595588B08d6cf99477A5f17b6025FA",
      "function": "schedule(address,uint256,bytes,bytes32,bytes32,uint256)",
      "arguments": [
        "0x708bF99616A0dBb11165F0c5fc7ad9a92dd1a9DA",
        "0",
        "0x22a8402a000000000000000000000000abcd325ddd390e08f6399c3fa3337a34659c5b66",
        "0x0000000000000000000000000000000000000000000000000000000000000000",
        "0x0000000000000000000000000000000000000000000000000000000000000000",
        "60"
      ],
      "transaction": {
        "type": "0x02",
        "from": "0x81a1e7f34b9babf172087cf5df8a4df6500e9d4d",
        "to": "0x5b3bdfff4b595588b08d6cf99477a5f17b6025fa",
        "gas": "0x128f4",
        "value": "0x0",
        "data": "0x01d5062a000000000000000000000000708bf99616a0dbb11165f0c5fc7ad9a92dd1a9da000000000000000000000000000000000000000000000000000000000000000000000000000000000000000000000000000000000000000000000000000000c000000000000000000000000000000000000000000000000000000000000000000000000000000000000000000000000000000000000000000000000000000000000000000000000000000000000000000000000000000000000000000000003c000000000000000000000000000000000000000000000000000000000000002422a8402a000000000000000000000000abcd325ddd390e08f6399c3fa3337a34659c5b6600000000000000000000000000000000000000000000000000000000",
        "nonce": "0x1a",
        "accessList": []
      },
      "additionalContracts": [],
      "isFixedGasLimit": false
    }
  ],
  "receipts": [],
  "libraries": [],
  "pending": [
    "0xb2ca9055ca8308f623946c1bf160ce5d15c10e20563051e52e019ab8442cbc03"
  ],
  "returns": {},
  "timestamp": 1710931699,
  "chain": 100,
  "multi": false,
  "commit": "b0a703f"
}