{
  "transactions": [
    {
      "hash": "0x5e62fe246c79602c8dc248110b6e345f7eedaf2af46fd0998e07062801ba100e",
      "transactionType": "CALL",
      "contractName": "TimeLock",
      "contractAddress": "0x6a135E498eD2171f908aEAc875390E4383B54a68",
      "function": "schedule(address,uint256,bytes,bytes32,bytes32,uint256)",
      "arguments": [
        "0xC3bcCa24A7448f4CC42a8ECD8bbB69e9Baf1f075",
        "0",
        "0x22a8402a0000000000000000000000008708c44c4144682f467a7285f732432b2e47c085",
        "0x0000000000000000000000000000000000000000000000000000000000000000",
        "0x0000000000000000000000000000000000000000000000000000000000000000",
        "60"
      ],
      "transaction": {
        "type": "0x02",
        "from": "0x81a1e7f34b9babf172087cf5df8a4df6500e9d4d",
        "to": "0x6a135e498ed2171f908aeac875390e4383b54a68",
        "gas": "0x128f4",
        "value": "0x0",
        "data": "0x01d5062a000000000000000000000000c3bcca24a7448f4cc42a8ecd8bbb69e9baf1f075000000000000000000000000000000000000000000000000000000000000000000000000000000000000000000000000000000000000000000000000000000c000000000000000000000000000000000000000000000000000000000000000000000000000000000000000000000000000000000000000000000000000000000000000000000000000000000000000000000000000000000000000000000003c000000000000000000000000000000000000000000000000000000000000002422a8402a0000000000000000000000008708c44c4144682f467a7285f732432b2e47c08500000000000000000000000000000000000000000000000000000000",
        "nonce": "0x16",
        "accessList": []
      },
      "additionalContracts": [],
      "isFixedGasLimit": false
    }
  ],
  "receipts": [
    {
      "transactionHash": "0x5e62fe246c79602c8dc248110b6e345f7eedaf2af46fd0998e07062801ba100e",
      "transactionIndex": "0x11",
      "blockHash": "0xbcb46b9f7e3e2fa49187d977711cbcfb583f722f561c8c223cc8f0d2fa43af6b",
      "blockNumber": "0x1f7b6e7",
      "from": "0x81a1e7F34b9bABf172087cF5df8A4DF6500e9d4d",
      "to": "0x6a135E498eD2171f908aEAc875390E4383B54a68",
      "cumulativeGasUsed": "0x25812f",
      "gasUsed": "0xd6fe",
      "contractAddress": null,
      "logs": [
        {
          "address": "0x6a135E498eD2171f908aEAc875390E4383B54a68",
          "topics": [
            "0x4cf4410cc57040e44862ef0f45f3dd5a5e02db8eb8add648d4b0e236f1d07dca",
            "0x2c9d5f153ca6499f5d2e9234b209d0ea786c93354521102eccf957d998c1c896",
            "0x0000000000000000000000000000000000000000000000000000000000000000"
          ],
          "data": "0x000000000000000000000000c3bcca24a7448f4cc42a8ecd8bbb69e9baf1f075000000000000000000000000000000000000000000000000000000000000000000000000000000000000000000000000000000000000000000000000000000a00000000000000000000000000000000000000000000000000000000000000000000000000000000000000000000000000000000000000000000000000000003c000000000000000000000000000000000000000000000000000000000000002422a8402a0000000000000000000000008708c44c4144682f467a7285f732432b2e47c08500000000000000000000000000000000000000000000000000000000",
          "blockHash": "0xbcb46b9f7e3e2fa49187d977711cbcfb583f722f561c8c223cc8f0d2fa43af6b",
          "blockNumber": "0x1f7b6e7",
          "transactionHash": "0x5e62fe246c79602c8dc248110b6e345f7eedaf2af46fd0998e07062801ba100e",
          "transactionIndex": "0x11",
          "logIndex": "0x9b",
          "removed": false
        }
      ],
      "status": "0x1",
      "logsBloom": "0x0000000000004000000000004000000000000000000000000000000000000000000000a000000000000000000000000100000000000000000000000000000000000000000000000000000000000000000000000000000000000000000000000000000000020000000000000004000800001000000000000000000000000000000000000000000000000000000000000000000000000000000000000000000000000000000000000000000000000000000000000000000000000000000000000000000000000000000000000000000000000000000000400000002000000020000000000000000000000000000000000000000000000000000000000000000000",
      "type": "0x2",
      "effectiveGasPrice": "0xb2d05e1d"
    }
  ],
  "libraries": [],
  "pending": [],
  "returns": {},
  "timestamp": 1710864912,
  "chain": 100,
  "multi": false,
  "commit": "b0a703f"
}