{
  "transactions": [
    {
      "hash": "0xf9917828ccf207bdd9cbc0986d2bd58dd5c0693087c1d1bdc477c7fd1050fc86",
      "transactionType": "CALL",
      "contractName": "TimeLock",
      "contractAddress": "0xD41479D3f6c42cF6F532DF0F64Ca132342661f07",
      "function": "schedule(address,uint256,bytes,bytes32,bytes32,uint256)",
      "arguments": [
        "0xE7Ea7A62Ca83FF745B0129562bfcBB8D15720d52",
        "0",
        "0x22a8402a000000000000000000000000b6cf5502e64d79d96f09138b8f808412502d03cc",
        "0x0000000000000000000000000000000000000000000000000000000000000000",
        "0x0000000000000000000000000000000000000000000000000000000000000000",
        "60"
      ],
      "transaction": {
        "type": "0x02",
        "from": "0x81a1e7f34b9babf172087cf5df8a4df6500e9d4d",
        "to": "0xd41479d3f6c42cf6f532df0f64ca132342661f07",
        "gas": "0x128f4",
        "value": "0x0",
        "data": "0x01d5062a000000000000000000000000e7ea7a62ca83ff745b0129562bfcbb8d15720d52000000000000000000000000000000000000000000000000000000000000000000000000000000000000000000000000000000000000000000000000000000c000000000000000000000000000000000000000000000000000000000000000000000000000000000000000000000000000000000000000000000000000000000000000000000000000000000000000000000000000000000000000000000003c000000000000000000000000000000000000000000000000000000000000002422a8402a000000000000000000000000b6cf5502e64d79d96f09138b8f808412502d03cc00000000000000000000000000000000000000000000000000000000",
        "nonce": "0x24",
        "accessList": []
      },
      "additionalContracts": [],
      "isFixedGasLimit": false
    }
  ],
  "receipts": [],
  "libraries": [],
  "pending": [
    "0xf9917828ccf207bdd9cbc0986d2bd58dd5c0693087c1d1bdc477c7fd1050fc86"
  ],
  "returns": {},
  "timestamp": 1711457546,
  "chain": 100,
  "multi": false,
  "commit": "b0a703f"
}