{
  "transactions": [
    {
      "hash": "0x5e62fe246c79602c8dc248110b6e345f7eedaf2af46fd0998e07062801ba100e",
      "transactionType": "CALL",
      "contractName": "TimeLock",
      "contractAddress": "0x6a135E498eD2171f908aEAc875390E4383B54a68",
      "function": "schedule(address,uint256,bytes,bytes32,bytes32,uint256)",
      "arguments": [
        "0xC3bcCa24A7448f4CC42a8ECD8bbB69e9Baf1f075",
        "0",
        "0x22a8402a0000000000000000000000008708c44c4144682f467a7285f732432b2e47c085",
        "0x0000000000000000000000000000000000000000000000000000000000000000",
        "0x0000000000000000000000000000000000000000000000000000000000000000",
        "60"
      ],
      "transaction": {
        "type": "0x02",
        "from": "0x81a1e7f34b9babf172087cf5df8a4df6500e9d4d",
        "to": "0x6a135e498ed2171f908aeac875390e4383b54a68",
        "gas": "0x128f4",
        "value": "0x0",
        "data": "0x01d5062a000000000000000000000000c3bcca24a7448f4cc42a8ecd8bbb69e9baf1f075000000000000000000000000000000000000000000000000000000000000000000000000000000000000000000000000000000000000000000000000000000c000000000000000000000000000000000000000000000000000000000000000000000000000000000000000000000000000000000000000000000000000000000000000000000000000000000000000000000000000000000000000000000003c000000000000000000000000000000000000000000000000000000000000002422a8402a0000000000000000000000008708c44c4144682f467a7285f732432b2e47c08500000000000000000000000000000000000000000000000000000000",
        "nonce": "0x16",
        "accessList": []
      },
      "additionalContracts": [],
      "isFixedGasLimit": false
    }
  ],
  "receipts": [],
  "libraries": [],
  "pending": [
    "0x5e62fe246c79602c8dc248110b6e345f7eedaf2af46fd0998e07062801ba100e"
  ],
  "returns": {},
  "timestamp": 1710864906,
  "chain": 100,
  "multi": false,
  "commit": "b0a703f"
}