{
  "transactions": [
    {
      "hash": "0x28cd980f20f2f646fcd1e0f4796257b004757856e436d9eba8fbedeaf5e44b7c",
      "transactionType": "CALL",
      "contractName": "TimeLock",
      "contractAddress": "0x119e26B6D72376Ac741d5546eA295d1A0160E26c",
      "function": "schedule(address,uint256,bytes,bytes32,bytes32,uint256)",
      "arguments": [
        "0xb0A76A387f1Fc9433Ad1E244C530548C872d7932",
        "0",
        "0x763380a9000000000000000000000000614b8b047cafec2fcfc788dd4afe9e32fe924cd0000000000000000000000000cd3b683c6514e94a48d7993544c199341fcdd14e",
        "0x0000000000000000000000000000000000000000000000000000000000000000",
        "0x0000000000000000000000000000000000000000000000000000000000000000",
        "60"
      ],
      "transaction": {
        "type": "0x02",
        "from": "0x81a1e7f34b9babf172087cf5df8a4df6500e9d4d",
        "to": "0x119e26b6d72376ac741d5546ea295d1a0160e26c",
        "gas": "0x13e19",
        "value": "0x0",
        "data": "0x01d5062a000000000000000000000000b0a76a387f1fc9433ad1e244c530548c872d7932000000000000000000000000000000000000000000000000000000000000000000000000000000000000000000000000000000000000000000000000000000c000000000000000000000000000000000000000000000000000000000000000000000000000000000000000000000000000000000000000000000000000000000000000000000000000000000000000000000000000000000000000000000003c0000000000000000000000000000000000000000000000000000000000000044763380a9000000000000000000000000614b8b047cafec2fcfc788dd4afe9e32fe924cd0000000000000000000000000cd3b683c6514e94a48d7993544c199341fcdd14e00000000000000000000000000000000000000000000000000000000",
        "nonce": "0x54",
        "accessList": []
      },
      "additionalContracts": [],
      "isFixedGasLimit": false
    }
  ],
  "receipts": [
    {
      "transactionHash": "0x28cd980f20f2f646fcd1e0f4796257b004757856e436d9eba8fbedeaf5e44b7c",
      "transactionIndex": "0x5",
      "blockHash": "0x6b01487da9e78e64574e5239cce6c520558c325c2df43795320fdcd85b94486e",
      "blockNumber": "0x1ff0376",
      "from": "0x81a1e7F34b9bABf172087cF5df8A4DF6500e9d4d",
      "to": "0x119e26B6D72376Ac741d5546eA295d1A0160E26c",
      "cumulativeGasUsed": "0x2df467",
      "gasUsed": "0xd981",
      "contractAddress": null,
      "logs": [
        {
          "address": "0x119e26B6D72376Ac741d5546eA295d1A0160E26c",
          "topics": [
            "0x4cf4410cc57040e44862ef0f45f3dd5a5e02db8eb8add648d4b0e236f1d07dca",
            "0x09a7ec15e6cf7c35893a9b1699f01920527efb13d100e2c664847e91ba6219d6",
            "0x0000000000000000000000000000000000000000000000000000000000000000"
          ],
          "data": "0x000000000000000000000000b0a76a387f1fc9433ad1e244c530548c872d7932000000000000000000000000000000000000000000000000000000000000000000000000000000000000000000000000000000000000000000000000000000a00000000000000000000000000000000000000000000000000000000000000000000000000000000000000000000000000000000000000000000000000000003c0000000000000000000000000000000000000000000000000000000000000044763380a9000000000000000000000000614b8b047cafec2fcfc788dd4afe9e32fe924cd0000000000000000000000000cd3b683c6514e94a48d7993544c199341fcdd14e00000000000000000000000000000000000000000000000000000000",
          "blockHash": "0x6b01487da9e78e64574e5239cce6c520558c325c2df43795320fdcd85b94486e",
          "blockNumber": "0x1ff0376",
          "transactionHash": "0x28cd980f20f2f646fcd1e0f4796257b004757856e436d9eba8fbedeaf5e44b7c",
          "transactionIndex": "0x5",
          "logIndex": "0x315",
          "removed": false
        }
      ],
      "status": "0x1",
      "logsBloom": "0x00000000000000000000000040800000000001000000000000000000000000000000000000000000000000000000900100000000000000000000000000000000000000000000000000000000000000000000000000000000000000000000000000000000020000000000000000000800000000000000000000000000000000000000000000000000000000000000000000000000000000000000000000000000000000000000000000000000000000000000000000000000000000000000000000000000000000000001000000000000000000000000400000000000000020000000000000400000000000000000000000000000000000000000000000000000",
      "type": "0x2",
      "effectiveGasPrice": "0xb2d05e10"
    }
  ],
  "libraries": [],
  "pending": [],
  "returns": {},
  "timestamp": 1713359306,
  "chain": 100,
  "commit": "82b2400"
}