{
  "transactions": [
    {
      "hash": "0xf9917828ccf207bdd9cbc0986d2bd58dd5c0693087c1d1bdc477c7fd1050fc86",
      "transactionType": "CALL",
      "contractName": "TimeLock",
      "contractAddress": "0xD41479D3f6c42cF6F532DF0F64Ca132342661f07",
      "function": "schedule(address,uint256,bytes,bytes32,bytes32,uint256)",
      "arguments": [
        "0xE7Ea7A62Ca83FF745B0129562bfcBB8D15720d52",
        "0",
        "0x22a8402a000000000000000000000000b6cf5502e64d79d96f09138b8f808412502d03cc",
        "0x0000000000000000000000000000000000000000000000000000000000000000",
        "0x0000000000000000000000000000000000000000000000000000000000000000",
        "60"
      ],
      "transaction": {
        "type": "0x02",
        "from": "0x81a1e7f34b9babf172087cf5df8a4df6500e9d4d",
        "to": "0xd41479d3f6c42cf6f532df0f64ca132342661f07",
        "gas": "0x128f4",
        "value": "0x0",
        "data": "0x01d5062a000000000000000000000000e7ea7a62ca83ff745b0129562bfcbb8d15720d52000000000000000000000000000000000000000000000000000000000000000000000000000000000000000000000000000000000000000000000000000000c000000000000000000000000000000000000000000000000000000000000000000000000000000000000000000000000000000000000000000000000000000000000000000000000000000000000000000000000000000000000000000000003c000000000000000000000000000000000000000000000000000000000000002422a8402a000000000000000000000000b6cf5502e64d79d96f09138b8f808412502d03cc00000000000000000000000000000000000000000000000000000000",
        "nonce": "0x24",
        "accessList": []
      },
      "additionalContracts": [],
      "isFixedGasLimit": false
    }
  ],
  "receipts": [
    {
      "transactionHash": "0xf9917828ccf207bdd9cbc0986d2bd58dd5c0693087c1d1bdc477c7fd1050fc86",
      "transactionIndex": "0xb",
      "blockHash": "0x64f43744ff183d5cd27cae73d8c1390be1f95b69ba917ad621aa4fc57fa26075",
      "blockNumber": "0x1f970f8",
      "from": "0x81a1e7F34b9bABf172087cF5df8A4DF6500e9d4d",
      "to": "0xD41479D3f6c42cF6F532DF0F64Ca132342661f07",
      "cumulativeGasUsed": "0x90770d",
      "gasUsed": "0xd6fe",
      "contractAddress": null,
      "logs": [
        {
          "address": "0xD41479D3f6c42cF6F532DF0F64Ca132342661f07",
          "topics": [
            "0x4cf4410cc57040e44862ef0f45f3dd5a5e02db8eb8add648d4b0e236f1d07dca",
            "0x5c419bebe37fc00519b0ba13dd703e90c875f49dd2023236e1637cf6db8aad55",
            "0x0000000000000000000000000000000000000000000000000000000000000000"
          ],
          "data": "0x000000000000000000000000e7ea7a62ca83ff745b0129562bfcbb8d15720d52000000000000000000000000000000000000000000000000000000000000000000000000000000000000000000000000000000000000000000000000000000a00000000000000000000000000000000000000000000000000000000000000000000000000000000000000000000000000000000000000000000000000000003c000000000000000000000000000000000000000000000000000000000000002422a8402a000000000000000000000000b6cf5502e64d79d96f09138b8f808412502d03cc00000000000000000000000000000000000000000000000000000000",
          "blockHash": "0x64f43744ff183d5cd27cae73d8c1390be1f95b69ba917ad621aa4fc57fa26075",
          "blockNumber": "0x1f970f8",
          "transactionHash": "0xf9917828ccf207bdd9cbc0986d2bd58dd5c0693087c1d1bdc477c7fd1050fc86",
          "transactionIndex": "0xb",
          "logIndex": "0x85b",
          "removed": false
        }
      ],
      "status": "0x1",
      "logsBloom": "0x00000000000000000000000040000000000000000100010000000000000000000010000000000000000000000000000100000000000000000000000000000000000000000000000000000000000000000000000000000000000000000000000000000000020000000001000000000880000000000000000000000000000000000000000000000000000000000000000000000000000000000000000000000020000000000000000000000000000000000000000000000000000000000000000000000000000000000000000000000000000000000000400000000000000020000000000000000000000000000000000000000000000000000000000000000000",
      "type": "0x2",
      "effectiveGasPrice": "0xb2d05f7c"
    }
  ],
  "libraries": [],
  "pending": [],
  "returns": {},
  "timestamp": 1711457553,
  "chain": 100,
  "multi": false,
  "commit": "b0a703f"
}