{
  "transactions": [
    {
      "hash": "0x743f057528d2a9d2de5877adf427c4a75f997d4710840cfd418ea0a000efbce4",
      "transactionType": "CALL",
      "contractName": "TimeLock",
      "contractAddress": "0x6Db15200e553bc0Ca146ebD7838502e5d33255cf",
      "function": "schedule(address,uint256,bytes,bytes32,bytes32,uint256)",
      "arguments": [
        "0xC6C9b4C1616Ff870622aEbbdD998cA5973e01336",
        "0",
        "0x763380a90000000000000000000000008d5817dba8dafdc57ef7a2fc22b845f28d496c610000000000000000000000005c84594d6fc8c4a6faee0eedf0b9e49d23243170",
        "0x0000000000000000000000000000000000000000000000000000000000000000",
        "0x0000000000000000000000000000000000000000000000000000000000000000",
        "60"
      ],
      "transaction": {
        "type": "0x02",
        "from": "0x81a1e7f34b9babf172087cf5df8a4df6500e9d4d",
        "to": "0x6db15200e553bc0ca146ebd7838502e5d33255cf",
        "gas": "0x13e19",
        "value": "0x0",
        "data": "0x01d5062a000000000000000000000000c6c9b4c1616ff870622aebbdd998ca5973e01336000000000000000000000000000000000000000000000000000000000000000000000000000000000000000000000000000000000000000000000000000000c000000000000000000000000000000000000000000000000000000000000000000000000000000000000000000000000000000000000000000000000000000000000000000000000000000000000000000000000000000000000000000000003c0000000000000000000000000000000000000000000000000000000000000044763380a90000000000000000000000008d5817dba8dafdc57ef7a2fc22b845f28d496c610000000000000000000000005c84594d6fc8c4a6faee0eedf0b9e49d2324317000000000000000000000000000000000000000000000000000000000",
        "nonce": "0x33",
        "accessList": []
      },
      "additionalContracts": [],
      "isFixedGasLimit": false
    }
  ],
  "receipts": [
    {
      "transactionHash": "0x743f057528d2a9d2de5877adf427c4a75f997d4710840cfd418ea0a000efbce4",
      "transactionIndex": "0x14",
      "blockHash": "0x29c8dd9075dde31554f4cae20ae23585cd27e88bfb785e9dbda1807c8ce5248e",
      "blockNumber": "0x1fb2997",
      "from": "0x81a1e7F34b9bABf172087cF5df8A4DF6500e9d4d",
      "to": "0x6Db15200e553bc0Ca146ebD7838502e5d33255cf",
      "cumulativeGasUsed": "0x693e8f",
      "gasUsed": "0xd981",
      "contractAddress": null,
      "logs": [
        {
          "address": "0x6Db15200e553bc0Ca146ebD7838502e5d33255cf",
          "topics": [
            "0x4cf4410cc57040e44862ef0f45f3dd5a5e02db8eb8add648d4b0e236f1d07dca",
            "0x1f02052884c9c13cd3e15a9f674aca22e7e2770279febd5394ca0a4982e40c52",
            "0x0000000000000000000000000000000000000000000000000000000000000000"
          ],
          "data": "0x000000000000000000000000c6c9b4c1616ff870622aebbdd998ca5973e01336000000000000000000000000000000000000000000000000000000000000000000000000000000000000000000000000000000000000000000000000000000a00000000000000000000000000000000000000000000000000000000000000000000000000000000000000000000000000000000000000000000000000000003c0000000000000000000000000000000000000000000000000000000000000044763380a90000000000000000000000008d5817dba8dafdc57ef7a2fc22b845f28d496c610000000000000000000000005c84594d6fc8c4a6faee0eedf0b9e49d2324317000000000000000000000000000000000000000000000000000000000",
          "blockHash": "0x29c8dd9075dde31554f4cae20ae23585cd27e88bfb785e9dbda1807c8ce5248e",
          "blockNumber": "0x1fb2997",
          "transactionHash": "0x743f057528d2a9d2de5877adf427c4a75f997d4710840cfd418ea0a000efbce4",
          "transactionIndex": "0x14",
          "logIndex": "0x4a7",
          "removed": false
        }
      ],
      "status": "0x1",
      "logsBloom": "0x00000000000000000000000040000000000000000000000000000000000000000000000000000000000000000000000100000000000000000000000000000000000000200000000000000000000000000000000000000000000000000000000000000000020020000000000000000800000000000000000000000000400000000000000000000000000000000000000000000000000000000000000000000000000000000000000000000000000000000000000000000000000000000000000000000000000800000000200000000000000000000000400000000080000020000000000000000000000000000000000000000000000000000000000000000000",
      "type": "0x2",
      "effectiveGasPrice": "0xb2d05e10"
    }
  ],
  "libraries": [],
  "pending": [],
  "returns": {},
  "timestamp": 1712048151,
  "chain": 100,
  "commit": "fd981e7"
}