{
  "transactions": [
    {
      "hash": "0xfee1ba409d517e3a88b244c1222edb84cedea8632fa3ffd38010397fbf141178",
      "transactionType": "CALL",
      "contractName": null,
      "contractAddress": "0xb527cb6AD6A92041fA7bAFe41798F8c46f070a20",
      "function": "schedule(address,uint256,bytes,bytes32,bytes32,uint256)",
      "arguments": [
        "0x766ad087ef0379b9a9d1E266CbDe1BCd5Ec2f922",
        "0",
        "0x763380a9000000000000000000000000d82f6ea32bde6dad6bb35b27ce98406709af43f9000000000000000000000000781a349e66cf9e909af1ecdefb75fc3b87e54d3a",
        "0x0000000000000000000000000000000000000000000000000000000000000000",
        "0x0000000000000000000000000000000000000000000000000000000000000000",
        "60"
      ],
      "transaction": {
        "type": "0x02",
        "from": "0x81a1e7f34b9babf172087cf5df8a4df6500e9d4d",
        "to": "0xb527cb6ad6a92041fa7bafe41798f8c46f070a20",
        "gas": "0x13e19",
        "value": "0x0",
        "data": "0x01d5062a000000000000000000000000766ad087ef0379b9a9d1e266cbde1bcd5ec2f922000000000000000000000000000000000000000000000000000000000000000000000000000000000000000000000000000000000000000000000000000000c000000000000000000000000000000000000000000000000000000000000000000000000000000000000000000000000000000000000000000000000000000000000000000000000000000000000000000000000000000000000000000000003c0000000000000000000000000000000000000000000000000000000000000044763380a9000000000000000000000000d82f6ea32bde6dad6bb35b27ce98406709af43f9000000000000000000000000781a349e66cf9e909af1ecdefb75fc3b87e54d3a00000000000000000000000000000000000000000000000000000000",
        "nonce": "0x39",
        "accessList": []
      },
      "additionalContracts": [],
      "isFixedGasLimit": false
    }
  ],
  "receipts": [
    {
      "transactionHash": "0xfee1ba409d517e3a88b244c1222edb84cedea8632fa3ffd38010397fbf141178",
      "transactionIndex": "0x5",
      "blockHash": "0xa8af87f3bb09d965cb603221f4fd0497dc62f10419049333b5e403c886edc25f",
      "blockNumber": "0x1fe7a12",
      "from": "0x81a1e7F34b9bABf172087cF5df8A4DF6500e9d4d",
      "to": "0xb527cb6AD6A92041fA7bAFe41798F8c46f070a20",
      "cumulativeGasUsed": "0x89ca1",
      "gasUsed": "0xd981",
      "contractAddress": null,
      "logs": [
        {
          "address": "0xb527cb6AD6A92041fA7bAFe41798F8c46f070a20",
          "topics": [
            "0x4cf4410cc57040e44862ef0f45f3dd5a5e02db8eb8add648d4b0e236f1d07dca",
            "0x92efaa432f50d843d227875050d94ab1e651332efbd60369ef21bbfabc0252f3",
            "0x0000000000000000000000000000000000000000000000000000000000000000"
          ],
          "data": "0x000000000000000000000000766ad087ef0379b9a9d1e266cbde1bcd5ec2f922000000000000000000000000000000000000000000000000000000000000000000000000000000000000000000000000000000000000000000000000000000a00000000000000000000000000000000000000000000000000000000000000000000000000000000000000000000000000000000000000000000000000000003c0000000000000000000000000000000000000000000000000000000000000044763380a9000000000000000000000000d82f6ea32bde6dad6bb35b27ce98406709af43f9000000000000000000000000781a349e66cf9e909af1ecdefb75fc3b87e54d3a00000000000000000000000000000000000000000000000000000000",
          "blockHash": "0xa8af87f3bb09d965cb603221f4fd0497dc62f10419049333b5e403c886edc25f",
          "blockNumber": "0x1fe7a12",
          "transactionHash": "0xfee1ba409d517e3a88b244c1222edb84cedea8632fa3ffd38010397fbf141178",
          "transactionIndex": "0x5",
          "logIndex": "0x9",
          "removed": false
        }
      ],
      "status": "0x1",
      "logsBloom": "0x00000000000000000000000040000000000000000000000000000010000000000000000400000000000000000000000100000000000000000000000000000100000000000000000000000000000000000000000000000000000000000000000000000000020000000000000000000800000000000000000000000000000000000000000000000000000000000000000000000000001000000000000000000000000000000000100000000000000000000000000000000000000000000000000000000000000000000000000000000000000000000000400000000000000020000000000000000000000001000000000000000000000000000000000000000000",
      "type": "0x2",
      "effectiveGasPrice": "0xb2d05e09"
    }
  ],
  "libraries": [],
  "pending": [],
  "returns": {},
  "timestamp": 1713177641,
  "chain": 100,
  "commit": "fc570f4"
}