{
  "transactions": [
    {
      "hash": "0xa2ded6ac92282e3a428d6d04a36664fcc4ca5ed3a3fb31fe4c649af91c95767f",
      "transactionType": "CALL",
      "contractName": null,
      "contractAddress": "0x57769cbc17fbce61cb7c15319d68f2974fda06e0",
      "function": "schedule(address,uint256,bytes,bytes32,bytes32,uint256)",
      "arguments": [
        "0x9B4AE758A0e4305c39a02f1AB46e1e7BAc8b2D9E",
        "0",
        "0x763380a9000000000000000000000000d6871ba0887cd7fb463f9059202ad8fb123e0115000000000000000000000000a9a1fc87a36bf5d4bebeba69e9e5caab3ee742fa",
        "0x0000000000000000000000000000000000000000000000000000000000000000",
        "0x0000000000000000000000000000000000000000000000000000000000000000",
        "60"
      ],
      "transaction": {
        "from": "0x81a1e7f34b9babf172087cf5df8a4df6500e9d4d",
        "to": "0x57769cbc17fbce61cb7c15319d68f2974fda06e0",
        "gas": "0x12b1c",
        "value": "0x0",
        "input": "0x01d5062a0000000000000000000000009b4ae758a0e4305c39a02f1ab46e1e7bac8b2d9e000000000000000000000000000000000000000000000000000000000000000000000000000000000000000000000000000000000000000000000000000000c000000000000000000000000000000000000000000000000000000000000000000000000000000000000000000000000000000000000000000000000000000000000000000000000000000000000000000000000000000000000000000000003c0000000000000000000000000000000000000000000000000000000000000044763380a9000000000000000000000000d6871ba0887cd7fb463f9059202ad8fb123e0115000000000000000000000000a9a1fc87a36bf5d4bebeba69e9e5caab3ee742fa00000000000000000000000000000000000000000000000000000000",
        "nonce": "0x76",
        "chainId": "0x64"
      },
      "additionalContracts": [],
      "isFixedGasLimit": false
    }
  ],
  "receipts": [
    {
      "status": "0x1",
      "cumulativeGasUsed": "0xfe913d",
      "logs": [
        {
          "address": "0x57769cbc17fbce61cb7c15319d68f2974fda06e0",
          "topics": [
            "0x4cf4410cc57040e44862ef0f45f3dd5a5e02db8eb8add648d4b0e236f1d07dca",
            "0xffa5023d8074b7f47654ded737350fecf20c1e3b38ca8ad5b25f34d991a80801",
            "0x0000000000000000000000000000000000000000000000000000000000000000"
          ],
          "data": "0x0000000000000000000000009b4ae758a0e4305c39a02f1ab46e1e7bac8b2d9e000000000000000000000000000000000000000000000000000000000000000000000000000000000000000000000000000000000000000000000000000000a00000000000000000000000000000000000000000000000000000000000000000000000000000000000000000000000000000000000000000000000000000003c0000000000000000000000000000000000000000000000000000000000000044763380a9000000000000000000000000d6871ba0887cd7fb463f9059202ad8fb123e0115000000000000000000000000a9a1fc87a36bf5d4bebeba69e9e5caab3ee742fa00000000000000000000000000000000000000000000000000000000",
          "blockHash": "0x90298288f7155abf5c8a43bf9fe89d88c8f229ad0b5c3799bd0da385f952e972",
          "blockNumber": "0x20630b1",
          "transactionHash": "0xa2ded6ac92282e3a428d6d04a36664fcc4ca5ed3a3fb31fe4c649af91c95767f",
          "transactionIndex": "0xa9",
          "logIndex": "0xcc",
          "removed": false
        }
      ],
      "logsBloom": "0x00000000000100000000000140000000000000000000000000000000000000000000000000000000000000000000000100000000000000000000000000000000000080000000000000000000000000000000040000001000000000000000000000000000020000000000000000000800000000000000000000000000000000000000000000000000000000000000000000000000000000000000000000000000000020000000000000000000000000000000000000000000000000000000000000000000000000000000000000000000000000000000400000000000000020000000000000000000000000000000000000000000000000000000000000000000",
      "type": "0x0",
      "transactionHash": "0xa2ded6ac92282e3a428d6d04a36664fcc4ca5ed3a3fb31fe4c649af91c95767f",
      "transactionIndex": "0xa9",
      "blockHash": "0x90298288f7155abf5c8a43bf9fe89d88c8f229ad0b5c3799bd0da385f952e972",
      "blockNumber": "0x20630b1",
      "gasUsed": "0xd88e",
      "effectiveGasPrice": "0x59682f19",
      "from": "0x81a1e7f34b9babf172087cf5df8a4df6500e9d4d",
      "to": "0x57769cbc17fbce61cb7c15319d68f2974fda06e0",
      "contractAddress": null
    }
  ],
  "libraries": [],
  "pending": [],
  "returns": {},
  "timestamp": 1715790632,
  "chain": 100,
  "commit": "395fa72"
}