{
  "transactions": [
    {
      "hash": "0xfb4ac80f0c389d52b018136832b534c5a12810770ec7a59c0e25ce03d48cc29c",
      "transactionType": "CALL",
      "contractName": "TimeLock",
      "contractAddress": "0x5b3BdFff4B595588B08d6cf99477A5f17b6025FA",
      "function": "schedule(address,uint256,bytes,bytes32,bytes32,uint256)",
      "arguments": [
        "0x9E09D9943B40685e8B78f6DC43069652dd6E6efD",
        "0",
        "0x7170f03c0000000000000000000000007a740e3e66e9d109546376d70319184e782a2198000000000000000000000000abcd325ddd390e08f6399c3fa3337a34659c5b660000000000000000000000000000000000000000000000000000000000004e20000000000000000000000000000000000000000000000000000000000000003c00000000000000000000000081a1e7f34b9babf172087cf5df8a4df6500e9d4d00000000000000000000000081a1e7f34b9babf172087cf5df8a4df6500e9d4d0000000000000000000000000000000000000000000000000000000000004e20",
        "0x0000000000000000000000000000000000000000000000000000000000000000",
        "0x0000000000000000000000000000000000000000000000000000000000000000",
        "60"
      ],
      "transaction": {
        "type": "0x02",
        "from": "0x81a1e7f34b9babf172087cf5df8a4df6500e9d4d",
        "to": "0x5b3bdfff4b595588b08d6cf99477a5f17b6025fa",
        "gas": "0x13a30",
        "value": "0x0",
        "data": "0x01d5062a0000000000000000000000009e09d9943b40685e8b78f6dc43069652dd6e6efd000000000000000000000000000000000000000000000000000000000000000000000000000000000000000000000000000000000000000000000000000000c000000000000000000000000000000000000000000000000000000000000000000000000000000000000000000000000000000000000000000000000000000000000000000000000000000000000000000000000000000000000000000000003c00000000000000000000000000000000000000000000000000000000000000e47170f03c0000000000000000000000007a740e3e66e9d109546376d70319184e782a2198000000000000000000000000abcd325ddd390e08f6399c3fa3337a34659c5b660000000000000000000000000000000000000000000000000000000000004e20000000000000000000000000000000000000000000000000000000000000003c00000000000000000000000081a1e7f34b9babf172087cf5df8a4df6500e9d4d00000000000000000000000081a1e7f34b9babf172087cf5df8a4df6500e9d4d0000000000000000000000000000000000000000000000000000000000004e2000000000000000000000000000000000000000000000000000000000",
        "nonce": "0x1d",
        "accessList": []
      },
      "additionalContracts": [],
      "isFixedGasLimit": false
    }
  ],
  "receipts": [
    {
      "transactionHash": "0xfb4ac80f0c389d52b018136832b534c5a12810770ec7a59c0e25ce03d48cc29c",
      "transactionIndex": "0x1",
      "blockHash": "0x6dd76138bd7a3594fc3bfa3fef468999e5e228a7c3b19f0ac50fe7643ab123e8",
      "blockNumber": "0x1f7eab2",
      "from": "0x81a1e7F34b9bABf172087cF5df8A4DF6500e9d4d",
      "to": "0x5b3BdFff4B595588B08d6cf99477A5f17b6025FA",
      "cumulativeGasUsed": "0x2d851",
      "gasUsed": "0xe378",
      "contractAddress": null,
      "logs": [
        {
          "address": "0x5b3BdFff4B595588B08d6cf99477A5f17b6025FA",
          "topics": [
            "0x4cf4410cc57040e44862ef0f45f3dd5a5e02db8eb8add648d4b0e236f1d07dca",
            "0x82af9163bd16a80ad261e5ffef15335f0e87e212eb8bac8a9aa61a756375a069",
            "0x0000000000000000000000000000000000000000000000000000000000000000"
          ],
          "data": "0x0000000000000000000000009e09d9943b40685e8b78f6dc43069652dd6e6efd000000000000000000000000000000000000000000000000000000000000000000000000000000000000000000000000000000000000000000000000000000a00000000000000000000000000000000000000000000000000000000000000000000000000000000000000000000000000000000000000000000000000000003c00000000000000000000000000000000000000000000000000000000000000e47170f03c0000000000000000000000007a740e3e66e9d109546376d70319184e782a2198000000000000000000000000abcd325ddd390e08f6399c3fa3337a34659c5b660000000000000000000000000000000000000000000000000000000000004e20000000000000000000000000000000000000000000000000000000000000003c00000000000000000000000081a1e7f34b9babf172087cf5df8a4df6500e9d4d00000000000000000000000081a1e7f34b9babf172087cf5df8a4df6500e9d4d0000000000000000000000000000000000000000000000000000000000004e2000000000000000000000000000000000000000000000000000000000",
          "blockHash": "0x6dd76138bd7a3594fc3bfa3fef468999e5e228a7c3b19f0ac50fe7643ab123e8",
          "blockNumber": "0x1f7eab2",
          "transactionHash": "0xfb4ac80f0c389d52b018136832b534c5a12810770ec7a59c0e25ce03d48cc29c",
          "transactionIndex": "0x1",
          "logIndex": "0x5",
          "removed": false
        }
      ],
      "status": "0x1",
      "logsBloom": "0x00000000000000000000000040000000000000000000000000000400000000000000002000000000000000000000000100000000000000000000000000000000000000000000000000000000000000000000000000000000000000000000000008000000020000000000000000000800000000000000000000000000000000000000000000000000000000000000000000000000000000000000000000000000000000000000040000000000000000000000000000000000000000000000000000000000000000000000000000000000000200000000400000000000100020000000000000000000000000000000000000000000000000000000000000000000",
      "type": "0x2",
      "effectiveGasPrice": "0xb2d05e1b"
    }
  ],
  "libraries": [],
  "pending": [],
  "returns": {},
  "timestamp": 1710934427,
  "chain": 100,
  "multi": false,
  "commit": "b0a703f"
}