{
  "transactions": [
    {
      "hash": "0xcfa7d803356a943597e9e52cffe1e30b1671251bb9f68b0e5f859cc90e8dc59a",
      "transactionType": "CALL",
      "contractName": null,
      "contractAddress": "0xb527cb6AD6A92041fA7bAFe41798F8c46f070a20",
      "function": "schedule(address,uint256,bytes,bytes32,bytes32,uint256)",
      "arguments": [
        "0x9E09D9943B40685e8B78f6DC43069652dd6E6efD",
        "0",
        "0x7170f03c0000000000000000000000002b15756e32af0b47fb1d44db1f7b71feb457c5e7000000000000000000000000781a349e66cf9e909af1ecdefb75fc3b87e54d3a0000000000000000000000000000000000000000000000000000000000004e20000000000000000000000000000000000000000000000000000000000000003c00000000000000000000000081a1e7f34b9babf172087cf5df8a4df6500e9d4d00000000000000000000000081a1e7f34b9babf172087cf5df8a4df6500e9d4d0000000000000000000000000000000000000000000000000000000000004e20",
        "0x0000000000000000000000000000000000000000000000000000000000000000",
        "0x0000000000000000000000000000000000000000000000000000000000000000",
        "60"
      ],
      "transaction": {
        "type": "0x02",
        "from": "0x81a1e7f34b9babf172087cf5df8a4df6500e9d4d",
        "to": "0xb527cb6ad6a92041fa7bafe41798f8c46f070a20",
        "gas": "0x13a30",
        "value": "0x0",
        "data": "0x01d5062a0000000000000000000000009e09d9943b40685e8b78f6dc43069652dd6e6efd000000000000000000000000000000000000000000000000000000000000000000000000000000000000000000000000000000000000000000000000000000c000000000000000000000000000000000000000000000000000000000000000000000000000000000000000000000000000000000000000000000000000000000000000000000000000000000000000000000000000000000000000000000003c00000000000000000000000000000000000000000000000000000000000000e47170f03c0000000000000000000000002b15756e32af0b47fb1d44db1f7b71feb457c5e7000000000000000000000000781a349e66cf9e909af1ecdefb75fc3b87e54d3a0000000000000000000000000000000000000000000000000000000000004e20000000000000000000000000000000000000000000000000000000000000003c00000000000000000000000081a1e7f34b9babf172087cf5df8a4df6500e9d4d00000000000000000000000081a1e7f34b9babf172087cf5df8a4df6500e9d4d0000000000000000000000000000000000000000000000000000000000004e2000000000000000000000000000000000000000000000000000000000",
        "nonce": "0x3b",
        "accessList": []
      },
      "additionalContracts": [],
      "isFixedGasLimit": false
    }
  ],
  "receipts": [
    {
      "transactionHash": "0xcfa7d803356a943597e9e52cffe1e30b1671251bb9f68b0e5f859cc90e8dc59a",
      "transactionIndex": "0x9",
      "blockHash": "0xe4b02bb186265c15e163c663daa674569ae967f94d7f40141909c67cba1974ef",
      "blockNumber": "0x1fe7a7f",
      "from": "0x81a1e7F34b9bABf172087cF5df8A4DF6500e9d4d",
      "to": "0xb527cb6AD6A92041fA7bAFe41798F8c46f070a20",
      "cumulativeGasUsed": "0x41f7ac",
      "gasUsed": "0xe378",
      "contractAddress": null,
      "logs": [
        {
          "address": "0xb527cb6AD6A92041fA7bAFe41798F8c46f070a20",
          "topics": [
            "0x4cf4410cc57040e44862ef0f45f3dd5a5e02db8eb8add648d4b0e236f1d07dca",
            "0x40f7980a7f7472341d9713a09f35efb951b7277c67a36942d46cdc2f60f4a7f6",
            "0x0000000000000000000000000000000000000000000000000000000000000000"
          ],
          "data": "0x0000000000000000000000009e09d9943b40685e8b78f6dc43069652dd6e6efd000000000000000000000000000000000000000000000000000000000000000000000000000000000000000000000000000000000000000000000000000000a00000000000000000000000000000000000000000000000000000000000000000000000000000000000000000000000000000000000000000000000000000003c00000000000000000000000000000000000000000000000000000000000000e47170f03c0000000000000000000000002b15756e32af0b47fb1d44db1f7b71feb457c5e7000000000000000000000000781a349e66cf9e909af1ecdefb75fc3b87e54d3a0000000000000000000000000000000000000000000000000000000000004e20000000000000000000000000000000000000000000000000000000000000003c00000000000000000000000081a1e7f34b9babf172087cf5df8a4df6500e9d4d00000000000000000000000081a1e7f34b9babf172087cf5df8a4df6500e9d4d0000000000000000000000000000000000000000000000000000000000004e2000000000000000000000000000000000000000000000000000000000",
          "blockHash": "0xe4b02bb186265c15e163c663daa674569ae967f94d7f40141909c67cba1974ef",
          "blockNumber": "0x1fe7a7f",
          "transactionHash": "0xcfa7d803356a943597e9e52cffe1e30b1671251bb9f68b0e5f859cc90e8dc59a",
          "transactionIndex": "0x9",
          "logIndex": "0x425",
          "removed": false
        }
      ],
      "status": "0x1",
      "logsBloom": "0x00000000000000000000000040000000000000000000000000000000000000000001008400000000000000000000000100000000000000000000000000000000000000000000000000000000000000000000000000000000000000000000000000000000020000000000000000000800000000000000000000000000000000000000000000000000000000000000000000000000001000000000000000000004000000000000000000000000000000000000000000000000000000000000000000000000000000000000000000000000000000000000400000000000000020000000000000000000000001000000000000000000000000000000000000000000",
      "type": "0x2",
      "effectiveGasPrice": "0xb2d05e0b"
    }
  ],
  "libraries": [],
  "pending": [],
  "returns": {},
  "timestamp": 1713178197,
  "chain": 100,
  "commit": "fc570f4"
}