{
  "transactions": [
    {
      "hash": "0x89f7555a7a30fc7d4d572606f89192e90d5664bb98a597b614fb0ecc42a3079d",
      "transactionType": "CALL",
      "contractName": null,
      "contractAddress": "0x57769cbc17fbce61cb7c15319d68f2974fda06e0",
      "function": "schedule(address,uint256,bytes,bytes32,bytes32,uint256)",
      "arguments": [
        "0xD0294EEE29287Bf69311552109F3FB84B3f2c1DC",
        "0",
        "0x7170f03c0000000000000000000000008c65404010892b265ff981c8789ce81e0385536b000000000000000000000000a9a1fc87a36bf5d4bebeba69e9e5caab3ee742fa0000000000000000000000000000000000000000000000000000000000004e20000000000000000000000000000000000000000000000000000000000000003c00000000000000000000000081a1e7f34b9babf172087cf5df8a4df6500e9d4d00000000000000000000000081a1e7f34b9babf172087cf5df8a4df6500e9d4d0000000000000000000000000000000000000000000000000000000000004e20",
        "0x0000000000000000000000000000000000000000000000000000000000000000",
        "0x0000000000000000000000000000000000000000000000000000000000000000",
        "60"
      ],
      "transaction": {
        "from": "0x81a1e7f34b9babf172087cf5df8a4df6500e9d4d",
        "to": "0x57769cbc17fbce61cb7c15319d68f2974fda06e0",
        "gas": "0x138e0",
        "value": "0x0",
        "input": "0x01d5062a000000000000000000000000d0294eee29287bf69311552109f3fb84b3f2c1dc000000000000000000000000000000000000000000000000000000000000000000000000000000000000000000000000000000000000000000000000000000c000000000000000000000000000000000000000000000000000000000000000000000000000000000000000000000000000000000000000000000000000000000000000000000000000000000000000000000000000000000000000000000003c00000000000000000000000000000000000000000000000000000000000000e47170f03c0000000000000000000000008c65404010892b265ff981c8789ce81e0385536b000000000000000000000000a9a1fc87a36bf5d4bebeba69e9e5caab3ee742fa0000000000000000000000000000000000000000000000000000000000004e20000000000000000000000000000000000000000000000000000000000000003c00000000000000000000000081a1e7f34b9babf172087cf5df8a4df6500e9d4d00000000000000000000000081a1e7f34b9babf172087cf5df8a4df6500e9d4d0000000000000000000000000000000000000000000000000000000000004e2000000000000000000000000000000000000000000000000000000000",
        "nonce": "0x78",
        "chainId": "0x64"
      },
      "additionalContracts": [],
      "isFixedGasLimit": false
    }
  ],
  "receipts": [
    {
      "status": "0x1",
      "cumulativeGasUsed": "0x3d8ee8",
      "logs": [
        {
          "address": "0x57769cbc17fbce61cb7c15319d68f2974fda06e0",
          "topics": [
            "0x4cf4410cc57040e44862ef0f45f3dd5a5e02db8eb8add648d4b0e236f1d07dca",
            "0xde0d1a33ce9ad3c73fc1d8170c7784564344d160e04fb18fe27e195e44edb16c",
            "0x0000000000000000000000000000000000000000000000000000000000000000"
          ],
          "data": "0x000000000000000000000000d0294eee29287bf69311552109f3fb84b3f2c1dc000000000000000000000000000000000000000000000000000000000000000000000000000000000000000000000000000000000000000000000000000000a00000000000000000000000000000000000000000000000000000000000000000000000000000000000000000000000000000000000000000000000000000003c00000000000000000000000000000000000000000000000000000000000000e47170f03c0000000000000000000000008c65404010892b265ff981c8789ce81e0385536b000000000000000000000000a9a1fc87a36bf5d4bebeba69e9e5caab3ee742fa0000000000000000000000000000000000000000000000000000000000004e20000000000000000000000000000000000000000000000000000000000000003c00000000000000000000000081a1e7f34b9babf172087cf5df8a4df6500e9d4d00000000000000000000000081a1e7f34b9babf172087cf5df8a4df6500e9d4d0000000000000000000000000000000000000000000000000000000000004e2000000000000000000000000000000000000000000000000000000000",
          "blockHash": "0x175547d49ec5f2d2afd471ed55065781fa79e13bd292c23fb9e0e1661b50e019",
          "blockNumber": "0x2065dc3",
          "transactionHash": "0x89f7555a7a30fc7d4d572606f89192e90d5664bb98a597b614fb0ecc42a3079d",
          "transactionIndex": "0x8",
          "logIndex": "0x430",
          "removed": false
        }
      ],
      "logsBloom": "0x00100000000000000000000140000000000000000000002000000000000000000000000000000000000000000000000100000000000000000000000000000000000080000000000000000000000000000000000000000000000000000000000000000000020000000000000000000800000000000000000000000000020000000000000000000000000000000000000000000000000000000000000000000000000020000000000000000000000000000000000000000000000000000000000000000000000000000000000000000000000000000000400000000000000020000000000000000000000000000000000000000000000000000000000000000000",
      "type": "0x0",
      "transactionHash": "0x89f7555a7a30fc7d4d572606f89192e90d5664bb98a597b614fb0ecc42a3079d",
      "transactionIndex": "0x8",
      "blockHash": "0x175547d49ec5f2d2afd471ed55065781fa79e13bd292c23fb9e0e1661b50e019",
      "blockNumber": "0x2065dc3",
      "gasUsed": "0xe285",
      "effectiveGasPrice": "0x7735940b",
      "from": "0x81a1e7f34b9babf172087cf5df8a4df6500e9d4d",
      "to": "0x57769cbc17fbce61cb7c15319d68f2974fda06e0",
      "contractAddress": null
    }
  ],
  "libraries": [],
  "pending": [],
  "returns": {},
  "timestamp": 1715849979,
  "chain": 100,
  "commit": "395fa72"
}