{
  "transactions": [
    {
      "hash": "0x2c11bdc0ee19ab990749917c3152537c8c3bb2e83bdb4778816fe82c45b24870",
      "transactionType": "CALL",
      "contractName": "TimeLock",
      "contractAddress": "0xD41479D3f6c42cF6F532DF0F64Ca132342661f07",
      "function": "schedule(address,uint256,bytes,bytes32,bytes32,uint256)",
      "arguments": [
        "0x9E09D9943B40685e8B78f6DC43069652dd6E6efD",
        "0",
        "0x7170f03c00000000000000000000000089ea626ecac279a535ec7ba6ab1fe0ab6a4eb4400000000000000000000000004409d89ab5332b6fb71b5d74d3ee94171a8890410000000000000000000000000000000000000000000000000000000000004e20000000000000000000000000000000000000000000000000000000000000003c00000000000000000000000081a1e7f34b9babf172087cf5df8a4df6500e9d4d00000000000000000000000081a1e7f34b9babf172087cf5df8a4df6500e9d4d0000000000000000000000000000000000000000000000000000000000004e20",
        "0x0000000000000000000000000000000000000000000000000000000000000000",
        "0x0000000000000000000000000000000000000000000000000000000000000000",
        "60"
      ],
      "transaction": {
        "type": "0x02",
        "from": "0x81a1e7f34b9babf172087cf5df8a4df6500e9d4d",
        "to": "0xd41479d3f6c42cf6f532df0f64ca132342661f07",
        "gas": "0x13a30",
        "value": "0x0",
        "data": "0x01d5062a0000000000000000000000009e09d9943b40685e8b78f6dc43069652dd6e6efd000000000000000000000000000000000000000000000000000000000000000000000000000000000000000000000000000000000000000000000000000000c000000000000000000000000000000000000000000000000000000000000000000000000000000000000000000000000000000000000000000000000000000000000000000000000000000000000000000000000000000000000000000000003c00000000000000000000000000000000000000000000000000000000000000e47170f03c00000000000000000000000089ea626ecac279a535ec7ba6ab1fe0ab6a4eb4400000000000000000000000004409d89ab5332b6fb71b5d74d3ee94171a8890410000000000000000000000000000000000000000000000000000000000004e20000000000000000000000000000000000000000000000000000000000000003c00000000000000000000000081a1e7f34b9babf172087cf5df8a4df6500e9d4d00000000000000000000000081a1e7f34b9babf172087cf5df8a4df6500e9d4d0000000000000000000000000000000000000000000000000000000000004e2000000000000000000000000000000000000000000000000000000000",
        "nonce": "0x27",
        "accessList": []
      },
      "additionalContracts": [],
      "isFixedGasLimit": false
    }
  ],
  "receipts": [
    {
      "transactionHash": "0x2c11bdc0ee19ab990749917c3152537c8c3bb2e83bdb4778816fe82c45b24870",
      "transactionIndex": "0x1",
      "blockHash": "0x7e871a15c5b4a2ee7bb09ca725a6bb52609b542355600658ad82a4f128f186a4",
      "blockNumber": "0x1f9721f",
      "from": "0x81a1e7F34b9bABf172087cF5df8A4DF6500e9d4d",
      "to": "0xD41479D3f6c42cF6F532DF0F64Ca132342661f07",
      "cumulativeGasUsed": "0x9a90f",
      "gasUsed": "0xe378",
      "contractAddress": null,
      "logs": [
        {
          "address": "0xD41479D3f6c42cF6F532DF0F64Ca132342661f07",
          "topics": [
            "0x4cf4410cc57040e44862ef0f45f3dd5a5e02db8eb8add648d4b0e236f1d07dca",
            "0xbeef8fd242fe0657573ae97359fd0b10dd910f96518ceb85a341a2927b64b568",
            "0x0000000000000000000000000000000000000000000000000000000000000000"
          ],
          "data": "0x0000000000000000000000009e09d9943b40685e8b78f6dc43069652dd6e6efd000000000000000000000000000000000000000000000000000000000000000000000000000000000000000000000000000000000000000000000000000000a00000000000000000000000000000000000000000000000000000000000000000000000000000000000000000000000000000000000000000000000000000003c00000000000000000000000000000000000000000000000000000000000000e47170f03c00000000000000000000000089ea626ecac279a535ec7ba6ab1fe0ab6a4eb4400000000000000000000000004409d89ab5332b6fb71b5d74d3ee94171a8890410000000000000000000000000000000000000000000000000000000000004e20000000000000000000000000000000000000000000000000000000000000003c00000000000000000000000081a1e7f34b9babf172087cf5df8a4df6500e9d4d00000000000000000000000081a1e7f34b9babf172087cf5df8a4df6500e9d4d0000000000000000000000000000000000000000000000000000000000004e2000000000000000000000000000000000000000000000000000000000",
          "blockHash": "0x7e871a15c5b4a2ee7bb09ca725a6bb52609b542355600658ad82a4f128f186a4",
          "blockNumber": "0x1f9721f",
          "transactionHash": "0x2c11bdc0ee19ab990749917c3152537c8c3bb2e83bdb4778816fe82c45b24870",
          "transactionIndex": "0x1",
          "logIndex": "0x92",
          "removed": false
        }
      ],
      "status": "0x1",
      "logsBloom": "0x80000000000000000000000040000000000000000000000000000000000000000010000000000000000000000000000100000000000000000000000000000000000000000000000000000000000000000000000000000000000000000000000040000000020000000001000000000800000000000000000000000000000000000000000000000000000000000000000000000000000000000000000000000020000000000000000000000000000000000000000000000000000000000000000000000000000000000100000000000000000000000000400000000000000020000000000000000000000000000000000000000000000000000000000000000000",
      "type": "0x2",
      "effectiveGasPrice": "0xb2d05e0b"
    }
  ],
  "libraries": [],
  "pending": [],
  "returns": {},
  "timestamp": 1711459092,
  "chain": 100,
  "multi": false,
  "commit": "b0a703f"
}