{
  "transactions": [
    {
      "hash": "0x4f82bcb78a9b1a7f2be7f9d6068a68fb61ee77eb697848f3d23ea76a38cc35e2",
      "transactionType": "CALL",
      "contractName": "TimeLock",
      "contractAddress": "0x6a135E498eD2171f908aEAc875390E4383B54a68",
      "function": "schedule(address,uint256,bytes,bytes32,bytes32,uint256)",
      "arguments": [
        "0x9E09D9943B40685e8B78f6DC43069652dd6E6efD",
        "0",
        "0x7170f03c00000000000000000000000091798c5923a3c7280f9b8c5c78cbf427a25b52e5000000000000000000000000beb59fe03e6057cedfd7b5b4d8fdda61975add2d0000000000000000000000000000000000000000000000000000000000004e20000000000000000000000000000000000000000000000000000000000000003c00000000000000000000000081a1e7f34b9babf172087cf5df8a4df6500e9d4d00000000000000000000000081a1e7f34b9babf172087cf5df8a4df6500e9d4d0000000000000000000000000000000000000000000000000000000000004e20",
        "0x0000000000000000000000000000000000000000000000000000000000000000",
        "0x0000000000000000000000000000000000000000000000000000000000000000",
        "60"
      ],
      "transaction": {
        "type": "0x02",
        "from": "0x81a1e7f34b9babf172087cf5df8a4df6500e9d4d",
        "to": "0x6a135e498ed2171f908aeac875390e4383b54a68",
        "gas": "0x13a30",
        "value": "0x0",
        "data": "0x01d5062a0000000000000000000000009e09d9943b40685e8b78f6dc43069652dd6e6efd000000000000000000000000000000000000000000000000000000000000000000000000000000000000000000000000000000000000000000000000000000c000000000000000000000000000000000000000000000000000000000000000000000000000000000000000000000000000000000000000000000000000000000000000000000000000000000000000000000000000000000000000000000003c00000000000000000000000000000000000000000000000000000000000000e47170f03c00000000000000000000000091798c5923a3c7280f9b8c5c78cbf427a25b52e5000000000000000000000000beb59fe03e6057cedfd7b5b4d8fdda61975add2d0000000000000000000000000000000000000000000000000000000000004e20000000000000000000000000000000000000000000000000000000000000003c00000000000000000000000081a1e7f34b9babf172087cf5df8a4df6500e9d4d00000000000000000000000081a1e7f34b9babf172087cf5df8a4df6500e9d4d0000000000000000000000000000000000000000000000000000000000004e2000000000000000000000000000000000000000000000000000000000",
        "nonce": "0x21",
        "accessList": []
      },
      "additionalContracts": [],
      "isFixedGasLimit": false
    }
  ],
  "receipts": [
    {
      "transactionHash": "0x4f82bcb78a9b1a7f2be7f9d6068a68fb61ee77eb697848f3d23ea76a38cc35e2",
      "transactionIndex": "0x2",
      "blockHash": "0x1bbb1b77c19e1423643472ac653000f2d17d1099bb5936a59b5c23346a0a9fa1",
      "blockNumber": "0x1f7ec01",
      "from": "0x81a1e7F34b9bABf172087cF5df8A4DF6500e9d4d",
      "to": "0x6a135E498eD2171f908aEAc875390E4383B54a68",
      "cumulativeGasUsed": "0x74d2ea",
      "gasUsed": "0xe378",
      "contractAddress": null,
      "logs": [
        {
          "address": "0x6a135E498eD2171f908aEAc875390E4383B54a68",
          "topics": [
            "0x4cf4410cc57040e44862ef0f45f3dd5a5e02db8eb8add648d4b0e236f1d07dca",
            "0x2ef28d0d8043ca2759e23c1713dbf37301b368aac70701916e3a3d023ea50715",
            "0x0000000000000000000000000000000000000000000000000000000000000000"
          ],
          "data": "0x0000000000000000000000009e09d9943b40685e8b78f6dc43069652dd6e6efd000000000000000000000000000000000000000000000000000000000000000000000000000000000000000000000000000000000000000000000000000000a00000000000000000000000000000000000000000000000000000000000000000000000000000000000000000000000000000000000000000000000000000003c00000000000000000000000000000000000000000000000000000000000000e47170f03c00000000000000000000000091798c5923a3c7280f9b8c5c78cbf427a25b52e5000000000000000000000000beb59fe03e6057cedfd7b5b4d8fdda61975add2d0000000000000000000000000000000000000000000000000000000000004e20000000000000000000000000000000000000000000000000000000000000003c00000000000000000000000081a1e7f34b9babf172087cf5df8a4df6500e9d4d00000000000000000000000081a1e7f34b9babf172087cf5df8a4df6500e9d4d0000000000000000000000000000000000000000000000000000000000004e2000000000000000000000000000000000000000000000000000000000",
          "blockHash": "0x1bbb1b77c19e1423643472ac653000f2d17d1099bb5936a59b5c23346a0a9fa1",
          "blockNumber": "0x1f7ec01",
          "transactionHash": "0x4f82bcb78a9b1a7f2be7f9d6068a68fb61ee77eb697848f3d23ea76a38cc35e2",
          "transactionIndex": "0x2",
          "logIndex": "0x7d1",
          "removed": false
        }
      ],
      "status": "0x1",
      "logsBloom": "0x00000000000040000000000040000000000000000000000000000000000400000000000000000000000000000000000100000000000000000000000000000000000000000000000000000000000000000000000000000000000000000000000000000000020000100000000000000800001000000000000000000000000000000000000000000000000100000000000000000000000000000000000000000000000000000000000000000000000000000000000000000000000000000000000000000000000000000000000000000000000000000000400000002000000020000000000000000000000000000000000000000000000000000000000000000000",
      "type": "0x2",
      "effectiveGasPrice": "0xb2d05e10"
    }
  ],
  "libraries": [],
  "pending": [],
  "returns": {},
  "timestamp": 1710936171,
  "chain": 100,
  "multi": false,
  "commit": "b0a703f"
}