{
  "transactions": [
    {
      "hash": "0xfb4ac80f0c389d52b018136832b534c5a12810770ec7a59c0e25ce03d48cc29c",
      "transactionType": "CALL",
      "contractName": "TimeLock",
      "contractAddress": "0x5b3BdFff4B595588B08d6cf99477A5f17b6025FA",
      "function": "schedule(address,uint256,bytes,bytes32,bytes32,uint256)",
      "arguments": [
        "0x9E09D9943B40685e8B78f6DC43069652dd6E6efD",
        "0",
        "0x7170f03c0000000000000000000000007a740e3e66e9d109546376d70319184e782a2198000000000000000000000000abcd325ddd390e08f6399c3fa3337a34659c5b660000000000000000000000000000000000000000000000000000000000004e20000000000000000000000000000000000000000000000000000000000000003c00000000000000000000000081a1e7f34b9babf172087cf5df8a4df6500e9d4d00000000000000000000000081a1e7f34b9babf172087cf5df8a4df6500e9d4d0000000000000000000000000000000000000000000000000000000000004e20",
        "0x0000000000000000000000000000000000000000000000000000000000000000",
        "0x0000000000000000000000000000000000000000000000000000000000000000",
        "60"
      ],
      "transaction": {
        "type": "0x02",
        "from": "0x81a1e7f34b9babf172087cf5df8a4df6500e9d4d",
        "to": "0x5b3bdfff4b595588b08d6cf99477a5f17b6025fa",
        "gas": "0x13a30",
        "value": "0x0",
        "data": "0x01d5062a0000000000000000000000009e09d9943b40685e8b78f6dc43069652dd6e6efd000000000000000000000000000000000000000000000000000000000000000000000000000000000000000000000000000000000000000000000000000000c000000000000000000000000000000000000000000000000000000000000000000000000000000000000000000000000000000000000000000000000000000000000000000000000000000000000000000000000000000000000000000000003c00000000000000000000000000000000000000000000000000000000000000e47170f03c0000000000000000000000007a740e3e66e9d109546376d70319184e782a2198000000000000000000000000abcd325ddd390e08f6399c3fa3337a34659c5b660000000000000000000000000000000000000000000000000000000000004e20000000000000000000000000000000000000000000000000000000000000003c00000000000000000000000081a1e7f34b9babf172087cf5df8a4df6500e9d4d00000000000000000000000081a1e7f34b9babf172087cf5df8a4df6500e9d4d0000000000000000000000000000000000000000000000000000000000004e2000000000000000000000000000000000000000000000000000000000",
        "nonce": "0x1d",
        "accessList": []
      },
      "additionalContracts": [],
      "isFixedGasLimit": false
    }
  ],
  "receipts": [],
  "libraries": [],
  "pending": [
    "0xfb4ac80f0c389d52b018136832b534c5a12810770ec7a59c0e25ce03d48cc29c"
  ],
  "returns": {},
  "timestamp": 1710934420,
  "chain": 100,
  "multi": false,
  "commit": "b0a703f"
}