{
  "transactions": [
    {
      "hash": "0x0f8cfd1552dfc98787e2e89306a88e9791fd91e40deaf9186e6e88b4594f64cc",
      "transactionType": "CALL",
      "contractName": "TimeLock",
      "contractAddress": "0x119e26B6D72376Ac741d5546eA295d1A0160E26c",
      "function": "schedule(address,uint256,bytes,bytes32,bytes32,uint256)",
      "arguments": [
        "0xb6F7f65a5cc81B5dA5E9aB58FB37Cb174f4Fb3ca",
        "0",
        "0x7170f03c0000000000000000000000008ce9786dc4bbb558c1f219f10b1f2f70a6ced7ec000000000000000000000000cd3b683c6514e94a48d7993544c199341fcdd14e0000000000000000000000000000000000000000000000000000000000004e20000000000000000000000000000000000000000000000000000000000000003c00000000000000000000000081a1e7f34b9babf172087cf5df8a4df6500e9d4d00000000000000000000000081a1e7f34b9babf172087cf5df8a4df6500e9d4d0000000000000000000000000000000000000000000000000000000000004e20",
        "0x0000000000000000000000000000000000000000000000000000000000000000",
        "0x0000000000000000000000000000000000000000000000000000000000000000",
        "60"
      ],
      "transaction": {
        "type": "0x02",
        "from": "0x81a1e7f34b9babf172087cf5df8a4df6500e9d4d",
        "to": "0x119e26b6d72376ac741d5546ea295d1a0160e26c",
        "gas": "0x13a30",
        "value": "0x0",
        "data": "0x01d5062a000000000000000000000000b6f7f65a5cc81b5da5e9ab58fb37cb174f4fb3ca000000000000000000000000000000000000000000000000000000000000000000000000000000000000000000000000000000000000000000000000000000c000000000000000000000000000000000000000000000000000000000000000000000000000000000000000000000000000000000000000000000000000000000000000000000000000000000000000000000000000000000000000000000003c00000000000000000000000000000000000000000000000000000000000000e47170f03c0000000000000000000000008ce9786dc4bbb558c1f219f10b1f2f70a6ced7ec000000000000000000000000cd3b683c6514e94a48d7993544c199341fcdd14e0000000000000000000000000000000000000000000000000000000000004e20000000000000000000000000000000000000000000000000000000000000003c00000000000000000000000081a1e7f34b9babf172087cf5df8a4df6500e9d4d00000000000000000000000081a1e7f34b9babf172087cf5df8a4df6500e9d4d0000000000000000000000000000000000000000000000000000000000004e2000000000000000000000000000000000000000000000000000000000",
        "nonce": "0x5b",
        "accessList": []
      },
      "additionalContracts": [],
      "isFixedGasLimit": false
    }
  ],
  "receipts": [
    {
      "transactionHash": "0x0f8cfd1552dfc98787e2e89306a88e9791fd91e40deaf9186e6e88b4594f64cc",
      "transactionIndex": "0xa",
      "blockHash": "0x96e1b3ee88f1a2bfdf067695e22f5e1a18a1a83ffd69ac7eef3ea05bc0e86c40",
      "blockNumber": "0x1ff0475",
      "from": "0x81a1e7F34b9bABf172087cF5df8A4DF6500e9d4d",
      "to": "0x119e26B6D72376Ac741d5546eA295d1A0160E26c",
      "cumulativeGasUsed": "0xf3eb9b",
      "gasUsed": "0xe378",
      "contractAddress": null,
      "logs": [
        {
          "address": "0x119e26B6D72376Ac741d5546eA295d1A0160E26c",
          "topics": [
            "0x4cf4410cc57040e44862ef0f45f3dd5a5e02db8eb8add648d4b0e236f1d07dca",
            "0xaf7cb7f1d2b7dc40a0e5d599280af43c726e9030f4fe5ff9884d8bece37aa852",
            "0x0000000000000000000000000000000000000000000000000000000000000000"
          ],
          "data": "0x000000000000000000000000b6f7f65a5cc81b5da5e9ab58fb37cb174f4fb3ca000000000000000000000000000000000000000000000000000000000000000000000000000000000000000000000000000000000000000000000000000000a00000000000000000000000000000000000000000000000000000000000000000000000000000000000000000000000000000000000000000000000000000003c00000000000000000000000000000000000000000000000000000000000000e47170f03c0000000000000000000000008ce9786dc4bbb558c1f219f10b1f2f70a6ced7ec000000000000000000000000cd3b683c6514e94a48d7993544c199341fcdd14e0000000000000000000000000000000000000000000000000000000000004e20000000000000000000000000000000000000000000000000000000000000003c00000000000000000000000081a1e7f34b9babf172087cf5df8a4df6500e9d4d00000000000000000000000081a1e7f34b9babf172087cf5df8a4df6500e9d4d0000000000000000000000000000000000000000000000000000000000004e2000000000000000000000000000000000000000000000000000000000",
          "blockHash": "0x96e1b3ee88f1a2bfdf067695e22f5e1a18a1a83ffd69ac7eef3ea05bc0e86c40",
          "blockNumber": "0x1ff0475",
          "transactionHash": "0x0f8cfd1552dfc98787e2e89306a88e9791fd91e40deaf9186e6e88b4594f64cc",
          "transactionIndex": "0xa",
          "logIndex": "0x119d",
          "removed": false
        }
      ],
      "status": "0x1",
      "logsBloom": "0x00000000010000000000000040000000000000000000000000000000000000000080000000000000000000000000800100000000000000000000000000000000000000000000000000000000000000000000000000000000000000000000000000000000020000000000000000000800000000800000000000000000000000000000000000000000000000000000000000000000000000000000000000000000000000000000000000000000000000000000000000000000000000000000000000000000000000000001000000000000000000000000400000000000000020000000000000400000000000000000000000000000000000000000000000000000",
      "type": "0x2",
      "effectiveGasPrice": "0xb2d05feb"
    }
  ],
  "libraries": [],
  "pending": [],
  "returns": {},
  "timestamp": 1713360626,
  "chain": 100,
  "commit": "82b2400"
}