{
  "transactions": [
    {
      "hash": "0x6a93ca877bee9aae79a5ba3d78222c4ddecedf03d815901749042d9840c4aab4",
      "transactionType": "CALL",
      "contractName": "TimeLock",
      "contractAddress": "0xD41479D3f6c42cF6F532DF0F64Ca132342661f07",
      "function": "execute(address,uint256,bytes,bytes32,bytes32)",
      "arguments": [
        "0x9E09D9943B40685e8B78f6DC43069652dd6E6efD",
        "0",
        "0x7170f03c00000000000000000000000089ea626ecac279a535ec7ba6ab1fe0ab6a4eb4400000000000000000000000004409d89ab5332b6fb71b5d74d3ee94171a8890410000000000000000000000000000000000000000000000000000000000004e20000000000000000000000000000000000000000000000000000000000000003c00000000000000000000000081a1e7f34b9babf172087cf5df8a4df6500e9d4d00000000000000000000000081a1e7f34b9babf172087cf5df8a4df6500e9d4d0000000000000000000000000000000000000000000000000000000000004e20",
        "0x0000000000000000000000000000000000000000000000000000000000000000",
        "0x0000000000000000000000000000000000000000000000000000000000000000"
      ],
      "transaction": {
        "type": "0x02",
        "from": "0x81a1e7f34b9babf172087cf5df8a4df6500e9d4d",
        "to": "0xd41479d3f6c42cf6f532df0f64ca132342661f07",
        "gas": "0x1c2b8",
        "value": "0x0",
        "data": "0x134008d30000000000000000000000009e09d9943b40685e8b78f6dc43069652dd6e6efd000000000000000000000000000000000000000000000000000000000000000000000000000000000000000000000000000000000000000000000000000000a00000000000000000000000000000000000000000000000000000000000000000000000000000000000000000000000000000000000000000000000000000000000000000000000000000000000000000000000000000000000000000000000e47170f03c00000000000000000000000089ea626ecac279a535ec7ba6ab1fe0ab6a4eb4400000000000000000000000004409d89ab5332b6fb71b5d74d3ee94171a8890410000000000000000000000000000000000000000000000000000000000004e20000000000000000000000000000000000000000000000000000000000000003c00000000000000000000000081a1e7f34b9babf172087cf5df8a4df6500e9d4d00000000000000000000000081a1e7f34b9babf172087cf5df8a4df6500e9d4d0000000000000000000000000000000000000000000000000000000000004e2000000000000000000000000000000000000000000000000000000000",
        "nonce": "0x28",
        "accessList": []
      },
      "additionalContracts": [],
      "isFixedGasLimit": false
    }
  ],
  "receipts": [
    {
      "transactionHash": "0x6a93ca877bee9aae79a5ba3d78222c4ddecedf03d815901749042d9840c4aab4",
      "transactionIndex": "0x1",
      "blockHash": "0x7ca5b753b283865205fe6959274239169e4e10d6d8386bae4e3c829b324cc7a3",
      "blockNumber": "0x1f97237",
      "from": "0x81a1e7F34b9bABf172087cF5df8A4DF6500e9d4d",
      "to": "0xD41479D3f6c42cF6F532DF0F64Ca132342661f07",
      "cumulativeGasUsed": "0x10c421",
      "gasUsed": "0x14650",
      "contractAddress": null,
      "logs": [
        {
          "address": "0x9E09D9943B40685e8B78f6DC43069652dd6E6efD",
          "topics": [
            "0x848acd7079af2a323ca6b8a860068c114673abe038a880b126bf280c26032c04",
            "0x00000000000000000000000089ea626ecac279a535ec7ba6ab1fe0ab6a4eb440"
          ],
          "data": "0x0000000000000000000000004409d89ab5332b6fb71b5d74d3ee94171a8890410000000000000000000000000000000000000000000000000000000000004e200000000000000000000000000000000000000000000000000000000000004e20000000000000000000000000000000000000000000000000000000000000003c00000000000000000000000081a1e7f34b9babf172087cf5df8a4df6500e9d4d00000000000000000000000081a1e7f34b9babf172087cf5df8a4df6500e9d4d",
          "blockHash": "0x7ca5b753b283865205fe6959274239169e4e10d6d8386bae4e3c829b324cc7a3",
          "blockNumber": "0x1f97237",
          "transactionHash": "0x6a93ca877bee9aae79a5ba3d78222c4ddecedf03d815901749042d9840c4aab4",
          "transactionIndex": "0x1",
          "logIndex": "0xd4",
          "removed": false
        },
        {
          "address": "0xD41479D3f6c42cF6F532DF0F64Ca132342661f07",
          "topics": [
            "0xc2617efa69bab66782fa219543714338489c4e9e178271560a91b82c3f612b58",
            "0xbeef8fd242fe0657573ae97359fd0b10dd910f96518ceb85a341a2927b64b568",
            "0x0000000000000000000000000000000000000000000000000000000000000000"
          ],
          "data": "0x0000000000000000000000009e09d9943b40685e8b78f6dc43069652dd6e6efd0000000000000000000000000000000000000000000000000000000000000000000000000000000000000000000000000000000000000000000000000000006000000000000000000000000000000000000000000000000000000000000000e47170f03c00000000000000000000000089ea626ecac279a535ec7ba6ab1fe0ab6a4eb4400000000000000000000000004409d89ab5332b6fb71b5d74d3ee94171a8890410000000000000000000000000000000000000000000000000000000000004e20000000000000000000000000000000000000000000000000000000000000003c00000000000000000000000081a1e7f34b9babf172087cf5df8a4df6500e9d4d00000000000000000000000081a1e7f34b9babf172087cf5df8a4df6500e9d4d0000000000000000000000000000000000000000000000000000000000004e2000000000000000000000000000000000000000000000000000000000",
          "blockHash": "0x7ca5b753b283865205fe6959274239169e4e10d6d8386bae4e3c829b324cc7a3",
          "blockNumber": "0x1f97237",
          "transactionHash": "0x6a93ca877bee9aae79a5ba3d78222c4ddecedf03d815901749042d9840c4aab4",
          "transactionIndex": "0x1",
          "logIndex": "0xd5",
          "removed": false
        }
      ],
      "status": "0x1",
      "logsBloom": "0x80000000000000001000000000000000000000000000000000000000000000000010000000000000000000000000000000000000000800000000000000000080000000000000000000000000000000000000000000000000000000000000002040000080020000000001000000000800000000000000000004200000000000000000000000000000000000000000000000000000001000000000000000000020200000000000000010000000000000000000000000000002000000000000000000000000000000080100000000000000000000000000000000000000000020000000000000000000000000000000000000000000000000000000000000000000",
      "type": "0x2",
      "effectiveGasPrice": "0xb2d05e0c"
    }
  ],
  "libraries": [],
  "pending": [],
  "returns": {},
  "timestamp": 1711459221,
  "chain": 100,
  "multi": false,
  "commit": "b0a703f"
}