{
  "transactions": [
    {
      "hash": "0xa7ca5c8bf403af934376402b53734da307c5b602259bff815d7b8c868b32d251",
      "transactionType": "CALL",
      "contractName": "TimeLock",
      "contractAddress": "0x5b3BdFff4B595588B08d6cf99477A5f17b6025FA",
      "function": "execute(address,uint256,bytes,bytes32,bytes32)",
      "arguments": [
        "0x9E09D9943B40685e8B78f6DC43069652dd6E6efD",
        "0",
        "0x7170f03c0000000000000000000000007a740e3e66e9d109546376d70319184e782a2198000000000000000000000000abcd325ddd390e08f6399c3fa3337a34659c5b660000000000000000000000000000000000000000000000000000000000004e20000000000000000000000000000000000000000000000000000000000000003c00000000000000000000000081a1e7f34b9babf172087cf5df8a4df6500e9d4d00000000000000000000000081a1e7f34b9babf172087cf5df8a4df6500e9d4d0000000000000000000000000000000000000000000000000000000000004e20",
        "0x0000000000000000000000000000000000000000000000000000000000000000",
        "0x0000000000000000000000000000000000000000000000000000000000000000"
      ],
      "transaction": {
        "type": "0x02",
        "from": "0x81a1e7f34b9babf172087cf5df8a4df6500e9d4d",
        "to": "0x5b3bdfff4b595588b08d6cf99477a5f17b6025fa",
        "gas": "0x1c2b8",
        "value": "0x0",
        "data": "0x134008d30000000000000000000000009e09d9943b40685e8b78f6dc43069652dd6e6efd000000000000000000000000000000000000000000000000000000000000000000000000000000000000000000000000000000000000000000000000000000a00000000000000000000000000000000000000000000000000000000000000000000000000000000000000000000000000000000000000000000000000000000000000000000000000000000000000000000000000000000000000000000000e47170f03c0000000000000000000000007a740e3e66e9d109546376d70319184e782a2198000000000000000000000000abcd325ddd390e08f6399c3fa3337a34659c5b660000000000000000000000000000000000000000000000000000000000004e20000000000000000000000000000000000000000000000000000000000000003c00000000000000000000000081a1e7f34b9babf172087cf5df8a4df6500e9d4d00000000000000000000000081a1e7f34b9babf172087cf5df8a4df6500e9d4d0000000000000000000000000000000000000000000000000000000000004e2000000000000000000000000000000000000000000000000000000000",
        "nonce": "0x1e",
        "accessList": []
      },
      "additionalContracts": [],
      "isFixedGasLimit": false
    }
  ],
  "receipts": [
    {
      "transactionHash": "0xa7ca5c8bf403af934376402b53734da307c5b602259bff815d7b8c868b32d251",
      "transactionIndex": "0x1",
      "blockHash": "0x1da81ffe16195ae09ab78beab6af9193755b808704a6828506f0ef83ef77e63f",
      "blockNumber": "0x1f7eb05",
      "from": "0x81a1e7F34b9bABf172087cF5df8A4DF6500e9d4d",
      "to": "0x5b3BdFff4B595588B08d6cf99477A5f17b6025FA",
      "cumulativeGasUsed": "0x19858",
      "gasUsed": "0x14650",
      "contractAddress": null,
      "logs": [
        {
          "address": "0x9E09D9943B40685e8B78f6DC43069652dd6E6efD",
          "topics": [
            "0x848acd7079af2a323ca6b8a860068c114673abe038a880b126bf280c26032c04",
            "0x0000000000000000000000007a740e3e66e9d109546376d70319184e782a2198"
          ],
          "data": "0x000000000000000000000000abcd325ddd390e08f6399c3fa3337a34659c5b660000000000000000000000000000000000000000000000000000000000004e200000000000000000000000000000000000000000000000000000000000004e20000000000000000000000000000000000000000000000000000000000000003c00000000000000000000000081a1e7f34b9babf172087cf5df8a4df6500e9d4d00000000000000000000000081a1e7f34b9babf172087cf5df8a4df6500e9d4d",
          "blockHash": "0x1da81ffe16195ae09ab78beab6af9193755b808704a6828506f0ef83ef77e63f",
          "blockNumber": "0x1f7eb05",
          "transactionHash": "0xa7ca5c8bf403af934376402b53734da307c5b602259bff815d7b8c868b32d251",
          "transactionIndex": "0x1",
          "logIndex": "0x0",
          "removed": false
        },
        {
          "address": "0x5b3BdFff4B595588B08d6cf99477A5f17b6025FA",
          "topics": [
            "0xc2617efa69bab66782fa219543714338489c4e9e178271560a91b82c3f612b58",
            "0x82af9163bd16a80ad261e5ffef15335f0e87e212eb8bac8a9aa61a756375a069",
            "0x0000000000000000000000000000000000000000000000000000000000000000"
          ],
          "data": "0x0000000000000000000000009e09d9943b40685e8b78f6dc43069652dd6e6efd0000000000000000000000000000000000000000000000000000000000000000000000000000000000000000000000000000000000000000000000000000006000000000000000000000000000000000000000000000000000000000000000e47170f03c0000000000000000000000007a740e3e66e9d109546376d70319184e782a2198000000000000000000000000abcd325ddd390e08f6399c3fa3337a34659c5b660000000000000000000000000000000000000000000000000000000000004e20000000000000000000000000000000000000000000000000000000000000003c00000000000000000000000081a1e7f34b9babf172087cf5df8a4df6500e9d4d00000000000000000000000081a1e7f34b9babf172087cf5df8a4df6500e9d4d0000000000000000000000000000000000000000000000000000000000004e2000000000000000000000000000000000000000000000000000000000",
          "blockHash": "0x1da81ffe16195ae09ab78beab6af9193755b808704a6828506f0ef83ef77e63f",
          "blockNumber": "0x1f7eb05",
          "transactionHash": "0xa7ca5c8bf403af934376402b53734da307c5b602259bff815d7b8c868b32d251",
          "transactionIndex": "0x1",
          "logIndex": "0x1",
          "removed": false
        }
      ],
      "status": "0x1",
      "logsBloom": "0x00000004000000000000000000000000000000000000000000000400000000000000002000000000000000000000000000000000000800000000000000000080000000000004000000000000000000000000000000000000000000000000002008000080020000000000010000000800000000000000000004200000000000000000000000000000000000000000000000000000001000000000000000000000000000000000040010000000000000000000000000000000000000000000000000000000000000080000000000000000000200000000000000000000100020000000000000000000000000000000000000000000000000000000000000000000",
      "type": "0x2",
      "effectiveGasPrice": "0xb2d05e12"
    }
  ],
  "libraries": [],
  "pending": [],
  "returns": {},
  "timestamp": 1710934846,
  "chain": 100,
  "multi": false,
  "commit": "b0a703f"
}