{
  "transactions": [
    {
      "hash": "0x45ee4f8425ce8fa582c29f403578b0cd1a5b0f35b4c3ffc9df643e1a3a3c67a6",
      "transactionType": "CALL",
      "contractName": "TimeLock",
      "contractAddress": "0x6a135E498eD2171f908aEAc875390E4383B54a68",
      "function": "execute(address,uint256,bytes,bytes32,bytes32)",
      "arguments": [
        "0x9E09D9943B40685e8B78f6DC43069652dd6E6efD",
        "0",
        "0x7170f03c00000000000000000000000091798c5923a3c7280f9b8c5c78cbf427a25b52e5000000000000000000000000beb59fe03e6057cedfd7b5b4d8fdda61975add2d0000000000000000000000000000000000000000000000000000000000004e20000000000000000000000000000000000000000000000000000000000000003c00000000000000000000000081a1e7f34b9babf172087cf5df8a4df6500e9d4d00000000000000000000000081a1e7f34b9babf172087cf5df8a4df6500e9d4d0000000000000000000000000000000000000000000000000000000000004e20",
        "0x0000000000000000000000000000000000000000000000000000000000000000",
        "0x0000000000000000000000000000000000000000000000000000000000000000"
      ],
      "transaction": {
        "type": "0x02",
        "from": "0x81a1e7f34b9babf172087cf5df8a4df6500e9d4d",
        "to": "0x6a135e498ed2171f908aeac875390e4383b54a68",
        "gas": "0x1c2b8",
        "value": "0x0",
        "data": "0x134008d30000000000000000000000009e09d9943b40685e8b78f6dc43069652dd6e6efd000000000000000000000000000000000000000000000000000000000000000000000000000000000000000000000000000000000000000000000000000000a00000000000000000000000000000000000000000000000000000000000000000000000000000000000000000000000000000000000000000000000000000000000000000000000000000000000000000000000000000000000000000000000e47170f03c00000000000000000000000091798c5923a3c7280f9b8c5c78cbf427a25b52e5000000000000000000000000beb59fe03e6057cedfd7b5b4d8fdda61975add2d0000000000000000000000000000000000000000000000000000000000004e20000000000000000000000000000000000000000000000000000000000000003c00000000000000000000000081a1e7f34b9babf172087cf5df8a4df6500e9d4d00000000000000000000000081a1e7f34b9babf172087cf5df8a4df6500e9d4d0000000000000000000000000000000000000000000000000000000000004e2000000000000000000000000000000000000000000000000000000000",
        "nonce": "0x22",
        "accessList": []
      },
      "additionalContracts": [],
      "isFixedGasLimit": false
    }
  ],
  "receipts": [],
  "libraries": [],
  "pending": [
    "0x45ee4f8425ce8fa582c29f403578b0cd1a5b0f35b4c3ffc9df643e1a3a3c67a6"
  ],
  "returns": {},
  "timestamp": 1710936401,
  "chain": 100,
  "multi": false,
  "commit": "b0a703f"
}