{
  "transactions": [
    {
      "hash": "0xb5e8a5bf9040d1964dec36dbf01dc2698ae07cf71f600ac0ee0a3b5358eb7f80",
      "transactionType": "CALL",
      "contractName": null,
      "contractAddress": "0x57769cbc17fbce61cb7c15319d68f2974fda06e0",
      "function": "execute(address,uint256,bytes,bytes32,bytes32)",
      "arguments": [
        "0xD0294EEE29287Bf69311552109F3FB84B3f2c1DC",
        "0",
        "0x7170f03c0000000000000000000000008c65404010892b265ff981c8789ce81e0385536b000000000000000000000000a9a1fc87a36bf5d4bebeba69e9e5caab3ee742fa0000000000000000000000000000000000000000000000000000000000004e20000000000000000000000000000000000000000000000000000000000000003c00000000000000000000000081a1e7f34b9babf172087cf5df8a4df6500e9d4d00000000000000000000000081a1e7f34b9babf172087cf5df8a4df6500e9d4d0000000000000000000000000000000000000000000000000000000000004e20",
        "0x0000000000000000000000000000000000000000000000000000000000000000",
        "0x0000000000000000000000000000000000000000000000000000000000000000"
      ],
      "transaction": {
        "from": "0x81a1e7f34b9babf172087cf5df8a4df6500e9d4d",
        "to": "0x57769cbc17fbce61cb7c15319d68f2974fda06e0",
        "gas": "0x1c9c0",
        "value": "0x0",
        "input": "0x134008d3000000000000000000000000d0294eee29287bf69311552109f3fb84b3f2c1dc000000000000000000000000000000000000000000000000000000000000000000000000000000000000000000000000000000000000000000000000000000a00000000000000000000000000000000000000000000000000000000000000000000000000000000000000000000000000000000000000000000000000000000000000000000000000000000000000000000000000000000000000000000000e47170f03c0000000000000000000000008c65404010892b265ff981c8789ce81e0385536b000000000000000000000000a9a1fc87a36bf5d4bebeba69e9e5caab3ee742fa0000000000000000000000000000000000000000000000000000000000004e20000000000000000000000000000000000000000000000000000000000000003c00000000000000000000000081a1e7f34b9babf172087cf5df8a4df6500e9d4d00000000000000000000000081a1e7f34b9babf172087cf5df8a4df6500e9d4d0000000000000000000000000000000000000000000000000000000000004e2000000000000000000000000000000000000000000000000000000000",
        "nonce": "0x79",
        "chainId": "0x64"
      },
      "additionalContracts": [],
      "isFixedGasLimit": false
    }
  ],
  "receipts": [
    {
      "status": "0x1",
      "cumulativeGasUsed": "0xfd35e",
      "logs": [
        {
          "address": "0xd0294eee29287bf69311552109f3fb84b3f2c1dc",
          "topics": [
            "0x848acd7079af2a323ca6b8a860068c114673abe038a880b126bf280c26032c04",
            "0x0000000000000000000000008c65404010892b265ff981c8789ce81e0385536b"
          ],
          "data": "0x000000000000000000000000a9a1fc87a36bf5d4bebeba69e9e5caab3ee742fa0000000000000000000000000000000000000000000000000000000000004e200000000000000000000000000000000000000000000000000000000000004e20000000000000000000000000000000000000000000000000000000000000003c00000000000000000000000081a1e7f34b9babf172087cf5df8a4df6500e9d4d00000000000000000000000081a1e7f34b9babf172087cf5df8a4df6500e9d4d",
          "blockHash": "0xb21ddcb00f2578875830b6765354004130d8b80e0316e6535ebd27826877c815",
          "blockNumber": "0x2065e6a",
          "transactionHash": "0xb5e8a5bf9040d1964dec36dbf01dc2698ae07cf71f600ac0ee0a3b5358eb7f80",
          "transactionIndex": "0x9",
          "logIndex": "0x97",
          "removed": false
        },
        {
          "address": "0x57769cbc17fbce61cb7c15319d68f2974fda06e0",
          "topics": [
            "0xc2617efa69bab66782fa219543714338489c4e9e178271560a91b82c3f612b58",
            "0xde0d1a33ce9ad3c73fc1d8170c7784564344d160e04fb18fe27e195e44edb16c",
            "0x0000000000000000000000000000000000000000000000000000000000000000"
          ],
          "data": "0x000000000000000000000000d0294eee29287bf69311552109f3fb84b3f2c1dc0000000000000000000000000000000000000000000000000000000000000000000000000000000000000000000000000000000000000000000000000000006000000000000000000000000000000000000000000000000000000000000000e47170f03c0000000000000000000000008c65404010892b265ff981c8789ce81e0385536b000000000000000000000000a9a1fc87a36bf5d4bebeba69e9e5caab3ee742fa0000000000000000000000000000000000000000000000000000000000004e20000000000000000000000000000000000000000000000000000000000000003c00000000000000000000000081a1e7f34b9babf172087cf5df8a4df6500e9d4d00000000000000000000000081a1e7f34b9babf172087cf5df8a4df6500e9d4d0000000000000000000000000000000000000000000000000000000000004e2000000000000000000000000000000000000000000000000000000000",
          "blockHash": "0xb21ddcb00f2578875830b6765354004130d8b80e0316e6535ebd27826877c815",
          "blockNumber": "0x2065e6a",
          "transactionHash": "0xb5e8a5bf9040d1964dec36dbf01dc2698ae07cf71f600ac0ee0a3b5358eb7f80",
          "transactionIndex": "0x9",
          "logIndex": "0x98",
          "removed": false
        }
      ],
      "logsBloom": "0x00100000000000000000000100000000000000000000002000000000000000000000000000000000000000000000000000800000000800000000000000000000000080000000000000000000000000000000000000000000000000000000002000000080020000000000000010000804000000000000000004000000020000000000000000000000000000000000000000000000000000000200000000000000000020000000000010000000000000000000000000000000000000000200000000000000000000080000000000000000000000000000000000000000000020000000000000000000000000000000000000000000000000000000000000000000",
      "type": "0x0",
      "transactionHash": "0xb5e8a5bf9040d1964dec36dbf01dc2698ae07cf71f600ac0ee0a3b5358eb7f80",
      "transactionIndex": "0x9",
      "blockHash": "0xb21ddcb00f2578875830b6765354004130d8b80e0316e6535ebd27826877c815",
      "blockNumber": "0x2065e6a",
      "gasUsed": "0x14b68",
      "effectiveGasPrice": "0x7ab3d47e",
      "from": "0x81a1e7f34b9babf172087cf5df8a4df6500e9d4d",
      "to": "0x57769cbc17fbce61cb7c15319d68f2974fda06e0",
      "contractAddress": null
    }
  ],
  "libraries": [],
  "pending": [],
  "returns": {},
  "timestamp": 1715850824,
  "chain": 100,
  "commit": "395fa72"
}