{
  "transactions": [
    {
      "hash": "0x45ee4f8425ce8fa582c29f403578b0cd1a5b0f35b4c3ffc9df643e1a3a3c67a6",
      "transactionType": "CALL",
      "contractName": "TimeLock",
      "contractAddress": "0x6a135E498eD2171f908aEAc875390E4383B54a68",
      "function": "execute(address,uint256,bytes,bytes32,bytes32)",
      "arguments": [
        "0x9E09D9943B40685e8B78f6DC43069652dd6E6efD",
        "0",
        "0x7170f03c00000000000000000000000091798c5923a3c7280f9b8c5c78cbf427a25b52e5000000000000000000000000beb59fe03e6057cedfd7b5b4d8fdda61975add2d0000000000000000000000000000000000000000000000000000000000004e20000000000000000000000000000000000000000000000000000000000000003c00000000000000000000000081a1e7f34b9babf172087cf5df8a4df6500e9d4d00000000000000000000000081a1e7f34b9babf172087cf5df8a4df6500e9d4d0000000000000000000000000000000000000000000000000000000000004e20",
        "0x0000000000000000000000000000000000000000000000000000000000000000",
        "0x0000000000000000000000000000000000000000000000000000000000000000"
      ],
      "transaction": {
        "type": "0x02",
        "from": "0x81a1e7f34b9babf172087cf5df8a4df6500e9d4d",
        "to": "0x6a135e498ed2171f908aeac875390e4383b54a68",
        "gas": "0x1c2b8",
        "value": "0x0",
        "data": "0x134008d30000000000000000000000009e09d9943b40685e8b78f6dc43069652dd6e6efd000000000000000000000000000000000000000000000000000000000000000000000000000000000000000000000000000000000000000000000000000000a00000000000000000000000000000000000000000000000000000000000000000000000000000000000000000000000000000000000000000000000000000000000000000000000000000000000000000000000000000000000000000000000e47170f03c00000000000000000000000091798c5923a3c7280f9b8c5c78cbf427a25b52e5000000000000000000000000beb59fe03e6057cedfd7b5b4d8fdda61975add2d0000000000000000000000000000000000000000000000000000000000004e20000000000000000000000000000000000000000000000000000000000000003c00000000000000000000000081a1e7f34b9babf172087cf5df8a4df6500e9d4d00000000000000000000000081a1e7f34b9babf172087cf5df8a4df6500e9d4d0000000000000000000000000000000000000000000000000000000000004e2000000000000000000000000000000000000000000000000000000000",
        "nonce": "0x22",
        "accessList": []
      },
      "additionalContracts": [],
      "isFixedGasLimit": false
    }
  ],
  "receipts": [
    {
      "transactionHash": "0x45ee4f8425ce8fa582c29f403578b0cd1a5b0f35b4c3ffc9df643e1a3a3c67a6",
      "transactionIndex": "0x3",
      "blockHash": "0xe9263273ededb0d783c279422b19eda7e8ffb421205efac980f7602056f10a16",
      "blockNumber": "0x1f7ec30",
      "from": "0x81a1e7F34b9bABf172087cF5df8A4DF6500e9d4d",
      "to": "0x6a135E498eD2171f908aEAc875390E4383B54a68",
      "cumulativeGasUsed": "0xbf427",
      "gasUsed": "0x14650",
      "contractAddress": null,
      "logs": [
        {
          "address": "0x9E09D9943B40685e8B78f6DC43069652dd6E6efD",
          "topics": [
            "0x848acd7079af2a323ca6b8a860068c114673abe038a880b126bf280c26032c04",
            "0x00000000000000000000000091798c5923a3c7280f9b8c5c78cbf427a25b52e5"
          ],
          "data": "0x000000000000000000000000beb59fe03e6057cedfd7b5b4d8fdda61975add2d0000000000000000000000000000000000000000000000000000000000004e200000000000000000000000000000000000000000000000000000000000004e20000000000000000000000000000000000000000000000000000000000000003c00000000000000000000000081a1e7f34b9babf172087cf5df8a4df6500e9d4d00000000000000000000000081a1e7f34b9babf172087cf5df8a4df6500e9d4d",
          "blockHash": "0xe9263273ededb0d783c279422b19eda7e8ffb421205efac980f7602056f10a16",
          "blockNumber": "0x1f7ec30",
          "transactionHash": "0x45ee4f8425ce8fa582c29f403578b0cd1a5b0f35b4c3ffc9df643e1a3a3c67a6",
          "transactionIndex": "0x3",
          "logIndex": "0x70",
          "removed": false
        },
        {
          "address": "0x6a135E498eD2171f908aEAc875390E4383B54a68",
          "topics": [
            "0xc2617efa69bab66782fa219543714338489c4e9e178271560a91b82c3f612b58",
            "0x2ef28d0d8043ca2759e23c1713dbf37301b368aac70701916e3a3d023ea50715",
            "0x0000000000000000000000000000000000000000000000000000000000000000"
          ],
          "data": "0x0000000000000000000000009e09d9943b40685e8b78f6dc43069652dd6e6efd0000000000000000000000000000000000000000000000000000000000000000000000000000000000000000000000000000000000000000000000000000006000000000000000000000000000000000000000000000000000000000000000e47170f03c00000000000000000000000091798c5923a3c7280f9b8c5c78cbf427a25b52e5000000000000000000000000beb59fe03e6057cedfd7b5b4d8fdda61975add2d0000000000000000000000000000000000000000000000000000000000004e20000000000000000000000000000000000000000000000000000000000000003c00000000000000000000000081a1e7f34b9babf172087cf5df8a4df6500e9d4d00000000000000000000000081a1e7f34b9babf172087cf5df8a4df6500e9d4d0000000000000000000000000000000000000000000000000000000000004e2000000000000000000000000000000000000000000000000000000000",
          "blockHash": "0xe9263273ededb0d783c279422b19eda7e8ffb421205efac980f7602056f10a16",
          "blockNumber": "0x1f7ec30",
          "transactionHash": "0x45ee4f8425ce8fa582c29f403578b0cd1a5b0f35b4c3ffc9df643e1a3a3c67a6",
          "transactionIndex": "0x3",
          "logIndex": "0x71",
          "removed": false
        }
      ],
      "status": "0x1",
      "logsBloom": "0x00000000001040000000000000000000000000000000000000000000000400000000000000000000000020000000000000000000000800000000000000000080000000000000000000000000000000000000000000000000000000000000002000000080020000100000000000000800001000000000000004200000000000000000000000000000000100000000000000000000001000000000000000000000000000000000000010000000000000000000000000000000000000000000000000000000000000080000000000020000000000000000000000002000000020000000000000000000000000000000000000000000000000000000000000000000",
      "type": "0x2",
      "effectiveGasPrice": "0xb2d05e13"
    }
  ],
  "libraries": [],
  "pending": [],
  "returns": {},
  "timestamp": 1710936408,
  "chain": 100,
  "multi": false,
  "commit": "b0a703f"
}