{
  "transactions": [
    {
      "hash": "0x48cd3383baffc99d35eb1045d1de80062173c05be77203a23025019a0252e8f2",
      "transactionType": "CALL",
      "contractName": null,
      "contractAddress": "0xb527cb6AD6A92041fA7bAFe41798F8c46f070a20",
      "function": "execute(address,uint256,bytes,bytes32,bytes32)",
      "arguments": [
        "0x9E09D9943B40685e8B78f6DC43069652dd6E6efD",
        "0",
        "0x7170f03c0000000000000000000000002b15756e32af0b47fb1d44db1f7b71feb457c5e7000000000000000000000000781a349e66cf9e909af1ecdefb75fc3b87e54d3a0000000000000000000000000000000000000000000000000000000000004e20000000000000000000000000000000000000000000000000000000000000003c00000000000000000000000081a1e7f34b9babf172087cf5df8a4df6500e9d4d00000000000000000000000081a1e7f34b9babf172087cf5df8a4df6500e9d4d0000000000000000000000000000000000000000000000000000000000004e20",
        "0x0000000000000000000000000000000000000000000000000000000000000000",
        "0x0000000000000000000000000000000000000000000000000000000000000000"
      ],
      "transaction": {
        "type": "0x02",
        "from": "0x81a1e7f34b9babf172087cf5df8a4df6500e9d4d",
        "to": "0xb527cb6ad6a92041fa7bafe41798f8c46f070a20",
        "gas": "0x1c2b8",
        "value": "0x0",
        "data": "0x134008d30000000000000000000000009e09d9943b40685e8b78f6dc43069652dd6e6efd000000000000000000000000000000000000000000000000000000000000000000000000000000000000000000000000000000000000000000000000000000a00000000000000000000000000000000000000000000000000000000000000000000000000000000000000000000000000000000000000000000000000000000000000000000000000000000000000000000000000000000000000000000000e47170f03c0000000000000000000000002b15756e32af0b47fb1d44db1f7b71feb457c5e7000000000000000000000000781a349e66cf9e909af1ecdefb75fc3b87e54d3a0000000000000000000000000000000000000000000000000000000000004e20000000000000000000000000000000000000000000000000000000000000003c00000000000000000000000081a1e7f34b9babf172087cf5df8a4df6500e9d4d00000000000000000000000081a1e7f34b9babf172087cf5df8a4df6500e9d4d0000000000000000000000000000000000000000000000000000000000004e2000000000000000000000000000000000000000000000000000000000",
        "nonce": "0x3c",
        "accessList": []
      },
      "additionalContracts": [],
      "isFixedGasLimit": false
    }
  ],
  "receipts": [
    {
      "transactionHash": "0x48cd3383baffc99d35eb1045d1de80062173c05be77203a23025019a0252e8f2",
      "transactionIndex": "0x7",
      "blockHash": "0xe6eee3adc04027091bde2b52d629d4030f4f422641ca587f63b3ed698a067d1f",
      "blockNumber": "0x1fe7aa5",
      "from": "0x81a1e7F34b9bABf172087cF5df8A4DF6500e9d4d",
      "to": "0xb527cb6AD6A92041fA7bAFe41798F8c46f070a20",
      "cumulativeGasUsed": "0x107b5f",
      "gasUsed": "0x14650",
      "contractAddress": null,
      "logs": [
        {
          "address": "0x9E09D9943B40685e8B78f6DC43069652dd6E6efD",
          "topics": [
            "0x848acd7079af2a323ca6b8a860068c114673abe038a880b126bf280c26032c04",
            "0x0000000000000000000000002b15756e32af0b47fb1d44db1f7b71feb457c5e7"
          ],
          "data": "0x000000000000000000000000781a349e66cf9e909af1ecdefb75fc3b87e54d3a0000000000000000000000000000000000000000000000000000000000004e200000000000000000000000000000000000000000000000000000000000004e20000000000000000000000000000000000000000000000000000000000000003c00000000000000000000000081a1e7f34b9babf172087cf5df8a4df6500e9d4d00000000000000000000000081a1e7f34b9babf172087cf5df8a4df6500e9d4d",
          "blockHash": "0xe6eee3adc04027091bde2b52d629d4030f4f422641ca587f63b3ed698a067d1f",
          "blockNumber": "0x1fe7aa5",
          "transactionHash": "0x48cd3383baffc99d35eb1045d1de80062173c05be77203a23025019a0252e8f2",
          "transactionIndex": "0x7",
          "logIndex": "0x27",
          "removed": false
        },
        {
          "address": "0xb527cb6AD6A92041fA7bAFe41798F8c46f070a20",
          "topics": [
            "0xc2617efa69bab66782fa219543714338489c4e9e178271560a91b82c3f612b58",
            "0x40f7980a7f7472341d9713a09f35efb951b7277c67a36942d46cdc2f60f4a7f6",
            "0x0000000000000000000000000000000000000000000000000000000000000000"
          ],
          "data": "0x0000000000000000000000009e09d9943b40685e8b78f6dc43069652dd6e6efd0000000000000000000000000000000000000000000000000000000000000000000000000000000000000000000000000000000000000000000000000000006000000000000000000000000000000000000000000000000000000000000000e47170f03c0000000000000000000000002b15756e32af0b47fb1d44db1f7b71feb457c5e7000000000000000000000000781a349e66cf9e909af1ecdefb75fc3b87e54d3a0000000000000000000000000000000000000000000000000000000000004e20000000000000000000000000000000000000000000000000000000000000003c00000000000000000000000081a1e7f34b9babf172087cf5df8a4df6500e9d4d00000000000000000000000081a1e7f34b9babf172087cf5df8a4df6500e9d4d0000000000000000000000000000000000000000000000000000000000004e2000000000000000000000000000000000000000000000000000000000",
          "blockHash": "0xe6eee3adc04027091bde2b52d629d4030f4f422641ca587f63b3ed698a067d1f",
          "blockNumber": "0x1fe7aa5",
          "transactionHash": "0x48cd3383baffc99d35eb1045d1de80062173c05be77203a23025019a0252e8f2",
          "transactionIndex": "0x7",
          "logIndex": "0x28",
          "removed": false
        }
      ],
      "status": "0x1",
      "logsBloom": "0x000000000000000000000000000000000000000000000000000000000000000000010084000000000000000000000000000000000008000000000000000000c0000000000000000000000000000000000000000000000000000000000000002000000080020000000000000000000800000000000000000004200000000000000000000000000000000000000000000000000000001000000000000000000004000000000000000010000000000000000000000000000000000000000000000000000000000000080000000000000000000000000000000000000000000020000000000000000000000001020000000000000000000000000000000000000080",
      "type": "0x2",
      "effectiveGasPrice": "0xb2d05e0a"
    }
  ],
  "libraries": [],
  "pending": [],
  "returns": {},
  "timestamp": 1713178392,
  "chain": 100,
  "commit": "fc570f4"
}