{
  "transactions": [
    {
      "hash": "0x12a1b4d5b1003348e9862ea34b10cc3655b2081834f5543f10fae50bc013c908",
      "transactionType": "CALL",
      "contractName": "TimeLock",
      "contractAddress": "0x119e26B6D72376Ac741d5546eA295d1A0160E26c",
      "function": "execute(address,uint256,bytes,bytes32,bytes32)",
      "arguments": [
        "0xb6F7f65a5cc81B5dA5E9aB58FB37Cb174f4Fb3ca",
        "0",
        "0x7170f03c0000000000000000000000008ce9786dc4bbb558c1f219f10b1f2f70a6ced7ec000000000000000000000000cd3b683c6514e94a48d7993544c199341fcdd14e0000000000000000000000000000000000000000000000000000000000004e20000000000000000000000000000000000000000000000000000000000000003c00000000000000000000000081a1e7f34b9babf172087cf5df8a4df6500e9d4d00000000000000000000000081a1e7f34b9babf172087cf5df8a4df6500e9d4d0000000000000000000000000000000000000000000000000000000000004e20",
        "0x0000000000000000000000000000000000000000000000000000000000000000",
        "0x0000000000000000000000000000000000000000000000000000000000000000"
      ],
      "transaction": {
        "type": "0x02",
        "from": "0x81a1e7f34b9babf172087cf5df8a4df6500e9d4d",
        "to": "0x119e26b6d72376ac741d5546ea295d1a0160e26c",
        "gas": "0x1c1f6",
        "value": "0x0",
        "data": "0x134008d3000000000000000000000000b6f7f65a5cc81b5da5e9ab58fb37cb174f4fb3ca000000000000000000000000000000000000000000000000000000000000000000000000000000000000000000000000000000000000000000000000000000a00000000000000000000000000000000000000000000000000000000000000000000000000000000000000000000000000000000000000000000000000000000000000000000000000000000000000000000000000000000000000000000000e47170f03c0000000000000000000000008ce9786dc4bbb558c1f219f10b1f2f70a6ced7ec000000000000000000000000cd3b683c6514e94a48d7993544c199341fcdd14e0000000000000000000000000000000000000000000000000000000000004e20000000000000000000000000000000000000000000000000000000000000003c00000000000000000000000081a1e7f34b9babf172087cf5df8a4df6500e9d4d00000000000000000000000081a1e7f34b9babf172087cf5df8a4df6500e9d4d0000000000000000000000000000000000000000000000000000000000004e2000000000000000000000000000000000000000000000000000000000",
        "nonce": "0x5c",
        "accessList": []
      },
      "additionalContracts": [],
      "isFixedGasLimit": false
    }
  ],
  "receipts": [
    {
      "transactionHash": "0x12a1b4d5b1003348e9862ea34b10cc3655b2081834f5543f10fae50bc013c908",
      "transactionIndex": "0xa",
      "blockHash": "0x97812896f259344e9da11b1a353be50404009f0a9b7b38617c8f39878ec037e4",
      "blockNumber": "0x1ff0534",
      "from": "0x81a1e7F34b9bABf172087cF5df8A4DF6500e9d4d",
      "to": "0x119e26B6D72376Ac741d5546eA295d1A0160E26c",
      "cumulativeGasUsed": "0x569148",
      "gasUsed": "0x145c4",
      "contractAddress": null,
      "logs": [
        {
          "address": "0xb6F7f65a5cc81B5dA5E9aB58FB37Cb174f4Fb3ca",
          "topics": [
            "0x848acd7079af2a323ca6b8a860068c114673abe038a880b126bf280c26032c04",
            "0x0000000000000000000000008ce9786dc4bbb558c1f219f10b1f2f70a6ced7ec"
          ],
          "data": "0x000000000000000000000000cd3b683c6514e94a48d7993544c199341fcdd14e0000000000000000000000000000000000000000000000000000000000004e200000000000000000000000000000000000000000000000000000000000004e20000000000000000000000000000000000000000000000000000000000000003c00000000000000000000000081a1e7f34b9babf172087cf5df8a4df6500e9d4d00000000000000000000000081a1e7f34b9babf172087cf5df8a4df6500e9d4d",
          "blockHash": "0x97812896f259344e9da11b1a353be50404009f0a9b7b38617c8f39878ec037e4",
          "blockNumber": "0x1ff0534",
          "transactionHash": "0x12a1b4d5b1003348e9862ea34b10cc3655b2081834f5543f10fae50bc013c908",
          "transactionIndex": "0xa",
          "logIndex": "0x3ed",
          "removed": false
        },
        {
          "address": "0x119e26B6D72376Ac741d5546eA295d1A0160E26c",
          "topics": [
            "0xc2617efa69bab66782fa219543714338489c4e9e178271560a91b82c3f612b58",
            "0xaf7cb7f1d2b7dc40a0e5d599280af43c726e9030f4fe5ff9884d8bece37aa852",
            "0x0000000000000000000000000000000000000000000000000000000000000000"
          ],
          "data": "0x000000000000000000000000b6f7f65a5cc81b5da5e9ab58fb37cb174f4fb3ca0000000000000000000000000000000000000000000000000000000000000000000000000000000000000000000000000000000000000000000000000000006000000000000000000000000000000000000000000000000000000000000000e47170f03c0000000000000000000000008ce9786dc4bbb558c1f219f10b1f2f70a6ced7ec000000000000000000000000cd3b683c6514e94a48d7993544c199341fcdd14e0000000000000000000000000000000000000000000000000000000000004e20000000000000000000000000000000000000000000000000000000000000003c00000000000000000000000081a1e7f34b9babf172087cf5df8a4df6500e9d4d00000000000000000000000081a1e7f34b9babf172087cf5df8a4df6500e9d4d0000000000000000000000000000000000000000000000000000000000004e2000000000000000000000000000000000000000000000000000000000",
          "blockHash": "0x97812896f259344e9da11b1a353be50404009f0a9b7b38617c8f39878ec037e4",
          "blockNumber": "0x1ff0534",
          "transactionHash": "0x12a1b4d5b1003348e9862ea34b10cc3655b2081834f5543f10fae50bc013c908",
          "transactionIndex": "0xa",
          "logIndex": "0x3ee",
          "removed": false
        }
      ],
      "status": "0x1",
      "logsBloom": "0x00000000010000000000000000000000000000000000000000000000000008000080000000000000000000000000800000000000000800000000000000000000000000000000000000000000000000000000000000000000000000000000002004000080020000000000000000000800000000800000000006000000000000002000040000000000000000000000000000000000000000000000000000000000000000000000000010000000000000000000000000000000000000000000000000000000000000080001000000000000000000000000000800000000000020000000000000400000000000000000000000000000000000000000000000000000",
      "type": "0x2",
      "effectiveGasPrice": "0xb2d05e0f"
    }
  ],
  "libraries": [],
  "pending": [],
  "returns": {},
  "timestamp": 1713361606,
  "chain": 100,
  "commit": "82b2400"
}