{
  "transactions": [
    {
      "hash": "0x6a93ca877bee9aae79a5ba3d78222c4ddecedf03d815901749042d9840c4aab4",
      "transactionType": "CALL",
      "contractName": "TimeLock",
      "contractAddress": "0xD41479D3f6c42cF6F532DF0F64Ca132342661f07",
      "function": "execute(address,uint256,bytes,bytes32,bytes32)",
      "arguments": [
        "0x9E09D9943B40685e8B78f6DC43069652dd6E6efD",
        "0",
        "0x7170f03c00000000000000000000000089ea626ecac279a535ec7ba6ab1fe0ab6a4eb4400000000000000000000000004409d89ab5332b6fb71b5d74d3ee94171a8890410000000000000000000000000000000000000000000000000000000000004e20000000000000000000000000000000000000000000000000000000000000003c00000000000000000000000081a1e7f34b9babf172087cf5df8a4df6500e9d4d00000000000000000000000081a1e7f34b9babf172087cf5df8a4df6500e9d4d0000000000000000000000000000000000000000000000000000000000004e20",
        "0x0000000000000000000000000000000000000000000000000000000000000000",
        "0x0000000000000000000000000000000000000000000000000000000000000000"
      ],
      "transaction": {
        "type": "0x02",
        "from": "0x81a1e7f34b9babf172087cf5df8a4df6500e9d4d",
        "to": "0xd41479d3f6c42cf6f532df0f64ca132342661f07",
        "gas": "0x1c2b8",
        "value": "0x0",
        "data": "0x134008d30000000000000000000000009e09d9943b40685e8b78f6dc43069652dd6e6efd000000000000000000000000000000000000000000000000000000000000000000000000000000000000000000000000000000000000000000000000000000a00000000000000000000000000000000000000000000000000000000000000000000000000000000000000000000000000000000000000000000000000000000000000000000000000000000000000000000000000000000000000000000000e47170f03c00000000000000000000000089ea626ecac279a535ec7ba6ab1fe0ab6a4eb4400000000000000000000000004409d89ab5332b6fb71b5d74d3ee94171a8890410000000000000000000000000000000000000000000000000000000000004e20000000000000000000000000000000000000000000000000000000000000003c00000000000000000000000081a1e7f34b9babf172087cf5df8a4df6500e9d4d00000000000000000000000081a1e7f34b9babf172087cf5df8a4df6500e9d4d0000000000000000000000000000000000000000000000000000000000004e2000000000000000000000000000000000000000000000000000000000",
        "nonce": "0x28",
        "accessList": []
      },
      "additionalContracts": [],
      "isFixedGasLimit": false
    }
  ],
  "receipts": [],
  "libraries": [],
  "pending": [
    "0x6a93ca877bee9aae79a5ba3d78222c4ddecedf03d815901749042d9840c4aab4"
  ],
  "returns": {},
  "timestamp": 1711459203,
  "chain": 100,
  "multi": false,
  "commit": "b0a703f"
}