{
  "transactions": [
    {
      "hash": "0x2924c5f23b362ec80f4b564f5b2bb16f4c688cfc201233edbcb5c083e1f38782",
      "transactionType": "CALL",
      "contractName": null,
      "contractAddress": "0x6A023CCd1ff6F2045C3309768eAd9E68F978f6e1",
      "function": "approve(address,uint256)",
      "arguments": [
        "0xb0A76A387f1Fc9433Ad1E244C530548C872d7932",
        "153000000000000"
      ],
      "transaction": {
        "type": "0x02",
        "from": "0x81a1e7f34b9babf172087cf5df8a4df6500e9d4d",
        "to": "0x6a023ccd1ff6f2045c3309768ead9e68f978f6e1",
        "gas": "0x115a1",
        "value": "0x0",
        "data": "0x095ea7b3000000000000000000000000b0a76a387f1fc9433ad1e244c530548c872d793200000000000000000000000000000000000000000000000000008b2716a69000",
        "nonce": "0x58",
        "accessList": []
      },
      "additionalContracts": [],
      "isFixedGasLimit": false
    },
    {
      "hash": "0xbfd12f4e17524d30e3ee830820ee8eeeaeb06a05f260cde917dc8053c88ea83d",
      "transactionType": "CALL",
      "contractName": null,
      "contractAddress": "0xDDAfbb505ad214D7b80b1f830fcCc89B60fb7A83",
      "function": "approve(address,uint256)",
      "arguments": [
        "0xb0A76A387f1Fc9433Ad1E244C530548C872d7932",
        "489600"
      ],
      "transaction": {
        "type": "0x02",
        "from": "0x81a1e7f34b9babf172087cf5df8a4df6500e9d4d",
        "to": "0xddafbb505ad214d7b80b1f830fccc89b60fb7a83",
        "gas": "0x1157f",
        "value": "0x0",
        "data": "0x095ea7b3000000000000000000000000b0a76a387f1fc9433ad1e244c530548c872d79320000000000000000000000000000000000000000000000000000000000077880",
        "nonce": "0x59",
        "accessList": []
      },
      "additionalContracts": [],
      "isFixedGasLimit": false
    },
    {
      "hash": "0x468dd337b2421ba84bbb5a64f928224b510ff6eebd3836b7ceddd4b7cc655480",
      "transactionType": "CALL",
      "contractName": "ArrakisMetaVaultPublic",
      "contractAddress": "0x8cE9786dc4bbB558C1F219f10b1F2f70A6Ced7eC",
      "function": "mint(uint256,address)",
      "arguments": [
        "153000000000000",
        "0x81a1e7F34b9bABf172087cF5df8A4DF6500e9d4d"
      ],
      "transaction": {
        "type": "0x02",
        "from": "0x81a1e7f34b9babf172087cf5df8a4df6500e9d4d",
        "to": "0x8ce9786dc4bbb558c1f219f10b1f2f70a6ced7ec",
        "gas": "0x9a644",
        "value": "0x0",
        "data": "0x94bf804d00000000000000000000000000000000000000000000000000008b2716a6900000000000000000000000000081a1e7f34b9babf172087cf5df8a4df6500e9d4d",
        "nonce": "0x5a",
        "accessList": []
      },
      "additionalContracts": [],
      "isFixedGasLimit": false
    }
  ],
  "receipts": [
    {
      "transactionHash": "0x2924c5f23b362ec80f4b564f5b2bb16f4c688cfc201233edbcb5c083e1f38782",
      "transactionIndex": "0x4",
      "blockHash": "0x392e494fd6301b3fd8b3610b27470d2a274db9550031d50c025f9aa816ebabfa",
      "blockNumber": "0x1ff03f4",
      "from": "0x81a1e7F34b9bABf172087cF5df8A4DF6500e9d4d",
      "to": "0x6A023CCd1ff6F2045C3309768eAd9E68F978f6e1",
      "cumulativeGasUsed": "0x7d1d0b",
      "gasUsed": "0xc900",
      "contractAddress": null,
      "logs": [
        {
          "address": "0x6A023CCd1ff6F2045C3309768eAd9E68F978f6e1",
          "topics": [
            "0x8c5be1e5ebec7d5bd14f71427d1e84f3dd0314c0f7b2291e5b200ac8c7c3b925",
            "0x00000000000000000000000081a1e7f34b9babf172087cf5df8a4df6500e9d4d",
            "0x000000000000000000000000b0a76a387f1fc9433ad1e244c530548c872d7932"
          ],
          "data": "0x00000000000000000000000000000000000000000000000000008b2716a69000",
          "blockHash": "0x392e494fd6301b3fd8b3610b27470d2a274db9550031d50c025f9aa816ebabfa",
          "blockNumber": "0x1ff03f4",
          "transactionHash": "0x2924c5f23b362ec80f4b564f5b2bb16f4c688cfc201233edbcb5c083e1f38782",
          "transactionIndex": "0x4",
          "logIndex": "0x7da",
          "removed": false
        }
      ],
      "status": "0x1",
      "logsBloom": "0x00000000000000000000000000000000000000000000000000000100000000000000000000000000020100000000000000000000000000000000000000220000000000000000000000000000000000000000000000000000000000000000000000000000000000000000000000000000000000000000000000000000000000000000000000000000000000000000000000000000000000000000000000008000020000000000000000000000000000000000000000000000000000000000000044000002000000000000000000000000000000000000000000000000000000000010000000000000000000000000000000000000000000004000000000000000",
      "type": "0x2",
      "effectiveGasPrice": "0xb2d05f08"
    },
    {
      "transactionHash": "0xbfd12f4e17524d30e3ee830820ee8eeeaeb06a05f260cde917dc8053c88ea83d",
      "transactionIndex": "0x5",
      "blockHash": "0x392e494fd6301b3fd8b3610b27470d2a274db9550031d50c025f9aa816ebabfa",
      "blockNumber": "0x1ff03f4",
      "from": "0x81a1e7F34b9bABf172087cF5df8A4DF6500e9d4d",
      "to": "0xDDAfbb505ad214D7b80b1f830fcCc89B60fb7A83",
      "cumulativeGasUsed": "0x7de5f3",
      "gasUsed": "0xc8e8",
      "contractAddress": null,
      "logs": [
        {
          "address": "0xDDAfbb505ad214D7b80b1f830fcCc89B60fb7A83",
          "topics": [
            "0x8c5be1e5ebec7d5bd14f71427d1e84f3dd0314c0f7b2291e5b200ac8c7c3b925",
            "0x00000000000000000000000081a1e7f34b9babf172087cf5df8a4df6500e9d4d",
            "0x000000000000000000000000b0a76a387f1fc9433ad1e244c530548c872d7932"
          ],
          "data": "0x0000000000000000000000000000000000000000000000000000000000077880",
          "blockHash": "0x392e494fd6301b3fd8b3610b27470d2a274db9550031d50c025f9aa816ebabfa",
          "blockNumber": "0x1ff03f4",
          "transactionHash": "0xbfd12f4e17524d30e3ee830820ee8eeeaeb06a05f260cde917dc8053c88ea83d",
          "transactionIndex": "0x5",
          "logIndex": "0x7db",
          "removed": false
        }
      ],
      "status": "0x1",
      "logsBloom": "0x00000000000000000000000000000000000000000000000000000100000000000000000000000000020100000000000000000000000000000000000000220000000000000000000000000000000000000000000000000000000000000000000000000000000000000000000000000000000000000000000000000000000000000000000000000000000000800000000000000000000000000000000000000000020000000000000000000000000000000000000000000000000000000000000000000002000000000000000000000004000000000000000000000000000000000010000000000000000000000000000000000000400000004000000000000000",
      "type": "0x2",
      "effectiveGasPrice": "0xb2d05f08"
    },
    {
      "transactionHash": "0x468dd337b2421ba84bbb5a64f928224b510ff6eebd3836b7ceddd4b7cc655480",
      "transactionIndex": "0x6",
      "blockHash": "0x392e494fd6301b3fd8b3610b27470d2a274db9550031d50c025f9aa816ebabfa",
      "blockNumber": "0x1ff03f4",
      "from": "0x81a1e7F34b9bABf172087cF5df8A4DF6500e9d4d",
      "to": "0x8cE9786dc4bbB558C1F219f10b1F2f70A6Ced7eC",
      "cumulativeGasUsed": "0x847f06",
      "gasUsed": "0x69913",
      "contractAddress": null,
      "logs": [
        {
          "address": "0x8cE9786dc4bbB558C1F219f10b1F2f70A6Ced7eC",
          "topics": [
            "0xddf252ad1be2c89b69c2b068fc378daa952ba7f163c4a11628f55a4df523b3ef",
            "0x0000000000000000000000000000000000000000000000000000000000000000",
            "0x0000000000000000000000000000000000000000000000000000000000000000"
          ],
          "data": "0x00000000000000000000000000000000000000000000000000000000000003e8",
          "blockHash": "0x392e494fd6301b3fd8b3610b27470d2a274db9550031d50c025f9aa816ebabfa",
          "blockNumber": "0x1ff03f4",
          "transactionHash": "0x468dd337b2421ba84bbb5a64f928224b510ff6eebd3836b7ceddd4b7cc655480",
          "transactionIndex": "0x6",
          "logIndex": "0x7dc",
          "removed": false
        },
        {
          "address": "0x8cE9786dc4bbB558C1F219f10b1F2f70A6Ced7eC",
          "topics": [
            "0xddf252ad1be2c89b69c2b068fc378daa952ba7f163c4a11628f55a4df523b3ef",
            "0x0000000000000000000000000000000000000000000000000000000000000000",
            "0x00000000000000000000000081a1e7f34b9babf172087cf5df8a4df6500e9d4d"
          ],
          "data": "0x00000000000000000000000000000000000000000000000000008b2716a68c18",
          "blockHash": "0x392e494fd6301b3fd8b3610b27470d2a274db9550031d50c025f9aa816ebabfa",
          "blockNumber": "0x1ff03f4",
          "transactionHash": "0x468dd337b2421ba84bbb5a64f928224b510ff6eebd3836b7ceddd4b7cc655480",
          "transactionIndex": "0x6",
          "logIndex": "0x7dd",
          "removed": false
        },
        {
          "address": "0x6A023CCd1ff6F2045C3309768eAd9E68F978f6e1",
          "topics": [
            "0xddf252ad1be2c89b69c2b068fc378daa952ba7f163c4a11628f55a4df523b3ef",
            "0x00000000000000000000000081a1e7f34b9babf172087cf5df8a4df6500e9d4d",
            "0x000000000000000000000000b0a76a387f1fc9433ad1e244c530548c872d7932"
          ],
          "data": "0x00000000000000000000000000000000000000000000000000008b2716a69000",
          "blockHash": "0x392e494fd6301b3fd8b3610b27470d2a274db9550031d50c025f9aa816ebabfa",
          "blockNumber": "0x1ff03f4",
          "transactionHash": "0x468dd337b2421ba84bbb5a64f928224b510ff6eebd3836b7ceddd4b7cc655480",
          "transactionIndex": "0x6",
          "logIndex": "0x7de",
          "removed": false
        },
        {
          "address": "0x6A023CCd1ff6F2045C3309768eAd9E68F978f6e1",
          "topics": [
            "0x8c5be1e5ebec7d5bd14f71427d1e84f3dd0314c0f7b2291e5b200ac8c7c3b925",
            "0x00000000000000000000000081a1e7f34b9babf172087cf5df8a4df6500e9d4d",
            "0x000000000000000000000000b0a76a387f1fc9433ad1e244c530548c872d7932"
          ],
          "data": "0x0000000000000000000000000000000000000000000000000000000000000000",
          "blockHash": "0x392e494fd6301b3fd8b3610b27470d2a274db9550031d50c025f9aa816ebabfa",
          "blockNumber": "0x1ff03f4",
          "transactionHash": "0x468dd337b2421ba84bbb5a64f928224b510ff6eebd3836b7ceddd4b7cc655480",
          "transactionIndex": "0x6",
          "logIndex": "0x7df",
          "removed": false
        },
        {
          "address": "0xDDAfbb505ad214D7b80b1f830fcCc89B60fb7A83",
          "topics": [
            "0xddf252ad1be2c89b69c2b068fc378daa952ba7f163c4a11628f55a4df523b3ef",
            "0x00000000000000000000000081a1e7f34b9babf172087cf5df8a4df6500e9d4d",
            "0x000000000000000000000000b0a76a387f1fc9433ad1e244c530548c872d7932"
          ],
          "data": "0x0000000000000000000000000000000000000000000000000000000000077880",
          "blockHash": "0x392e494fd6301b3fd8b3610b27470d2a274db9550031d50c025f9aa816ebabfa",
          "blockNumber": "0x1ff03f4",
          "transactionHash": "0x468dd337b2421ba84bbb5a64f928224b510ff6eebd3836b7ceddd4b7cc655480",
          "transactionIndex": "0x6",
          "logIndex": "0x7e0",
          "removed": false
        },
        {
          "address": "0xDDAfbb505ad214D7b80b1f830fcCc89B60fb7A83",
          "topics": [
            "0x8c5be1e5ebec7d5bd14f71427d1e84f3dd0314c0f7b2291e5b200ac8c7c3b925",
            "0x00000000000000000000000081a1e7f34b9babf172087cf5df8a4df6500e9d4d",
            "0x000000000000000000000000b0a76a387f1fc9433ad1e244c530548c872d7932"
          ],
          "data": "0x0000000000000000000000000000000000000000000000000000000000000000",
          "blockHash": "0x392e494fd6301b3fd8b3610b27470d2a274db9550031d50c025f9aa816ebabfa",
          "blockNumber": "0x1ff03f4",
          "transactionHash": "0x468dd337b2421ba84bbb5a64f928224b510ff6eebd3836b7ceddd4b7cc655480",
          "transactionIndex": "0x6",
          "logIndex": "0x7e1",
          "removed": false
        },
        {
          "address": "0x6A023CCd1ff6F2045C3309768eAd9E68F978f6e1",
          "topics": [
            "0x8c5be1e5ebec7d5bd14f71427d1e84f3dd0314c0f7b2291e5b200ac8c7c3b925",
            "0x000000000000000000000000b0a76a387f1fc9433ad1e244c530548c872d7932",
            "0x000000000000000000000000614b8b047cafec2fcfc788dd4afe9e32fe924cd0"
          ],
          "data": "0x00000000000000000000000000000000000000000000000000008b2716a69000",
          "blockHash": "0x392e494fd6301b3fd8b3610b27470d2a274db9550031d50c025f9aa816ebabfa",
          "blockNumber": "0x1ff03f4",
          "transactionHash": "0x468dd337b2421ba84bbb5a64f928224b510ff6eebd3836b7ceddd4b7cc655480",
          "transactionIndex": "0x6",
          "logIndex": "0x7e2",
          "removed": false
        },
        {
          "address": "0xDDAfbb505ad214D7b80b1f830fcCc89B60fb7A83",
          "topics": [
            "0x8c5be1e5ebec7d5bd14f71427d1e84f3dd0314c0f7b2291e5b200ac8c7c3b925",
            "0x000000000000000000000000b0a76a387f1fc9433ad1e244c530548c872d7932",
            "0x000000000000000000000000614b8b047cafec2fcfc788dd4afe9e32fe924cd0"
          ],
          "data": "0x0000000000000000000000000000000000000000000000000000000000077880",
          "blockHash": "0x392e494fd6301b3fd8b3610b27470d2a274db9550031d50c025f9aa816ebabfa",
          "blockNumber": "0x1ff03f4",
          "transactionHash": "0x468dd337b2421ba84bbb5a64f928224b510ff6eebd3836b7ceddd4b7cc655480",
          "transactionIndex": "0x6",
          "logIndex": "0x7e3",
          "removed": false
        },
        {
          "address": "0x6A023CCd1ff6F2045C3309768eAd9E68F978f6e1",
          "topics": [
            "0xddf252ad1be2c89b69c2b068fc378daa952ba7f163c4a11628f55a4df523b3ef",
            "0x000000000000000000000000b0a76a387f1fc9433ad1e244c530548c872d7932",
            "0x00000000000000000000000069abfae29aa7a1cac061d3e05eee806291a4db87"
          ],
          "data": "0x00000000000000000000000000000000000000000000000000008b2716a69000",
          "blockHash": "0x392e494fd6301b3fd8b3610b27470d2a274db9550031d50c025f9aa816ebabfa",
          "blockNumber": "0x1ff03f4",
          "transactionHash": "0x468dd337b2421ba84bbb5a64f928224b510ff6eebd3836b7ceddd4b7cc655480",
          "transactionIndex": "0x6",
          "logIndex": "0x7e4",
          "removed": false
        },
        {
          "address": "0x6A023CCd1ff6F2045C3309768eAd9E68F978f6e1",
          "topics": [
            "0x8c5be1e5ebec7d5bd14f71427d1e84f3dd0314c0f7b2291e5b200ac8c7c3b925",
            "0x000000000000000000000000b0a76a387f1fc9433ad1e244c530548c872d7932",
            "0x000000000000000000000000614b8b047cafec2fcfc788dd4afe9e32fe924cd0"
          ],
          "data": "0x0000000000000000000000000000000000000000000000000000000000000000",
          "blockHash": "0x392e494fd6301b3fd8b3610b27470d2a274db9550031d50c025f9aa816ebabfa",
          "blockNumber": "0x1ff03f4",
          "transactionHash": "0x468dd337b2421ba84bbb5a64f928224b510ff6eebd3836b7ceddd4b7cc655480",
          "transactionIndex": "0x6",
          "logIndex": "0x7e5",
          "removed": false
        },
        {
          "address": "0xDDAfbb505ad214D7b80b1f830fcCc89B60fb7A83",
          "topics": [
            "0xddf252ad1be2c89b69c2b068fc378daa952ba7f163c4a11628f55a4df523b3ef",
            "0x000000000000000000000000b0a76a387f1fc9433ad1e244c530548c872d7932",
            "0x00000000000000000000000069abfae29aa7a1cac061d3e05eee806291a4db87"
          ],
          "data": "0x0000000000000000000000000000000000000000000000000000000000077880",
          "blockHash": "0x392e494fd6301b3fd8b3610b27470d2a274db9550031d50c025f9aa816ebabfa",
          "blockNumber": "0x1ff03f4",
          "transactionHash": "0x468dd337b2421ba84bbb5a64f928224b510ff6eebd3836b7ceddd4b7cc655480",
          "transactionIndex": "0x6",
          "logIndex": "0x7e6",
          "removed": false
        },
        {
          "address": "0xDDAfbb505ad214D7b80b1f830fcCc89B60fb7A83",
          "topics": [
            "0x8c5be1e5ebec7d5bd14f71427d1e84f3dd0314c0f7b2291e5b200ac8c7c3b925",
            "0x000000000000000000000000b0a76a387f1fc9433ad1e244c530548c872d7932",
            "0x000000000000000000000000614b8b047cafec2fcfc788dd4afe9e32fe924cd0"
          ],
          "data": "0x0000000000000000000000000000000000000000000000000000000000000000",
          "blockHash": "0x392e494fd6301b3fd8b3610b27470d2a274db9550031d50c025f9aa816ebabfa",
          "blockNumber": "0x1ff03f4",
          "transactionHash": "0x468dd337b2421ba84bbb5a64f928224b510ff6eebd3836b7ceddd4b7cc655480",
          "transactionIndex": "0x6",
          "logIndex": "0x7e7",
          "removed": false
        },
        {
          "address": "0x69aBfAE29aA7a1CAC061D3e05Eee806291A4dB87",
          "topics": [
            "0x5b479c5a76f3eddfff87849b354aee2a3fbdafd3c2c1a95561143bd2ec1f1e64"
          ],
          "data": "0x00000000000000000000000000000000000000000000000000008b2716a690000000000000000000000000000000000000000000000000000000000000077880",
          "blockHash": "0x392e494fd6301b3fd8b3610b27470d2a274db9550031d50c025f9aa816ebabfa",
          "blockNumber": "0x1ff03f4",
          "transactionHash": "0x468dd337b2421ba84bbb5a64f928224b510ff6eebd3836b7ceddd4b7cc655480",
          "transactionIndex": "0x6",
          "logIndex": "0x7e8",
          "removed": false
        },
        {
          "address": "0x614b8B047cAfEc2Fcfc788dd4aFE9e32fe924Cd0",
          "topics": [
            "0xf6fb7b9b835c077917267172dcabe98caab0f1ad2cede08ca28901646ed46d11"
          ],
          "data": "0x0000000000000000000000000000000000000000000000000000000f0a84be89",
          "blockHash": "0x392e494fd6301b3fd8b3610b27470d2a274db9550031d50c025f9aa816ebabfa",
          "blockNumber": "0x1ff03f4",
          "transactionHash": "0x468dd337b2421ba84bbb5a64f928224b510ff6eebd3836b7ceddd4b7cc655480",
          "transactionIndex": "0x6",
          "logIndex": "0x7e9",
          "removed": false
        },
        {
          "address": "0xb0A76A387f1Fc9433Ad1E244C530548C872d7932",
          "topics": [
            "0x4b2bcb0ca50531683faa51870e1018aa0d7272c7f2acc5399389b0c0493865d9"
          ],
          "data": "0x00000000000000000000000081a1e7f34b9babf172087cf5df8a4df6500e9d4d00000000000000000000000000000000000000000000000000008b2716a6900000000000000000000000000000000000000000000000000000008b2716a690000000000000000000000000000000000000000000000000000000000000077880",
          "blockHash": "0x392e494fd6301b3fd8b3610b27470d2a274db9550031d50c025f9aa816ebabfa",
          "blockNumber": "0x1ff03f4",
          "transactionHash": "0x468dd337b2421ba84bbb5a64f928224b510ff6eebd3836b7ceddd4b7cc655480",
          "transactionIndex": "0x6",
          "logIndex": "0x7ea",
          "removed": false
        },
        {
          "address": "0x8cE9786dc4bbB558C1F219f10b1F2f70A6Ced7eC",
          "topics": [
            "0xb95558c5fa26a0093cddc7ad7eb438c0475c3d69925f02e8787c72661472ad90"
          ],
          "data": "0x00000000000000000000000000000000000000000000000000008b2716a68c1800000000000000000000000081a1e7f34b9babf172087cf5df8a4df6500e9d4d00000000000000000000000000000000000000000000000000008b2716a690000000000000000000000000000000000000000000000000000000000000077880",
          "blockHash": "0x392e494fd6301b3fd8b3610b27470d2a274db9550031d50c025f9aa816ebabfa",
          "blockNumber": "0x1ff03f4",
          "transactionHash": "0x468dd337b2421ba84bbb5a64f928224b510ff6eebd3836b7ceddd4b7cc655480",
          "transactionIndex": "0x6",
          "logIndex": "0x7eb",
          "removed": false
        }
      ],
      "status": "0x1",
      "logsBloom": "0x000000100000000000000000004000100000000000000000000001000000000000000000000000000201000000000010050000000000080000000000002200600002000000020200400000080000200000000000000000000000000800000004000000000200000000000000000008000000000040000000000040100000000000000000000000000008208000000000000000000000000000000000080080100200000000000c0000000000000000000000000000000000000000000000000044000002000000000000200000000004000000000000002000000000000060000090000000000000000000000000000000000000400000004000000000000000",
      "type": "0x2",
      "effectiveGasPrice": "0xb2d05f08"
    }
  ],
  "libraries": [],
  "pending": [],
  "returns": {},
  "timestamp": 1713359953,
  "chain": 100,
  "commit": "82b2400"
}