{
  "transactions": [
    {
      "hash": "0x1b9fd357c74f1fbfb7962c6740392cb1ccbe4d7f9d530e9fe7ebb7289b063372",
      "transactionType": "CALL",
      "contractName": null,
      "contractAddress": "0x6a023ccd1ff6f2045c3309768ead9e68f978f6e1",
      "function": "approve(address,uint256)",
      "arguments": [
        "0x9B4AE758A0e4305c39a02f1AB46e1e7BAc8b2D9E",
        "30000000000000"
      ],
      "transaction": {
        "from": "0x81a1e7f34b9babf172087cf5df8a4df6500e9d4d",
        "to": "0x6a023ccd1ff6f2045c3309768ead9e68f978f6e1",
        "gas": "0x115a1",
        "value": "0x0",
        "input": "0x095ea7b30000000000000000000000009b4ae758a0e4305c39a02f1ab46e1e7bac8b2d9e00000000000000000000000000000000000000000000000000001b48eb57e000",
        "nonce": "0x7e",
        "chainId": "0x64"
      },
      "additionalContracts": [],
      "isFixedGasLimit": false
    },
    {
      "hash": "0xaa42fd375026d8d85a78375e37489e9dfb0b921dab27f12a681a7bce88a8c4a3",
      "transactionType": "CALL",
      "contractName": null,
      "contractAddress": "0xddafbb505ad214d7b80b1f830fccc89b60fb7a83",
      "function": "approve(address,uint256)",
      "arguments": [
        "0x9B4AE758A0e4305c39a02f1AB46e1e7BAc8b2D9E",
        "88500"
      ],
      "transaction": {
        "from": "0x81a1e7f34b9babf172087cf5df8a4df6500e9d4d",
        "to": "0xddafbb505ad214d7b80b1f830fccc89b60fb7a83",
        "gas": "0x1157f",
        "value": "0x0",
        "input": "0x095ea7b30000000000000000000000009b4ae758a0e4305c39a02f1ab46e1e7bac8b2d9e00000000000000000000000000000000000000000000000000000000000159b4",
        "nonce": "0x7f",
        "chainId": "0x64"
      },
      "additionalContracts": [],
      "isFixedGasLimit": false
    },
    {
      "hash": "0xbaa9e28606ae65acc248b3f2a2dd2ce54c93535ca95a2128f945c8fefc6e9ed5",
      "transactionType": "CALL",
      "contractName": "ArrakisMetaVaultPublic",
      "contractAddress": "0x8c65404010892b265ff981c8789ce81e0385536b",
      "function": "mint(uint256,address)",
      "arguments": [
        "30000000000000",
        "0x81a1e7F34b9bABf172087cF5df8A4DF6500e9d4d"
      ],
      "transaction": {
        "from": "0x81a1e7f34b9babf172087cf5df8a4df6500e9d4d",
        "to": "0x8c65404010892b265ff981c8789ce81e0385536b",
        "gas": "0xa1f60",
        "value": "0x0",
        "input": "0x94bf804d00000000000000000000000000000000000000000000000000001b48eb57e00000000000000000000000000081a1e7f34b9babf172087cf5df8a4df6500e9d4d",
        "nonce": "0x80",
        "chainId": "0x64"
      },
      "additionalContracts": [],
      "isFixedGasLimit": false
    }
  ],
  "receipts": [
    {
      "status": "0x1",
      "cumulativeGasUsed": "0x5a9e81",
      "logs": [
        {
          "address": "0x6a023ccd1ff6f2045c3309768ead9e68f978f6e1",
          "topics": [
            "0x8c5be1e5ebec7d5bd14f71427d1e84f3dd0314c0f7b2291e5b200ac8c7c3b925",
            "0x00000000000000000000000081a1e7f34b9babf172087cf5df8a4df6500e9d4d",
            "0x0000000000000000000000009b4ae758a0e4305c39a02f1ab46e1e7bac8b2d9e"
          ],
          "data": "0x00000000000000000000000000000000000000000000000000001b48eb57e000",
          "blockHash": "0xa672e53afb6473088cd1150ffb7398d7fe8d69eab70bdb884158ed8d86d4f2a2",
          "blockNumber": "0x2067024",
          "transactionHash": "0x1b9fd357c74f1fbfb7962c6740392cb1ccbe4d7f9d530e9fe7ebb7289b063372",
          "transactionIndex": "0xc",
          "logIndex": "0x479",
          "removed": false
        }
      ],
      "logsBloom": "0x00000000000000000000000000000002000000000000000000000000000000000000000000000000020000000000000000000000000000000000000000220000000000000000000000000000000000000000000000000000000000000000000000000000000000000000000000000000000000000000000000000000000000000000000000000000000000000000000000000000000000000000000000008000020000000000000000000000000000000000000000000000000000000000000044000000000000000000000000000000000000000000000100000000000000000010000000000000000000000002000000000000000000004000000000000000",
      "type": "0x0",
      "transactionHash": "0x1b9fd357c74f1fbfb7962c6740392cb1ccbe4d7f9d530e9fe7ebb7289b063372",
      "transactionIndex": "0xc",
      "blockHash": "0xa672e53afb6473088cd1150ffb7398d7fe8d69eab70bdb884158ed8d86d4f2a2",
      "blockNumber": "0x2067024",
      "gasUsed": "0xc900",
      "effectiveGasPrice": "0x909237c4",
      "from": "0x81a1e7f34b9babf172087cf5df8a4df6500e9d4d",
      "to": "0x6a023ccd1ff6f2045c3309768ead9e68f978f6e1",
      "contractAddress": null
    },
    {
      "status": "0x1",
      "cumulativeGasUsed": "0x5b6769",
      "logs": [
        {
          "address": "0xddafbb505ad214d7b80b1f830fccc89b60fb7a83",
          "topics": [
            "0x8c5be1e5ebec7d5bd14f71427d1e84f3dd0314c0f7b2291e5b200ac8c7c3b925",
            "0x00000000000000000000000081a1e7f34b9babf172087cf5df8a4df6500e9d4d",
            "0x0000000000000000000000009b4ae758a0e4305c39a02f1ab46e1e7bac8b2d9e"
          ],
          "data": "0x00000000000000000000000000000000000000000000000000000000000159b4",
          "blockHash": "0xa672e53afb6473088cd1150ffb7398d7fe8d69eab70bdb884158ed8d86d4f2a2",
          "blockNumber": "0x2067024",
          "transactionHash": "0xaa42fd375026d8d85a78375e37489e9dfb0b921dab27f12a681a7bce88a8c4a3",
          "transactionIndex": "0xd",
          "logIndex": "0x47a",
          "removed": false
        }
      ],
      "logsBloom": "0x00000000000000000000000000000002000000000000000000000000000000000000000000000000020000000000000000000000000000000000000000220000000000000000000000000000000000000000000000000000000000000000000000000000000000000000000000000000000000000000000000000000000000000000000000000000000000800000000000000000000000000000000000000000020000000000000000000000000000000000000000000000000000000000000000000000000000000000000000000004000000000000000100000000000000000010000000000000000000000002000000000000400000004000000000000000",
      "type": "0x0",
      "transactionHash": "0xaa42fd375026d8d85a78375e37489e9dfb0b921dab27f12a681a7bce88a8c4a3",
      "transactionIndex": "0xd",
      "blockHash": "0xa672e53afb6473088cd1150ffb7398d7fe8d69eab70bdb884158ed8d86d4f2a2",
      "blockNumber": "0x2067024",
      "gasUsed": "0xc8e8",
      "effectiveGasPrice": "0x909237c4",
      "from": "0x81a1e7f34b9babf172087cf5df8a4df6500e9d4d",
      "to": "0xddafbb505ad214d7b80b1f830fccc89b60fb7a83",
      "contractAddress": null
    },
    {
      "status": "0x1",
      "cumulativeGasUsed": "0x62534b",
      "logs": [
        {
          "address": "0x8c65404010892b265ff981c8789ce81e0385536b",
          "topics": [
            "0xddf252ad1be2c89b69c2b068fc378daa952ba7f163c4a11628f55a4df523b3ef",
            "0x0000000000000000000000000000000000000000000000000000000000000000",
            "0x0000000000000000000000000000000000000000000000000000000000000000"
          ],
          "data": "0x00000000000000000000000000000000000000000000000000000000000003e8",
          "blockHash": "0xa672e53afb6473088cd1150ffb7398d7fe8d69eab70bdb884158ed8d86d4f2a2",
          "blockNumber": "0x2067024",
          "transactionHash": "0xbaa9e28606ae65acc248b3f2a2dd2ce54c93535ca95a2128f945c8fefc6e9ed5",
          "transactionIndex": "0xe",
          "logIndex": "0x47b",
          "removed": false
        },
        {
          "address": "0x8c65404010892b265ff981c8789ce81e0385536b",
          "topics": [
            "0xddf252ad1be2c89b69c2b068fc378daa952ba7f163c4a11628f55a4df523b3ef",
            "0x0000000000000000000000000000000000000000000000000000000000000000",
            "0x00000000000000000000000081a1e7f34b9babf172087cf5df8a4df6500e9d4d"
          ],
          "data": "0x00000000000000000000000000000000000000000000000000001b48eb57dc18",
          "blockHash": "0xa672e53afb6473088cd1150ffb7398d7fe8d69eab70bdb884158ed8d86d4f2a2",
          "blockNumber": "0x2067024",
          "transactionHash": "0xbaa9e28606ae65acc248b3f2a2dd2ce54c93535ca95a2128f945c8fefc6e9ed5",
          "transactionIndex": "0xe",
          "logIndex": "0x47c",
          "removed": false
        },
        {
          "address": "0x6a023ccd1ff6f2045c3309768ead9e68f978f6e1",
          "topics": [
            "0xddf252ad1be2c89b69c2b068fc378daa952ba7f163c4a11628f55a4df523b3ef",
            "0x00000000000000000000000081a1e7f34b9babf172087cf5df8a4df6500e9d4d",
            "0x0000000000000000000000009b4ae758a0e4305c39a02f1ab46e1e7bac8b2d9e"
          ],
          "data": "0x00000000000000000000000000000000000000000000000000001b48eb57e000",
          "blockHash": "0xa672e53afb6473088cd1150ffb7398d7fe8d69eab70bdb884158ed8d86d4f2a2",
          "blockNumber": "0x2067024",
          "transactionHash": "0xbaa9e28606ae65acc248b3f2a2dd2ce54c93535ca95a2128f945c8fefc6e9ed5",
          "transactionIndex": "0xe",
          "logIndex": "0x47d",
          "removed": false
        },
        {
          "address": "0x6a023ccd1ff6f2045c3309768ead9e68f978f6e1",
          "topics": [
            "0x8c5be1e5ebec7d5bd14f71427d1e84f3dd0314c0f7b2291e5b200ac8c7c3b925",
            "0x00000000000000000000000081a1e7f34b9babf172087cf5df8a4df6500e9d4d",
            "0x0000000000000000000000009b4ae758a0e4305c39a02f1ab46e1e7bac8b2d9e"
          ],
          "data": "0x0000000000000000000000000000000000000000000000000000000000000000",
          "blockHash": "0xa672e53afb6473088cd1150ffb7398d7fe8d69eab70bdb884158ed8d86d4f2a2",
          "blockNumber": "0x2067024",
          "transactionHash": "0xbaa9e28606ae65acc248b3f2a2dd2ce54c93535ca95a2128f945c8fefc6e9ed5",
          "transactionIndex": "0xe",
          "logIndex": "0x47e",
          "removed": false
        },
        {
          "address": "0xddafbb505ad214d7b80b1f830fccc89b60fb7a83",
          "topics": [
            "0xddf252ad1be2c89b69c2b068fc378daa952ba7f163c4a11628f55a4df523b3ef",
            "0x00000000000000000000000081a1e7f34b9babf172087cf5df8a4df6500e9d4d",
            "0x0000000000000000000000009b4ae758a0e4305c39a02f1ab46e1e7bac8b2d9e"
          ],
          "data": "0x00000000000000000000000000000000000000000000000000000000000159b4",
          "blockHash": "0xa672e53afb6473088cd1150ffb7398d7fe8d69eab70bdb884158ed8d86d4f2a2",
          "blockNumber": "0x2067024",
          "transactionHash": "0xbaa9e28606ae65acc248b3f2a2dd2ce54c93535ca95a2128f945c8fefc6e9ed5",
          "transactionIndex": "0xe",
          "logIndex": "0x47f",
          "removed": false
        },
        {
          "address": "0xddafbb505ad214d7b80b1f830fccc89b60fb7a83",
          "topics": [
            "0x8c5be1e5ebec7d5bd14f71427d1e84f3dd0314c0f7b2291e5b200ac8c7c3b925",
            "0x00000000000000000000000081a1e7f34b9babf172087cf5df8a4df6500e9d4d",
            "0x0000000000000000000000009b4ae758a0e4305c39a02f1ab46e1e7bac8b2d9e"
          ],
          "data": "0x0000000000000000000000000000000000000000000000000000000000000000",
          "blockHash": "0xa672e53afb6473088cd1150ffb7398d7fe8d69eab70bdb884158ed8d86d4f2a2",
          "blockNumber": "0x2067024",
          "transactionHash": "0xbaa9e28606ae65acc248b3f2a2dd2ce54c93535ca95a2128f945c8fefc6e9ed5",
          "transactionIndex": "0xe",
          "logIndex": "0x480",
          "removed": false
        },
        {
          "address": "0x6a023ccd1ff6f2045c3309768ead9e68f978f6e1",
          "topics": [
            "0x8c5be1e5ebec7d5bd14f71427d1e84f3dd0314c0f7b2291e5b200ac8c7c3b925",
            "0x0000000000000000000000009b4ae758a0e4305c39a02f1ab46e1e7bac8b2d9e",
            "0x000000000000000000000000d6871ba0887cd7fb463f9059202ad8fb123e0115"
          ],
          "data": "0x00000000000000000000000000000000000000000000000000001b48eb57e000",
          "blockHash": "0xa672e53afb6473088cd1150ffb7398d7fe8d69eab70bdb884158ed8d86d4f2a2",
          "blockNumber": "0x2067024",
          "transactionHash": "0xbaa9e28606ae65acc248b3f2a2dd2ce54c93535ca95a2128f945c8fefc6e9ed5",
          "transactionIndex": "0xe",
          "logIndex": "0x481",
          "removed": false
        },
        {
          "address": "0xddafbb505ad214d7b80b1f830fccc89b60fb7a83",
          "topics": [
            "0x8c5be1e5ebec7d5bd14f71427d1e84f3dd0314c0f7b2291e5b200ac8c7c3b925",
            "0x0000000000000000000000009b4ae758a0e4305c39a02f1ab46e1e7bac8b2d9e",
            "0x000000000000000000000000d6871ba0887cd7fb463f9059202ad8fb123e0115"
          ],
          "data": "0x00000000000000000000000000000000000000000000000000000000000159b4",
          "blockHash": "0xa672e53afb6473088cd1150ffb7398d7fe8d69eab70bdb884158ed8d86d4f2a2",
          "blockNumber": "0x2067024",
          "transactionHash": "0xbaa9e28606ae65acc248b3f2a2dd2ce54c93535ca95a2128f945c8fefc6e9ed5",
          "transactionIndex": "0xe",
          "logIndex": "0x482",
          "removed": false
        },
        {
          "address": "0x6a023ccd1ff6f2045c3309768ead9e68f978f6e1",
          "topics": [
            "0xddf252ad1be2c89b69c2b068fc378daa952ba7f163c4a11628f55a4df523b3ef",
            "0x0000000000000000000000009b4ae758a0e4305c39a02f1ab46e1e7bac8b2d9e",
            "0x0000000000000000000000005e5a67764248045650e96941937ccbca80da92d3"
          ],
          "data": "0x00000000000000000000000000000000000000000000000000001b48eb57e000",
          "blockHash": "0xa672e53afb6473088cd1150ffb7398d7fe8d69eab70bdb884158ed8d86d4f2a2",
          "blockNumber": "0x2067024",
          "transactionHash": "0xbaa9e28606ae65acc248b3f2a2dd2ce54c93535ca95a2128f945c8fefc6e9ed5",
          "transactionIndex": "0xe",
          "logIndex": "0x483",
          "removed": false
        },
        {
          "address": "0x6a023ccd1ff6f2045c3309768ead9e68f978f6e1",
          "topics": [
            "0x8c5be1e5ebec7d5bd14f71427d1e84f3dd0314c0f7b2291e5b200ac8c7c3b925",
            "0x0000000000000000000000009b4ae758a0e4305c39a02f1ab46e1e7bac8b2d9e",
            "0x000000000000000000000000d6871ba0887cd7fb463f9059202ad8fb123e0115"
          ],
          "data": "0x0000000000000000000000000000000000000000000000000000000000000000",
          "blockHash": "0xa672e53afb6473088cd1150ffb7398d7fe8d69eab70bdb884158ed8d86d4f2a2",
          "blockNumber": "0x2067024",
          "transactionHash": "0xbaa9e28606ae65acc248b3f2a2dd2ce54c93535ca95a2128f945c8fefc6e9ed5",
          "transactionIndex": "0xe",
          "logIndex": "0x484",
          "removed": false
        },
        {
          "address": "0xddafbb505ad214d7b80b1f830fccc89b60fb7a83",
          "topics": [
            "0xddf252ad1be2c89b69c2b068fc378daa952ba7f163c4a11628f55a4df523b3ef",
            "0x0000000000000000000000009b4ae758a0e4305c39a02f1ab46e1e7bac8b2d9e",
            "0x0000000000000000000000005e5a67764248045650e96941937ccbca80da92d3"
          ],
          "data": "0x00000000000000000000000000000000000000000000000000000000000159b4",
          "blockHash": "0xa672e53afb6473088cd1150ffb7398d7fe8d69eab70bdb884158ed8d86d4f2a2",
          "blockNumber": "0x2067024",
          "transactionHash": "0xbaa9e28606ae65acc248b3f2a2dd2ce54c93535ca95a2128f945c8fefc6e9ed5",
          "transactionIndex": "0xe",
          "logIndex": "0x485",
          "removed": false
        },
        {
          "address": "0xddafbb505ad214d7b80b1f830fccc89b60fb7a83",
          "topics": [
            "0x8c5be1e5ebec7d5bd14f71427d1e84f3dd0314c0f7b2291e5b200ac8c7c3b925",
            "0x0000000000000000000000009b4ae758a0e4305c39a02f1ab46e1e7bac8b2d9e",
            "0x000000000000000000000000d6871ba0887cd7fb463f9059202ad8fb123e0115"
          ],
          "data": "0x0000000000000000000000000000000000000000000000000000000000000000",
          "blockHash": "0xa672e53afb6473088cd1150ffb7398d7fe8d69eab70bdb884158ed8d86d4f2a2",
          "blockNumber": "0x2067024",
          "transactionHash": "0xbaa9e28606ae65acc248b3f2a2dd2ce54c93535ca95a2128f945c8fefc6e9ed5",
          "transactionIndex": "0xe",
          "logIndex": "0x486",
          "removed": false
        },
        {
          "address": "0x5e5a67764248045650e96941937ccbca80da92d3",
          "topics": [
            "0x5b479c5a76f3eddfff87849b354aee2a3fbdafd3c2c1a95561143bd2ec1f1e64"
          ],
          "data": "0x00000000000000000000000000000000000000000000000000001b48eb57e00000000000000000000000000000000000000000000000000000000000000159b4",
          "blockHash": "0xa672e53afb6473088cd1150ffb7398d7fe8d69eab70bdb884158ed8d86d4f2a2",
          "blockNumber": "0x2067024",
          "transactionHash": "0xbaa9e28606ae65acc248b3f2a2dd2ce54c93535ca95a2128f945c8fefc6e9ed5",
          "transactionIndex": "0xe",
          "logIndex": "0x487",
          "removed": false
        },
        {
          "address": "0x9b4ae758a0e4305c39a02f1ab46e1e7bac8b2d9e",
          "topics": [
            "0x4b2bcb0ca50531683faa51870e1018aa0d7272c7f2acc5399389b0c0493865d9"
          ],
          "data": "0x00000000000000000000000081a1e7f34b9babf172087cf5df8a4df6500e9d4d00000000000000000000000000000000000000000000000000001b48eb57e00000000000000000000000000000000000000000000000000000001b48eb57e00000000000000000000000000000000000000000000000000000000000000159b4",
          "blockHash": "0xa672e53afb6473088cd1150ffb7398d7fe8d69eab70bdb884158ed8d86d4f2a2",
          "blockNumber": "0x2067024",
          "transactionHash": "0xbaa9e28606ae65acc248b3f2a2dd2ce54c93535ca95a2128f945c8fefc6e9ed5",
          "transactionIndex": "0xe",
          "logIndex": "0x488",
          "removed": false
        },
        {
          "address": "0x8c65404010892b265ff981c8789ce81e0385536b",
          "topics": [
            "0xb95558c5fa26a0093cddc7ad7eb438c0475c3d69925f02e8787c72661472ad90"
          ],
          "data": "0x00000000000000000000000000000000000000000000000000001b48eb57dc1800000000000000000000000081a1e7f34b9babf172087cf5df8a4df6500e9d4d00000000000000000000000000000000000000000000000000001b48eb57e00000000000000000000000000000000000000000000000000000000000000159b4",
          "blockHash": "0xa672e53afb6473088cd1150ffb7398d7fe8d69eab70bdb884158ed8d86d4f2a2",
          "blockNumber": "0x2067024",
          "transactionHash": "0xbaa9e28606ae65acc248b3f2a2dd2ce54c93535ca95a2128f945c8fefc6e9ed5",
          "transactionIndex": "0xe",
          "logIndex": "0x489",
          "removed": false
        }
      ],
      "logsBloom": "0x00000010000000000000000000000012000000008000004000000000000000000000010000000000020000000000001001000000000008000000000000220040000000000000020400000008000000000000000000000000000000000000000000000000020100000000000000000800000000000000000000000010080000000000000000000000000000800000000000000000000010800000000000008010020000000000001000000000000000000000000000000000000000000000000044000002000800200000000000000004000000000000000110004000000060000010000000000000000000000002000000000000401000004000000040000000",
      "type": "0x0",
      "transactionHash": "0xbaa9e28606ae65acc248b3f2a2dd2ce54c93535ca95a2128f945c8fefc6e9ed5",
      "transactionIndex": "0xe",
      "blockHash": "0xa672e53afb6473088cd1150ffb7398d7fe8d69eab70bdb884158ed8d86d4f2a2",
      "blockNumber": "0x2067024",
      "gasUsed": "0x6ebe2",
      "effectiveGasPrice": "0x909237c4",
      "from": "0x81a1e7f34b9babf172087cf5df8a4df6500e9d4d",
      "to": "0x8c65404010892b265ff981c8789ce81e0385536b",
      "contractAddress": null
    }
  ],
  "libraries": [],
  "pending": [],
  "returns": {},
  "timestamp": 1715874152,
  "chain": 100,
  "commit": "395fa72"
}