{
  "transactions": [
    {
      "hash": "0x7d897f4962d5987701bb939d0d1efe30384484bc21dfec83df650edc97cadfb8",
      "transactionType": "CALL",
      "contractName": "TimeLock",
      "contractAddress": "0x6Db15200e553bc0Ca146ebD7838502e5d33255cf",
      "function": "execute(address,uint256,bytes,bytes32,bytes32)",
      "arguments": [
        "0x9E09D9943B40685e8B78f6DC43069652dd6E6efD",
        "0",
        "0x7170f03c00000000000000000000000055c21fd657ebbd4d91b2051d9e327d8fde9c415d0000000000000000000000005c84594d6fc8c4a6faee0eedf0b9e49d232431700000000000000000000000000000000000000000000000000000000000004e20000000000000000000000000000000000000000000000000000000000000003c000000000000000000000000acf11affd3ed865fa2df304ec5048c29597f38f900000000000000000000000081a1e7f34b9babf172087cf5df8a4df6500e9d4d0000000000000000000000000000000000000000000000000000000000004e20",
        "0x0000000000000000000000000000000000000000000000000000000000000000",
        "0x0000000000000000000000000000000000000000000000000000000000000000"
      ],
      "transaction": {
        "type": "0x02",
        "from": "0x81a1e7f34b9babf172087cf5df8a4df6500e9d4d",
        "to": "0x6db15200e553bc0ca146ebd7838502e5d33255cf",
        "gas": "0x1c2b8",
        "value": "0x0",
        "data": "0x134008d30000000000000000000000009e09d9943b40685e8b78f6dc43069652dd6e6efd000000000000000000000000000000000000000000000000000000000000000000000000000000000000000000000000000000000000000000000000000000a00000000000000000000000000000000000000000000000000000000000000000000000000000000000000000000000000000000000000000000000000000000000000000000000000000000000000000000000000000000000000000000000e47170f03c00000000000000000000000055c21fd657ebbd4d91b2051d9e327d8fde9c415d0000000000000000000000005c84594d6fc8c4a6faee0eedf0b9e49d232431700000000000000000000000000000000000000000000000000000000000004e20000000000000000000000000000000000000000000000000000000000000003c000000000000000000000000acf11affd3ed865fa2df304ec5048c29597f38f900000000000000000000000081a1e7f34b9babf172087cf5df8a4df6500e9d4d0000000000000000000000000000000000000000000000000000000000004e2000000000000000000000000000000000000000000000000000000000",
        "nonce": "0x40",
        "accessList": []
      },
      "additionalContracts": [],
      "isFixedGasLimit": false
    }
  ],
  "receipts": [
    {
      "transactionHash": "0x7d897f4962d5987701bb939d0d1efe30384484bc21dfec83df650edc97cadfb8",
      "transactionIndex": "0x0",
      "blockHash": "0x62cd1e88c87607e1757303b06a34f31124562e2e3ab9040819ccafd34df5b40f",
      "blockNumber": "0x1fe8206",
      "from": "0x81a1e7F34b9bABf172087cF5df8A4DF6500e9d4d",
      "to": "0x6Db15200e553bc0Ca146ebD7838502e5d33255cf",
      "cumulativeGasUsed": "0x14650",
      "gasUsed": "0x14650",
      "contractAddress": null,
      "logs": [
        {
          "address": "0x9E09D9943B40685e8B78f6DC43069652dd6E6efD",
          "topics": [
            "0x848acd7079af2a323ca6b8a860068c114673abe038a880b126bf280c26032c04",
            "0x00000000000000000000000055c21fd657ebbd4d91b2051d9e327d8fde9c415d"
          ],
          "data": "0x0000000000000000000000005c84594d6fc8c4a6faee0eedf0b9e49d232431700000000000000000000000000000000000000000000000000000000000004e200000000000000000000000000000000000000000000000000000000000004e20000000000000000000000000000000000000000000000000000000000000003c000000000000000000000000acf11affd3ed865fa2df304ec5048c29597f38f900000000000000000000000081a1e7f34b9babf172087cf5df8a4df6500e9d4d",
          "blockHash": "0x62cd1e88c87607e1757303b06a34f31124562e2e3ab9040819ccafd34df5b40f",
          "blockNumber": "0x1fe8206",
          "transactionHash": "0x7d897f4962d5987701bb939d0d1efe30384484bc21dfec83df650edc97cadfb8",
          "transactionIndex": "0x0",
          "logIndex": "0x0",
          "removed": false
        },
        {
          "address": "0x6Db15200e553bc0Ca146ebD7838502e5d33255cf",
          "topics": [
            "0xc2617efa69bab66782fa219543714338489c4e9e178271560a91b82c3f612b58",
            "0x68714d3b0a3130174d539637a0076e5514619a0fa41baa9272da7be5ae9c9c14",
            "0x0000000000000000000000000000000000000000000000000000000000000000"
          ],
          "data": "0x0000000000000000000000009e09d9943b40685e8b78f6dc43069652dd6e6efd0000000000000000000000000000000000000000000000000000000000000000000000000000000000000000000000000000000000000000000000000000006000000000000000000000000000000000000000000000000000000000000000e47170f03c00000000000000000000000055c21fd657ebbd4d91b2051d9e327d8fde9c415d0000000000000000000000005c84594d6fc8c4a6faee0eedf0b9e49d232431700000000000000000000000000000000000000000000000000000000000004e20000000000000000000000000000000000000000000000000000000000000003c000000000000000000000000acf11affd3ed865fa2df304ec5048c29597f38f900000000000000000000000081a1e7f34b9babf172087cf5df8a4df6500e9d4d0000000000000000000000000000000000000000000000000000000000004e2000000000000000000000000000000000000000000000000000000000",
          "blockHash": "0x62cd1e88c87607e1757303b06a34f31124562e2e3ab9040819ccafd34df5b40f",
          "blockNumber": "0x1fe8206",
          "transactionHash": "0x7d897f4962d5987701bb939d0d1efe30384484bc21dfec83df650edc97cadfb8",
          "transactionIndex": "0x0",
          "logIndex": "0x1",
          "removed": false
        }
      ],
      "status": "0x1",
      "logsBloom": "0x00000000000000000000000000000000000000000004000000000000000000000000000000000000000000000000000000000000000800000000000000000080000000000000000000000000000000000000000000000000000000000000002000000080020020000000000000010800000000000000000004200000000000000000000000000000000000000000000000000000001000000000200000000000000000000000000010000000000000000000000000000000000000000000000000000000000800080000200000000000000010000000000000000000000020000000000000000000000000000000000000000000000000000000000000000000",
      "type": "0x2",
      "effectiveGasPrice": "0xb2d05e08"
    }
  ],
  "libraries": [],
  "pending": [],
  "returns": {},
  "timestamp": 1713188211,
  "chain": 100,
  "commit": "fc570f4"
}