{
  "transactions": [
    {
      "hash": "0x84b8dc9f8afef6b2e1a8e12440b2e014ef9f6caa2fef37d68ca947f6c25b2680",
      "transactionType": "CALL",
      "contractName": null,
      "contractAddress": "0xb527cb6AD6A92041fA7bAFe41798F8c46f070a20",
      "function": "execute(address,uint256,bytes,bytes32,bytes32)",
      "arguments": [
        "0x9E09D9943B40685e8B78f6DC43069652dd6E6efD",
        "0",
        "0x7170f03c0000000000000000000000002b15756e32af0b47fb1d44db1f7b71feb457c5e7000000000000000000000000781a349e66cf9e909af1ecdefb75fc3b87e54d3a0000000000000000000000000000000000000000000000000000000000004e20000000000000000000000000000000000000000000000000000000000000003c000000000000000000000000acf11affd3ed865fa2df304ec5048c29597f38f900000000000000000000000081a1e7f34b9babf172087cf5df8a4df6500e9d4d0000000000000000000000000000000000000000000000000000000000004e20",
        "0x0000000000000000000000000000000000000000000000000000000000000000",
        "0x0000000000000000000000000000000000000000000000000000000000000000"
      ],
      "transaction": {
        "type": "0x02",
        "from": "0x81a1e7f34b9babf172087cf5df8a4df6500e9d4d",
        "to": "0xb527cb6ad6a92041fa7bafe41798f8c46f070a20",
        "gas": "0x1c2b8",
        "value": "0x0",
        "data": "0x134008d30000000000000000000000009e09d9943b40685e8b78f6dc43069652dd6e6efd000000000000000000000000000000000000000000000000000000000000000000000000000000000000000000000000000000000000000000000000000000a00000000000000000000000000000000000000000000000000000000000000000000000000000000000000000000000000000000000000000000000000000000000000000000000000000000000000000000000000000000000000000000000e47170f03c0000000000000000000000002b15756e32af0b47fb1d44db1f7b71feb457c5e7000000000000000000000000781a349e66cf9e909af1ecdefb75fc3b87e54d3a0000000000000000000000000000000000000000000000000000000000004e20000000000000000000000000000000000000000000000000000000000000003c000000000000000000000000acf11affd3ed865fa2df304ec5048c29597f38f900000000000000000000000081a1e7f34b9babf172087cf5df8a4df6500e9d4d0000000000000000000000000000000000000000000000000000000000004e2000000000000000000000000000000000000000000000000000000000",
        "nonce": "0x3e",
        "accessList": []
      },
      "additionalContracts": [],
      "isFixedGasLimit": false
    }
  ],
  "receipts": [
    {
      "transactionHash": "0x84b8dc9f8afef6b2e1a8e12440b2e014ef9f6caa2fef37d68ca947f6c25b2680",
      "transactionIndex": "0x1",
      "blockHash": "0x311da42d5069e2fc8c92fe0f2b88027ce1e9eca3ffd0e87c58cc261c575b579c",
      "blockNumber": "0x1fe81db",
      "from": "0x81a1e7F34b9bABf172087cF5df8A4DF6500e9d4d",
      "to": "0xb527cb6AD6A92041fA7bAFe41798F8c46f070a20",
      "cumulativeGasUsed": "0x455795",
      "gasUsed": "0x14650",
      "contractAddress": null,
      "logs": [
        {
          "address": "0x9E09D9943B40685e8B78f6DC43069652dd6E6efD",
          "topics": [
            "0x848acd7079af2a323ca6b8a860068c114673abe038a880b126bf280c26032c04",
            "0x0000000000000000000000002b15756e32af0b47fb1d44db1f7b71feb457c5e7"
          ],
          "data": "0x000000000000000000000000781a349e66cf9e909af1ecdefb75fc3b87e54d3a0000000000000000000000000000000000000000000000000000000000004e200000000000000000000000000000000000000000000000000000000000004e20000000000000000000000000000000000000000000000000000000000000003c000000000000000000000000acf11affd3ed865fa2df304ec5048c29597f38f900000000000000000000000081a1e7f34b9babf172087cf5df8a4df6500e9d4d",
          "blockHash": "0x311da42d5069e2fc8c92fe0f2b88027ce1e9eca3ffd0e87c58cc261c575b579c",
          "blockNumber": "0x1fe81db",
          "transactionHash": "0x84b8dc9f8afef6b2e1a8e12440b2e014ef9f6caa2fef37d68ca947f6c25b2680",
          "transactionIndex": "0x1",
          "logIndex": "0x3b6",
          "removed": false
        },
        {
          "address": "0xb527cb6AD6A92041fA7bAFe41798F8c46f070a20",
          "topics": [
            "0xc2617efa69bab66782fa219543714338489c4e9e178271560a91b82c3f612b58",
            "0xff76dba495962bc6a13afd86f48b0508082029d5331e80a9aaa7631d74f1afa6",
            "0x0000000000000000000000000000000000000000000000000000000000000000"
          ],
          "data": "0x0000000000000000000000009e09d9943b40685e8b78f6dc43069652dd6e6efd0000000000000000000000000000000000000000000000000000000000000000000000000000000000000000000000000000000000000000000000000000006000000000000000000000000000000000000000000000000000000000000000e47170f03c0000000000000000000000002b15756e32af0b47fb1d44db1f7b71feb457c5e7000000000000000000000000781a349e66cf9e909af1ecdefb75fc3b87e54d3a0000000000000000000000000000000000000000000000000000000000004e20000000000000000000000000000000000000000000000000000000000000003c000000000000000000000000acf11affd3ed865fa2df304ec5048c29597f38f900000000000000000000000081a1e7f34b9babf172087cf5df8a4df6500e9d4d0000000000000000000000000000000000000000000000000000000000004e2000000000000000000000000000000000000000000000000000000000",
          "blockHash": "0x311da42d5069e2fc8c92fe0f2b88027ce1e9eca3ffd0e87c58cc261c575b579c",
          "blockNumber": "0x1fe81db",
          "transactionHash": "0x84b8dc9f8afef6b2e1a8e12440b2e014ef9f6caa2fef37d68ca947f6c25b2680",
          "transactionIndex": "0x1",
          "logIndex": "0x3b7",
          "removed": false
        }
      ],
      "status": "0x1",
      "logsBloom": "0x000000000000000000000000000000000000000000000000000000000000000000000004080000000000000000000000000000000008000000000000000000c0000000000000000000000000000000000000000000000000000000000000002000000080020000000000000000000800000000000000000004200000000000000000000000000000000000000000000000000000001000000000000000000000000000000000000010000000000000000000000000000000000000000000000000000000000000080000000000000000000001000000000000000000000020000000000000000080000001020000000000000000000000000000000000000080",
      "type": "0x2",
      "effectiveGasPrice": "0xb2d05e0a"
    }
  ],
  "libraries": [],
  "pending": [],
  "returns": {},
  "timestamp": 1713187993,
  "chain": 100,
  "commit": "fc570f4"
}