{
  "transactions": [
    {
      "hash": "0xb2be4aa9a9e2501e63863182045e92cc69b8102bb40a2004a3cd6b8329cd03ba",
      "transactionType": "CALL",
      "contractName": "TimeLock",
      "contractAddress": "0x119e26B6D72376Ac741d5546eA295d1A0160E26c",
      "function": "execute(address,uint256,bytes,bytes32,bytes32)",
      "arguments": [
        "0xb6F7f65a5cc81B5dA5E9aB58FB37Cb174f4Fb3ca",
        "0",
        "0x7170f03c0000000000000000000000008ce9786dc4bbb558c1f219f10b1f2f70a6ced7ec000000000000000000000000cd3b683c6514e94a48d7993544c199341fcdd14e0000000000000000000000000000000000000000000000000000000000004e20000000000000000000000000000000000000000000000000000000000000003c000000000000000000000000acf11affd3ed865fa2df304ec5048c29597f38f900000000000000000000000081a1e7f34b9babf172087cf5df8a4df6500e9d4d0000000000000000000000000000000000000000000000000000000000004e20",
        "0x0000000000000000000000000000000000000000000000000000000000000000",
        "0x0000000000000000000000000000000000000000000000000000000000000000"
      ],
      "transaction": {
        "type": "0x02",
        "from": "0x81a1e7f34b9babf172087cf5df8a4df6500e9d4d",
        "to": "0x119e26b6d72376ac741d5546ea295d1a0160e26c",
        "gas": "0x1c1f6",
        "value": "0x0",
        "data": "0x134008d3000000000000000000000000b6f7f65a5cc81b5da5e9ab58fb37cb174f4fb3ca000000000000000000000000000000000000000000000000000000000000000000000000000000000000000000000000000000000000000000000000000000a00000000000000000000000000000000000000000000000000000000000000000000000000000000000000000000000000000000000000000000000000000000000000000000000000000000000000000000000000000000000000000000000e47170f03c0000000000000000000000008ce9786dc4bbb558c1f219f10b1f2f70a6ced7ec000000000000000000000000cd3b683c6514e94a48d7993544c199341fcdd14e0000000000000000000000000000000000000000000000000000000000004e20000000000000000000000000000000000000000000000000000000000000003c000000000000000000000000acf11affd3ed865fa2df304ec5048c29597f38f900000000000000000000000081a1e7f34b9babf172087cf5df8a4df6500e9d4d0000000000000000000000000000000000000000000000000000000000004e2000000000000000000000000000000000000000000000000000000000",
        "nonce": "0x5e",
        "accessList": []
      },
      "additionalContracts": [],
      "isFixedGasLimit": false
    }
  ],
  "receipts": [
    {
      "transactionHash": "0xb2be4aa9a9e2501e63863182045e92cc69b8102bb40a2004a3cd6b8329cd03ba",
      "transactionIndex": "0x6",
      "blockHash": "0x60521cc449bb25601d1266b6d70dd99988ca6bc955f50eb9ed2d0e8eb369328a",
      "blockNumber": "0x1ff0589",
      "from": "0x81a1e7F34b9bABf172087cF5df8A4DF6500e9d4d",
      "to": "0x119e26B6D72376Ac741d5546eA295d1A0160E26c",
      "cumulativeGasUsed": "0x1c3038",
      "gasUsed": "0x145c4",
      "contractAddress": null,
      "logs": [
        {
          "address": "0xb6F7f65a5cc81B5dA5E9aB58FB37Cb174f4Fb3ca",
          "topics": [
            "0x848acd7079af2a323ca6b8a860068c114673abe038a880b126bf280c26032c04",
            "0x0000000000000000000000008ce9786dc4bbb558c1f219f10b1f2f70a6ced7ec"
          ],
          "data": "0x000000000000000000000000cd3b683c6514e94a48d7993544c199341fcdd14e0000000000000000000000000000000000000000000000000000000000004e200000000000000000000000000000000000000000000000000000000000004e20000000000000000000000000000000000000000000000000000000000000003c000000000000000000000000acf11affd3ed865fa2df304ec5048c29597f38f900000000000000000000000081a1e7f34b9babf172087cf5df8a4df6500e9d4d",
          "blockHash": "0x60521cc449bb25601d1266b6d70dd99988ca6bc955f50eb9ed2d0e8eb369328a",
          "blockNumber": "0x1ff0589",
          "transactionHash": "0xb2be4aa9a9e2501e63863182045e92cc69b8102bb40a2004a3cd6b8329cd03ba",
          "transactionIndex": "0x6",
          "logIndex": "0xf0",
          "removed": false
        },
        {
          "address": "0x119e26B6D72376Ac741d5546eA295d1A0160E26c",
          "topics": [
            "0xc2617efa69bab66782fa219543714338489c4e9e178271560a91b82c3f612b58",
            "0xd5f2a3364626879c619cd858a1922e30643ac14d5e05ea619473ad5aed683147",
            "0x0000000000000000000000000000000000000000000000000000000000000000"
          ],
          "data": "0x000000000000000000000000b6f7f65a5cc81b5da5e9ab58fb37cb174f4fb3ca0000000000000000000000000000000000000000000000000000000000000000000000000000000000000000000000000000000000000000000000000000006000000000000000000000000000000000000000000000000000000000000000e47170f03c0000000000000000000000008ce9786dc4bbb558c1f219f10b1f2f70a6ced7ec000000000000000000000000cd3b683c6514e94a48d7993544c199341fcdd14e0000000000000000000000000000000000000000000000000000000000004e20000000000000000000000000000000000000000000000000000000000000003c000000000000000000000000acf11affd3ed865fa2df304ec5048c29597f38f900000000000000000000000081a1e7f34b9babf172087cf5df8a4df6500e9d4d0000000000000000000000000000000000000000000000000000000000004e2000000000000000000000000000000000000000000000000000000000",
          "blockHash": "0x60521cc449bb25601d1266b6d70dd99988ca6bc955f50eb9ed2d0e8eb369328a",
          "blockNumber": "0x1ff0589",
          "transactionHash": "0xb2be4aa9a9e2501e63863182045e92cc69b8102bb40a2004a3cd6b8329cd03ba",
          "transactionIndex": "0x6",
          "logIndex": "0xf1",
          "removed": false
        }
      ],
      "status": "0x1",
      "logsBloom": "0x00000000000000000000000000000000000100000000000000000008000008000000000000000000000000000000800000000000000800000000000000000000000000000000000000000000000000000000000000000000000000000000002004000080020000000000000000000800000000000000000006000000000000002000040000000000000000000000000000000000000000000000000000000000000000000000000010000000000000000000000000000000000000000000000000000000000000080001100000000000000000000000000800000000000020000000000000400000000000000000000000000000000000000000000000000000",
      "type": "0x2",
      "effectiveGasPrice": "0xb2d05e0c"
    }
  ],
  "libraries": [],
  "pending": [],
  "returns": {},
  "timestamp": 1713362036,
  "chain": 100,
  "commit": "82b2400"
}