{
  "transactions": [
    {
      "hash": "0x255760ceb0fa38f35116a1dd684d06d93a6d633f0a8fd62dda617c26f1abd2d4",
      "transactionType": "CALL",
      "contractName": null,
      "contractAddress": "0x57769cbc17fbce61cb7c15319d68f2974fda06e0",
      "function": "execute(address,uint256,bytes,bytes32,bytes32)",
      "arguments": [
        "0xD0294EEE29287Bf69311552109F3FB84B3f2c1DC",
        "0",
        "0x7170f03c0000000000000000000000008c65404010892b265ff981c8789ce81e0385536b000000000000000000000000a9a1fc87a36bf5d4bebeba69e9e5caab3ee742fa0000000000000000000000000000000000000000000000000000000000004e20000000000000000000000000000000000000000000000000000000000000003c000000000000000000000000acf11affd3ed865fa2df304ec5048c29597f38f900000000000000000000000081a1e7f34b9babf172087cf5df8a4df6500e9d4d0000000000000000000000000000000000000000000000000000000000004e20",
        "0x0000000000000000000000000000000000000000000000000000000000000000",
        "0x0000000000000000000000000000000000000000000000000000000000000000"
      ],
      "transaction": {
        "from": "0x81a1e7f34b9babf172087cf5df8a4df6500e9d4d",
        "to": "0x57769cbc17fbce61cb7c15319d68f2974fda06e0",
        "gas": "0x1c9c0",
        "value": "0x0",
        "input": "0x134008d3000000000000000000000000d0294eee29287bf69311552109f3fb84b3f2c1dc000000000000000000000000000000000000000000000000000000000000000000000000000000000000000000000000000000000000000000000000000000a00000000000000000000000000000000000000000000000000000000000000000000000000000000000000000000000000000000000000000000000000000000000000000000000000000000000000000000000000000000000000000000000e47170f03c0000000000000000000000008c65404010892b265ff981c8789ce81e0385536b000000000000000000000000a9a1fc87a36bf5d4bebeba69e9e5caab3ee742fa0000000000000000000000000000000000000000000000000000000000004e20000000000000000000000000000000000000000000000000000000000000003c000000000000000000000000acf11affd3ed865fa2df304ec5048c29597f38f900000000000000000000000081a1e7f34b9babf172087cf5df8a4df6500e9d4d0000000000000000000000000000000000000000000000000000000000004e2000000000000000000000000000000000000000000000000000000000",
        "nonce": "0x7b",
        "chainId": "0x64"
      },
      "additionalContracts": [],
      "isFixedGasLimit": false
    }
  ],
  "receipts": [
    {
      "status": "0x1",
      "cumulativeGasUsed": "0x55c53a",
      "logs": [
        {
          "address": "0xd0294eee29287bf69311552109f3fb84b3f2c1dc",
          "topics": [
            "0x848acd7079af2a323ca6b8a860068c114673abe038a880b126bf280c26032c04",
            "0x0000000000000000000000008c65404010892b265ff981c8789ce81e0385536b"
          ],
          "data": "0x000000000000000000000000a9a1fc87a36bf5d4bebeba69e9e5caab3ee742fa0000000000000000000000000000000000000000000000000000000000004e200000000000000000000000000000000000000000000000000000000000004e20000000000000000000000000000000000000000000000000000000000000003c000000000000000000000000acf11affd3ed865fa2df304ec5048c29597f38f900000000000000000000000081a1e7f34b9babf172087cf5df8a4df6500e9d4d",
          "blockHash": "0xe0ab9dd0ae363e510b8025261d23e82279355cee51b7b933eee231ab957bb61a",
          "blockNumber": "0x2065e95",
          "transactionHash": "0x255760ceb0fa38f35116a1dd684d06d93a6d633f0a8fd62dda617c26f1abd2d4",
          "transactionIndex": "0x26",
          "logIndex": "0xfa",
          "removed": false
        },
        {
          "address": "0x57769cbc17fbce61cb7c15319d68f2974fda06e0",
          "topics": [
            "0xc2617efa69bab66782fa219543714338489c4e9e178271560a91b82c3f612b58",
            "0xb5dd2869f310d420ee83a1589b7ef359da4ff817a340163de0fe8482ac276a27",
            "0x0000000000000000000000000000000000000000000000000000000000000000"
          ],
          "data": "0x000000000000000000000000d0294eee29287bf69311552109f3fb84b3f2c1dc0000000000000000000000000000000000000000000000000000000000000000000000000000000000000000000000000000000000000000000000000000006000000000000000000000000000000000000000000000000000000000000000e47170f03c0000000000000000000000008c65404010892b265ff981c8789ce81e0385536b000000000000000000000000a9a1fc87a36bf5d4bebeba69e9e5caab3ee742fa0000000000000000000000000000000000000000000000000000000000004e20000000000000000000000000000000000000000000000000000000000000003c000000000000000000000000acf11affd3ed865fa2df304ec5048c29597f38f900000000000000000000000081a1e7f34b9babf172087cf5df8a4df6500e9d4d0000000000000000000000000000000000000000000000000000000000004e2000000000000000000000000000000000000000000000000000000000",
          "blockHash": "0xe0ab9dd0ae363e510b8025261d23e82279355cee51b7b933eee231ab957bb61a",
          "blockNumber": "0x2065e95",
          "transactionHash": "0x255760ceb0fa38f35116a1dd684d06d93a6d633f0a8fd62dda617c26f1abd2d4",
          "transactionIndex": "0x26",
          "logIndex": "0xfb",
          "removed": false
        }
      ],
      "logsBloom": "0x00000000000000000000000100000000000000000000000000000000000000000000000000000000000000000000000000801000000800000000000000000000000080000000000000000000000000000000000000000000000000000000002000000080020000000000000010000804000000000000000004000000000000000000000000000000000000000000000000000000000000000200000000000000000020000000000010000000000000040000000000000000000000000200000000000000000000080000000000000000000000000000000000000000000020000000000000000000000000000000000000000000000000000004000000000000",
      "type": "0x0",
      "transactionHash": "0x255760ceb0fa38f35116a1dd684d06d93a6d633f0a8fd62dda617c26f1abd2d4",
      "transactionIndex": "0x26",
      "blockHash": "0xe0ab9dd0ae363e510b8025261d23e82279355cee51b7b933eee231ab957bb61a",
      "blockNumber": "0x2065e95",
      "gasUsed": "0x14b68",
      "effectiveGasPrice": "0x80d66bef",
      "from": "0x81a1e7f34b9babf172087cf5df8a4df6500e9d4d",
      "to": "0x57769cbc17fbce61cb7c15319d68f2974fda06e0",
      "contractAddress": null
    }
  ],
  "libraries": [],
  "pending": [],
  "returns": {},
  "timestamp": 1715851049,
  "chain": 100,
  "commit": "395fa72"
}