{
  "transactions": [
    {
      "hash": "0x03cf2c7306ec43f3760b6e9cbad52a65c3cd7e8d792edfb435096870a03db9b6",
      "transactionType": "CALL",
      "contractName": null,
      "contractAddress": "0x57769cbc17fbce61cb7c15319d68f2974fda06e0",
      "function": "schedule(address,uint256,bytes,bytes32,bytes32,uint256)",
      "arguments": [
        "0xD0294EEE29287Bf69311552109F3FB84B3f2c1DC",
        "0",
        "0x7170f03c0000000000000000000000008c65404010892b265ff981c8789ce81e0385536b000000000000000000000000a9a1fc87a36bf5d4bebeba69e9e5caab3ee742fa0000000000000000000000000000000000000000000000000000000000004e20000000000000000000000000000000000000000000000000000000000000003c000000000000000000000000acf11affd3ed865fa2df304ec5048c29597f38f900000000000000000000000081a1e7f34b9babf172087cf5df8a4df6500e9d4d0000000000000000000000000000000000000000000000000000000000004e20",
        "0x0000000000000000000000000000000000000000000000000000000000000000",
        "0x0000000000000000000000000000000000000000000000000000000000000000",
        "60"
      ],
      "transaction": {
        "from": "0x81a1e7f34b9babf172087cf5df8a4df6500e9d4d",
        "to": "0x57769cbc17fbce61cb7c15319d68f2974fda06e0",
        "gas": "0x138e0",
        "value": "0x0",
        "input": "0x01d5062a000000000000000000000000d0294eee29287bf69311552109f3fb84b3f2c1dc000000000000000000000000000000000000000000000000000000000000000000000000000000000000000000000000000000000000000000000000000000c000000000000000000000000000000000000000000000000000000000000000000000000000000000000000000000000000000000000000000000000000000000000000000000000000000000000000000000000000000000000000000000003c00000000000000000000000000000000000000000000000000000000000000e47170f03c0000000000000000000000008c65404010892b265ff981c8789ce81e0385536b000000000000000000000000a9a1fc87a36bf5d4bebeba69e9e5caab3ee742fa0000000000000000000000000000000000000000000000000000000000004e20000000000000000000000000000000000000000000000000000000000000003c000000000000000000000000acf11affd3ed865fa2df304ec5048c29597f38f900000000000000000000000081a1e7f34b9babf172087cf5df8a4df6500e9d4d0000000000000000000000000000000000000000000000000000000000004e2000000000000000000000000000000000000000000000000000000000",
        "nonce": "0x7a",
        "chainId": "0x64"
      },
      "additionalContracts": [],
      "isFixedGasLimit": false
    }
  ],
  "receipts": [
    {
      "status": "0x1",
      "cumulativeGasUsed": "0x37c85d",
      "logs": [
        {
          "address": "0x57769cbc17fbce61cb7c15319d68f2974fda06e0",
          "topics": [
            "0x4cf4410cc57040e44862ef0f45f3dd5a5e02db8eb8add648d4b0e236f1d07dca",
            "0xb5dd2869f310d420ee83a1589b7ef359da4ff817a340163de0fe8482ac276a27",
            "0x0000000000000000000000000000000000000000000000000000000000000000"
          ],
          "data": "0x000000000000000000000000d0294eee29287bf69311552109f3fb84b3f2c1dc000000000000000000000000000000000000000000000000000000000000000000000000000000000000000000000000000000000000000000000000000000a00000000000000000000000000000000000000000000000000000000000000000000000000000000000000000000000000000000000000000000000000000003c00000000000000000000000000000000000000000000000000000000000000e47170f03c0000000000000000000000008c65404010892b265ff981c8789ce81e0385536b000000000000000000000000a9a1fc87a36bf5d4bebeba69e9e5caab3ee742fa0000000000000000000000000000000000000000000000000000000000004e20000000000000000000000000000000000000000000000000000000000000003c000000000000000000000000acf11affd3ed865fa2df304ec5048c29597f38f900000000000000000000000081a1e7f34b9babf172087cf5df8a4df6500e9d4d0000000000000000000000000000000000000000000000000000000000004e2000000000000000000000000000000000000000000000000000000000",
          "blockHash": "0x3412e19be88189ea9ab3f2a367689d131a806ce7be62613528ecf01766c9a719",
          "blockNumber": "0x2065e82",
          "transactionHash": "0x03cf2c7306ec43f3760b6e9cbad52a65c3cd7e8d792edfb435096870a03db9b6",
          "transactionIndex": "0xe",
          "logIndex": "0x1bc",
          "removed": false
        }
      ],
      "logsBloom": "0x00000000000000000000000140000000000000000000000000000000000000000000000000000000000000000000000100001000000000000000000000000000000080000000000000000000000000000000000000000000000000000000000000000000020000000000000000000800000000000000000000000000000000000000000000000000000000000000000000000000000000000000000000000000000020000000000000000000000000040000000000000000000000000000000000000000000000000000000000000000000000000000400000000000000020000000000000000000000000000000000000000000000000000004000000000000",
      "type": "0x0",
      "transactionHash": "0x03cf2c7306ec43f3760b6e9cbad52a65c3cd7e8d792edfb435096870a03db9b6",
      "transactionIndex": "0xe",
      "blockHash": "0x3412e19be88189ea9ab3f2a367689d131a806ce7be62613528ecf01766c9a719",
      "blockNumber": "0x2065e82",
      "gasUsed": "0xe285",
      "effectiveGasPrice": "0x80d66bec",
      "from": "0x81a1e7f34b9babf172087cf5df8a4df6500e9d4d",
      "to": "0x57769cbc17fbce61cb7c15319d68f2974fda06e0",
      "contractAddress": null
    }
  ],
  "libraries": [],
  "pending": [],
  "returns": {},
  "timestamp": 1715850954,
  "chain": 100,
  "commit": "395fa72"
}