{
  "transactions": [
    {
      "hash": "0xc3b0d090c050b7800cb57f9389ccc4669ff7b911d42bd2ef2f1f606f7908051f",
      "transactionType": "CALL",
      "contractName": "TimeLock",
      "contractAddress": "0x119e26B6D72376Ac741d5546eA295d1A0160E26c",
      "function": "schedule(address,uint256,bytes,bytes32,bytes32,uint256)",
      "arguments": [
        "0xb6F7f65a5cc81B5dA5E9aB58FB37Cb174f4Fb3ca",
        "0",
        "0x7170f03c0000000000000000000000008ce9786dc4bbb558c1f219f10b1f2f70a6ced7ec000000000000000000000000cd3b683c6514e94a48d7993544c199341fcdd14e0000000000000000000000000000000000000000000000000000000000004e20000000000000000000000000000000000000000000000000000000000000003c000000000000000000000000acf11affd3ed865fa2df304ec5048c29597f38f900000000000000000000000081a1e7f34b9babf172087cf5df8a4df6500e9d4d0000000000000000000000000000000000000000000000000000000000004e20",
        "0x0000000000000000000000000000000000000000000000000000000000000000",
        "0x0000000000000000000000000000000000000000000000000000000000000000",
        "60"
      ],
      "transaction": {
        "type": "0x02",
        "from": "0x81a1e7f34b9babf172087cf5df8a4df6500e9d4d",
        "to": "0x119e26b6d72376ac741d5546ea295d1a0160e26c",
        "gas": "0x13a30",
        "value": "0x0",
        "data": "0x01d5062a000000000000000000000000b6f7f65a5cc81b5da5e9ab58fb37cb174f4fb3ca000000000000000000000000000000000000000000000000000000000000000000000000000000000000000000000000000000000000000000000000000000c000000000000000000000000000000000000000000000000000000000000000000000000000000000000000000000000000000000000000000000000000000000000000000000000000000000000000000000000000000000000000000000003c00000000000000000000000000000000000000000000000000000000000000e47170f03c0000000000000000000000008ce9786dc4bbb558c1f219f10b1f2f70a6ced7ec000000000000000000000000cd3b683c6514e94a48d7993544c199341fcdd14e0000000000000000000000000000000000000000000000000000000000004e20000000000000000000000000000000000000000000000000000000000000003c000000000000000000000000acf11affd3ed865fa2df304ec5048c29597f38f900000000000000000000000081a1e7f34b9babf172087cf5df8a4df6500e9d4d0000000000000000000000000000000000000000000000000000000000004e2000000000000000000000000000000000000000000000000000000000",
        "nonce": "0x5d",
        "accessList": []
      },
      "additionalContracts": [],
      "isFixedGasLimit": false
    }
  ],
  "receipts": [
    {
      "transactionHash": "0xc3b0d090c050b7800cb57f9389ccc4669ff7b911d42bd2ef2f1f606f7908051f",
      "transactionIndex": "0x9",
      "blockHash": "0xf98d3623e264774c84ebac14e030647f8077778ccfb31a16060e414bb56cad4b",
      "blockNumber": "0x1ff0566",
      "from": "0x81a1e7F34b9bABf172087cF5df8A4DF6500e9d4d",
      "to": "0x119e26B6D72376Ac741d5546eA295d1A0160E26c",
      "cumulativeGasUsed": "0x9932bf",
      "gasUsed": "0xe378",
      "contractAddress": null,
      "logs": [
        {
          "address": "0x119e26B6D72376Ac741d5546eA295d1A0160E26c",
          "topics": [
            "0x4cf4410cc57040e44862ef0f45f3dd5a5e02db8eb8add648d4b0e236f1d07dca",
            "0xd5f2a3364626879c619cd858a1922e30643ac14d5e05ea619473ad5aed683147",
            "0x0000000000000000000000000000000000000000000000000000000000000000"
          ],
          "data": "0x000000000000000000000000b6f7f65a5cc81b5da5e9ab58fb37cb174f4fb3ca000000000000000000000000000000000000000000000000000000000000000000000000000000000000000000000000000000000000000000000000000000a00000000000000000000000000000000000000000000000000000000000000000000000000000000000000000000000000000000000000000000000000000003c00000000000000000000000000000000000000000000000000000000000000e47170f03c0000000000000000000000008ce9786dc4bbb558c1f219f10b1f2f70a6ced7ec000000000000000000000000cd3b683c6514e94a48d7993544c199341fcdd14e0000000000000000000000000000000000000000000000000000000000004e20000000000000000000000000000000000000000000000000000000000000003c000000000000000000000000acf11affd3ed865fa2df304ec5048c29597f38f900000000000000000000000081a1e7f34b9babf172087cf5df8a4df6500e9d4d0000000000000000000000000000000000000000000000000000000000004e2000000000000000000000000000000000000000000000000000000000",
          "blockHash": "0xf98d3623e264774c84ebac14e030647f8077778ccfb31a16060e414bb56cad4b",
          "blockNumber": "0x1ff0566",
          "transactionHash": "0xc3b0d090c050b7800cb57f9389ccc4669ff7b911d42bd2ef2f1f606f7908051f",
          "transactionIndex": "0x9",
          "logIndex": "0x9d5",
          "removed": false
        }
      ],
      "status": "0x1",
      "logsBloom": "0x00000000000000000000000040000000000100000000000000000008000000000000000000000000000000000000800100000000000000000000000000000000000000000000000000000000000000000000000000000000000000000000000000000000020000000000000000000800000000000000000000000000000000000000000000000000000000000000000000000000000000000000000000000000000000000000000000000000000000000000000000000000000000000000000000000000000000000001100000000000000000000000400000000000000020000000000000400000000000000000000000000000000000000000000000000000",
      "type": "0x2",
      "effectiveGasPrice": "0xb2d05e0f"
    }
  ],
  "libraries": [],
  "pending": [],
  "returns": {},
  "timestamp": 1713361865,
  "chain": 100,
  "commit": "82b2400"
}