{
  "transactions": [
    {
      "hash": "0x89955ba25e51246c8b898ff7b06da92d23104caf4b82e64e3b1ecf7455df2023",
      "transactionType": "CALL",
      "contractName": "TimeLock",
      "contractAddress": "0x6Db15200e553bc0Ca146ebD7838502e5d33255cf",
      "function": "schedule(address,uint256,bytes,bytes32,bytes32,uint256)",
      "arguments": [
        "0x9E09D9943B40685e8B78f6DC43069652dd6E6efD",
        "0",
        "0x7170f03c00000000000000000000000055c21fd657ebbd4d91b2051d9e327d8fde9c415d0000000000000000000000005c84594d6fc8c4a6faee0eedf0b9e49d232431700000000000000000000000000000000000000000000000000000000000004e20000000000000000000000000000000000000000000000000000000000000003c000000000000000000000000acf11affd3ed865fa2df304ec5048c29597f38f900000000000000000000000081a1e7f34b9babf172087cf5df8a4df6500e9d4d0000000000000000000000000000000000000000000000000000000000004e20",
        "0x0000000000000000000000000000000000000000000000000000000000000000",
        "0x0000000000000000000000000000000000000000000000000000000000000000",
        "60"
      ],
      "transaction": {
        "type": "0x02",
        "from": "0x81a1e7f34b9babf172087cf5df8a4df6500e9d4d",
        "to": "0x6db15200e553bc0ca146ebd7838502e5d33255cf",
        "gas": "0x13a30",
        "value": "0x0",
        "data": "0x01d5062a0000000000000000000000009e09d9943b40685e8b78f6dc43069652dd6e6efd000000000000000000000000000000000000000000000000000000000000000000000000000000000000000000000000000000000000000000000000000000c000000000000000000000000000000000000000000000000000000000000000000000000000000000000000000000000000000000000000000000000000000000000000000000000000000000000000000000000000000000000000000000003c00000000000000000000000000000000000000000000000000000000000000e47170f03c00000000000000000000000055c21fd657ebbd4d91b2051d9e327d8fde9c415d0000000000000000000000005c84594d6fc8c4a6faee0eedf0b9e49d232431700000000000000000000000000000000000000000000000000000000000004e20000000000000000000000000000000000000000000000000000000000000003c000000000000000000000000acf11affd3ed865fa2df304ec5048c29597f38f900000000000000000000000081a1e7f34b9babf172087cf5df8a4df6500e9d4d0000000000000000000000000000000000000000000000000000000000004e2000000000000000000000000000000000000000000000000000000000",
        "nonce": "0x3f",
        "accessList": []
      },
      "additionalContracts": [],
      "isFixedGasLimit": false
    }
  ],
  "receipts": [
    {
      "transactionHash": "0x89955ba25e51246c8b898ff7b06da92d23104caf4b82e64e3b1ecf7455df2023",
      "transactionIndex": "0x2",
      "blockHash": "0x948533b9429e6fa36a9fb3201e24c18e3aa235e6d4d1be1a0953e3dfaa6fa73d",
      "blockNumber": "0x1fe81f4",
      "from": "0x81a1e7F34b9bABf172087cF5df8A4DF6500e9d4d",
      "to": "0x6Db15200e553bc0Ca146ebD7838502e5d33255cf",
      "cumulativeGasUsed": "0x7cd5a",
      "gasUsed": "0xe378",
      "contractAddress": null,
      "logs": [
        {
          "address": "0x6Db15200e553bc0Ca146ebD7838502e5d33255cf",
          "topics": [
            "0x4cf4410cc57040e44862ef0f45f3dd5a5e02db8eb8add648d4b0e236f1d07dca",
            "0x68714d3b0a3130174d539637a0076e5514619a0fa41baa9272da7be5ae9c9c14",
            "0x0000000000000000000000000000000000000000000000000000000000000000"
          ],
          "data": "0x0000000000000000000000009e09d9943b40685e8b78f6dc43069652dd6e6efd000000000000000000000000000000000000000000000000000000000000000000000000000000000000000000000000000000000000000000000000000000a00000000000000000000000000000000000000000000000000000000000000000000000000000000000000000000000000000000000000000000000000000003c00000000000000000000000000000000000000000000000000000000000000e47170f03c00000000000000000000000055c21fd657ebbd4d91b2051d9e327d8fde9c415d0000000000000000000000005c84594d6fc8c4a6faee0eedf0b9e49d232431700000000000000000000000000000000000000000000000000000000000004e20000000000000000000000000000000000000000000000000000000000000003c000000000000000000000000acf11affd3ed865fa2df304ec5048c29597f38f900000000000000000000000081a1e7f34b9babf172087cf5df8a4df6500e9d4d0000000000000000000000000000000000000000000000000000000000004e2000000000000000000000000000000000000000000000000000000000",
          "blockHash": "0x948533b9429e6fa36a9fb3201e24c18e3aa235e6d4d1be1a0953e3dfaa6fa73d",
          "blockNumber": "0x1fe81f4",
          "transactionHash": "0x89955ba25e51246c8b898ff7b06da92d23104caf4b82e64e3b1ecf7455df2023",
          "transactionIndex": "0x2",
          "logIndex": "0x7",
          "removed": false
        }
      ],
      "status": "0x1",
      "logsBloom": "0x00000000000000000000000040000000000000000004000000000000000000000000000000000000000000000000000100000000000000000000000000000000000000000000000000000000000000000000000000000000000000000000000000000000020020000000000000010800000000000000000000000000000000000000000000000000000000000000000000000000000000000000000000000000000000000000000000000000000000000000000000000000000000000000000000000000000800000000200000000000000010000000400000000000000020000000000000000000000000000000000000000000000000000000000000000000",
      "type": "0x2",
      "effectiveGasPrice": "0xb2d05e09"
    }
  ],
  "libraries": [],
  "pending": [],
  "returns": {},
  "timestamp": 1713188116,
  "chain": 100,
  "commit": "fc570f4"
}